{
  "contractName": "CryptoFace",
  "abi": [
    {
      "inputs": [],
      "stateMutability": "nonpayable",
      "type": "constructor"
    },
    {
      "anonymous": false,
      "inputs": [
        {
          "indexed": true,
          "internalType": "address",
          "name": "owner",
          "type": "address"
        },
        {
          "indexed": true,
          "internalType": "address",
          "name": "approved",
          "type": "address"
        },
        {
          "indexed": true,
          "internalType": "uint256",
          "name": "tokenId",
          "type": "uint256"
        }
      ],
      "name": "Approval",
      "type": "event"
    },
    {
      "anonymous": false,
      "inputs": [
        {
          "indexed": true,
          "internalType": "address",
          "name": "owner",
          "type": "address"
        },
        {
          "indexed": true,
          "internalType": "address",
          "name": "operator",
          "type": "address"
        },
        {
          "indexed": false,
          "internalType": "bool",
          "name": "approved",
          "type": "bool"
        }
      ],
      "name": "ApprovalForAll",
      "type": "event"
    },
    {
      "anonymous": false,
      "inputs": [
        {
          "indexed": true,
          "internalType": "address",
          "name": "from",
          "type": "address"
        },
        {
          "indexed": true,
          "internalType": "address",
          "name": "to",
          "type": "address"
        },
        {
          "indexed": true,
          "internalType": "uint256",
          "name": "tokenId",
          "type": "uint256"
        }
      ],
      "name": "Transfer",
      "type": "event"
    },
    {
      "inputs": [
        {
          "internalType": "address",
          "name": "to",
          "type": "address"
        },
        {
          "internalType": "uint256",
          "name": "tokenId",
          "type": "uint256"
        }
      ],
      "name": "approve",
      "outputs": [],
      "stateMutability": "nonpayable",
      "type": "function"
    },
    {
      "inputs": [
        {
          "internalType": "address",
          "name": "owner",
          "type": "address"
        }
      ],
      "name": "balanceOf",
      "outputs": [
        {
          "internalType": "uint256",
          "name": "",
          "type": "uint256"
        }
      ],
      "stateMutability": "view",
      "type": "function",
      "constant": true
    },
    {
      "inputs": [
        {
          "internalType": "uint256",
          "name": "tokenId",
          "type": "uint256"
        }
      ],
      "name": "getApproved",
      "outputs": [
        {
          "internalType": "address",
          "name": "",
          "type": "address"
        }
      ],
      "stateMutability": "view",
      "type": "function",
      "constant": true
    },
    {
      "inputs": [
        {
          "internalType": "address",
          "name": "owner",
          "type": "address"
        },
        {
          "internalType": "address",
          "name": "operator",
          "type": "address"
        }
      ],
      "name": "isApprovedForAll",
      "outputs": [
        {
          "internalType": "bool",
          "name": "",
          "type": "bool"
        }
      ],
      "stateMutability": "view",
      "type": "function",
      "constant": true
    },
    {
      "inputs": [],
      "name": "name",
      "outputs": [
        {
          "internalType": "string",
          "name": "",
          "type": "string"
        }
      ],
      "stateMutability": "view",
      "type": "function",
      "constant": true
    },
    {
      "inputs": [
        {
          "internalType": "uint256",
          "name": "tokenId",
          "type": "uint256"
        }
      ],
      "name": "ownerOf",
      "outputs": [
        {
          "internalType": "address",
          "name": "",
          "type": "address"
        }
      ],
      "stateMutability": "view",
      "type": "function",
      "constant": true
    },
    {
      "inputs": [
        {
          "internalType": "address",
          "name": "from",
          "type": "address"
        },
        {
          "internalType": "address",
          "name": "to",
          "type": "address"
        },
        {
          "internalType": "uint256",
          "name": "tokenId",
          "type": "uint256"
        }
      ],
      "name": "safeTransferFrom",
      "outputs": [],
      "stateMutability": "nonpayable",
      "type": "function"
    },
    {
      "inputs": [
        {
          "internalType": "address",
          "name": "from",
          "type": "address"
        },
        {
          "internalType": "address",
          "name": "to",
          "type": "address"
        },
        {
          "internalType": "uint256",
          "name": "tokenId",
          "type": "uint256"
        },
        {
          "internalType": "bytes",
          "name": "_data",
          "type": "bytes"
        }
      ],
      "name": "safeTransferFrom",
      "outputs": [],
      "stateMutability": "nonpayable",
      "type": "function"
    },
    {
      "inputs": [
        {
          "internalType": "address",
          "name": "operator",
          "type": "address"
        },
        {
          "internalType": "bool",
          "name": "approved",
          "type": "bool"
        }
      ],
      "name": "setApprovalForAll",
      "outputs": [],
      "stateMutability": "nonpayable",
      "type": "function"
    },
    {
      "inputs": [
        {
          "internalType": "bytes4",
          "name": "interfaceId",
          "type": "bytes4"
        }
      ],
      "name": "supportsInterface",
      "outputs": [
        {
          "internalType": "bool",
          "name": "",
          "type": "bool"
        }
      ],
      "stateMutability": "view",
      "type": "function",
      "constant": true
    },
    {
      "inputs": [],
      "name": "symbol",
      "outputs": [
        {
          "internalType": "string",
          "name": "",
          "type": "string"
        }
      ],
      "stateMutability": "view",
      "type": "function",
      "constant": true
    },
    {
      "inputs": [
        {
          "internalType": "address",
          "name": "from",
          "type": "address"
        },
        {
          "internalType": "address",
          "name": "to",
          "type": "address"
        },
        {
          "internalType": "uint256",
          "name": "tokenId",
          "type": "uint256"
        }
      ],
      "name": "transferFrom",
      "outputs": [],
      "stateMutability": "nonpayable",
      "type": "function"
    },
    {
      "inputs": [
        {
          "internalType": "address",
          "name": "recipient",
          "type": "address"
        }
      ],
      "name": "addRecipient",
      "outputs": [
        {
          "internalType": "uint256",
          "name": "",
          "type": "uint256"
        }
      ],
      "stateMutability": "nonpayable",
      "type": "function"
    },
    {
      "inputs": [
        {
          "internalType": "address",
          "name": "recipient",
          "type": "address"
        },
        {
          "internalType": "string",
          "name": "hash",
          "type": "string"
        },
        {
          "internalType": "uint256",
          "name": "price",
          "type": "uint256"
        }
      ],
      "name": "addCryptoFace",
      "outputs": [
        {
          "internalType": "uint256",
          "name": "",
          "type": "uint256"
        }
      ],
      "stateMutability": "nonpayable",
      "type": "function"
    },
    {
      "inputs": [
        {
          "internalType": "uint256",
          "name": "tokenId",
          "type": "uint256"
        }
      ],
      "name": "getPrice",
      "outputs": [
        {
          "internalType": "uint256",
          "name": "",
          "type": "uint256"
        }
      ],
      "stateMutability": "view",
      "type": "function",
      "constant": true
    },
    {
      "inputs": [
        {
          "internalType": "uint256",
          "name": "tokenId",
          "type": "uint256"
        }
      ],
      "name": "tokenURI",
      "outputs": [
        {
          "internalType": "string",
          "name": "",
          "type": "string"
        }
      ],
      "stateMutability": "view",
      "type": "function",
      "constant": true
    },
    {
      "inputs": [
        {
          "internalType": "uint256",
          "name": "tokenId",
          "type": "uint256"
        }
      ],
      "name": "getMyToken",
      "outputs": [
        {
          "internalType": "string",
          "name": "",
          "type": "string"
        }
      ],
      "stateMutability": "view",
      "type": "function",
      "constant": true
    },
    {
      "inputs": [],
      "name": "getOwnerList",
      "outputs": [
        {
          "internalType": "address[]",
          "name": "",
          "type": "address[]"
        }
      ],
      "stateMutability": "view",
      "type": "function",
      "constant": true
    },
    {
      "inputs": [],
      "name": "getTokenList",
      "outputs": [
        {
          "internalType": "uint256[]",
          "name": "",
          "type": "uint256[]"
        }
      ],
      "stateMutability": "view",
      "type": "function",
      "constant": true
    }
  ],
  "bytecode": "0x60806040523480156200001157600080fd5b506040518060400160405280600581526020017f43464143450000000000000000000000000000000000000000000000000000008152506040518060400160405280600581526020017f4346414345000000000000000000000000000000000000000000000000000000815250816000908051906020019062000096929190620000b8565b508060019080519060200190620000af929190620000b8565b505050620001cd565b828054620000c69062000168565b90600052602060002090601f016020900481019282620000ea576000855562000136565b82601f106200010557805160ff191683800117855562000136565b8280016001018555821562000136579182015b828111156200013557825182559160200191906001019062000118565b5b50905062000145919062000149565b5090565b5b80821115620001645760008160009055506001016200014a565b5090565b600060028204905060018216806200018157607f821691505b602082108114156200019857620001976200019e565b5b50919050565b7f4e487b7100000000000000000000000000000000000000000000000000000000600052602260045260246000fd5b6135e880620001dd6000396000f3fe608060405234801561001057600080fd5b50600436106101215760003560e01c806358100370116100ad578063b88d4fde11610071578063b88d4fde1461032e578063c87b56dd1461034a578063db93bfa21461037a578063e7572230146103aa578063e985e9c5146103da57610121565b806358100370146102765780636352211e1461029457806370a08231146102c457806395d89b41146102f4578063a22cb4651461031257610121565b80631c3101d3116100f45780631c3101d3146101c057806323b872dd146101f0578063273cbaa01461020c5780633459ebb71461022a57806342842e0e1461025a57610121565b806301ffc9a71461012657806306fdde0314610156578063081812fc14610174578063095ea7b3146101a4575b600080fd5b610140600480360381019061013b919061249c565b61040a565b60405161014d9190612e6e565b60405180910390f35b61015e6104ec565b60405161016b9190612e89565b60405180910390f35b61018e600480360381019061018991906124ee565b61057e565b60405161019b9190612dc3565b60405180910390f35b6101be60048036038101906101b99190612460565b610603565b005b6101da60048036038101906101d5919061228e565b61071b565b6040516101e7919061310b565b60405180910390f35b61020a600480360381019061020591906122f3565b6107ec565b005b61021461084c565b6040516102219190612e4c565b60405180910390f35b610244600480360381019061023f91906123f9565b6108aa565b604051610251919061310b565b60405180910390f35b610274600480360381019061026f91906122f3565b610bba565b005b61027e610bda565b60405161028b9190612e2a565b60405180910390f35b6102ae60048036038101906102a991906124ee565b610c6e565b6040516102bb9190612dc3565b60405180910390f35b6102de60048036038101906102d9919061228e565b610d20565b6040516102eb919061310b565b60405180910390f35b6102fc610dd8565b6040516103099190612e89565b60405180910390f35b61032c600480360381019061032791906123bd565b610e6a565b005b61034860048036038101906103439190612342565b610feb565b005b610364600480360381019061035f91906124ee565b61104d565b6040516103719190612e89565b60405180910390f35b610394600480360381019061038f91906124ee565b61108c565b6040516103a19190612e89565b60405180910390f35b6103c460048036038101906103bf91906124ee565b611168565b6040516103d1919061310b565b60405180910390f35b6103f460048036038101906103ef91906122b7565b6111cd565b6040516104019190612e6e565b60405180910390f35b60007f80ac58cd000000000000000000000000000000000000000000000000000000007bffffffffffffffffffffffffffffffffffffffffffffffffffffffff1916827bffffffffffffffffffffffffffffffffffffffffffffffffffffffff191614806104d557507f5b5e139f000000000000000000000000000000000000000000000000000000007bffffffffffffffffffffffffffffffffffffffffffffffffffffffff1916827bffffffffffffffffffffffffffffffffffffffffffffffffffffffff1916145b806104e557506104e482611261565b5b9050919050565b6060600080546104fb906133dd565b80601f0160208091040260200160405190810160405280929190818152602001828054610527906133dd565b80156105745780601f1061054957610100808354040283529160200191610574565b820191906000526020600020905b81548152906001019060200180831161055757829003601f168201915b5050505050905090565b6000610589826112cb565b6105c8576040517f08c379a00000000000000000000000000000000000000000000000000000000081526004016105bf9061302b565b60405180910390fd5b6004600083815260200190815260200160002060009054906101000a900473ffffffffffffffffffffffffffffffffffffffff169050919050565b600061060e82610c6e565b90508073ffffffffffffffffffffffffffffffffffffffff168373ffffffffffffffffffffffffffffffffffffffff16141561067f576040517f08c379a0000000000000000000000000000000000000000000000000000000008152600401610676906130ab565b60405180910390fd5b8073ffffffffffffffffffffffffffffffffffffffff1661069e611337565b73ffffffffffffffffffffffffffffffffffffffff1614806106cd57506106cc816106c7611337565b6111cd565b5b61070c576040517f08c379a000000000000000000000000000000000000000000000000000000000815260040161070390612f6b565b60405180910390fd5b610716838361133f565b505050565b600080600c60008473ffffffffffffffffffffffffffffffffffffffff1673ffffffffffffffffffffffffffffffffffffffff168152602001908152602001600020541461079e576040517f08c379a0000000000000000000000000000000000000000000000000000000008152600401610795906130eb565b60405180910390fd5b6001600c60008473ffffffffffffffffffffffffffffffffffffffff1673ffffffffffffffffffffffffffffffffffffffff1681526020019081526020016000208190555060019050919050565b6107fd6107f7611337565b826113f8565b61083c576040517f08c379a0000000000000000000000000000000000000000000000000000000008152600401610833906130cb565b60405180910390fd5b6108478383836114d6565b505050565b60606000600980548060200260200160405190810160405280929190818152602001828054801561089c57602002820191906000526020600020905b815481526020019060010190808311610888575b505050505090508091505090565b600080600c60008673ffffffffffffffffffffffffffffffffffffffff1673ffffffffffffffffffffffffffffffffffffffff16815260200190815260200160002054141561092e576040517f08c379a0000000000000000000000000000000000000000000000000000000008152600401610925906130eb565b60405180910390fd5b6000600c60008673ffffffffffffffffffffffffffffffffffffffff1673ffffffffffffffffffffffffffffffffffffffff1681526020019081526020016000205414610bae5760006109816007611732565b9050600181610990919061326c565b905061099b816112cb565b156109db576040517f08c379a00000000000000000000000000000000000000000000000000000000081526004016109d29061304b565b60405180910390fd5b83600a60008381526020019081526020016000209080519060200190610a029291906120b2565b50610a0d8582611740565b610a17600761190e565b610abc81600a60008481526020019081526020016000208054610a39906133dd565b80601f0160208091040260200160405190810160405280929190818152602001828054610a65906133dd565b8015610ab25780601f10610a8757610100808354040283529160200191610ab2565b820191906000526020600020905b815481529060010190602001808311610a9557829003601f168201915b5050505050611924565b82600e60008381526020019081526020016000208190555060098190806001815401808255809150506001900390600052602060002001600090919091909150556008859080600181540180825580915050600190039060005260206000200160009091909190916101000a81548173ffffffffffffffffffffffffffffffffffffffff021916908373ffffffffffffffffffffffffffffffffffffffff1602179055506000600c60008773ffffffffffffffffffffffffffffffffffffffff1673ffffffffffffffffffffffffffffffffffffffff1681526020019081526020016000208190555080915050610bb3565b600090505b9392505050565b610bd583838360405180602001604052806000815250610feb565b505050565b606060006008805480602002602001604051908101604052809291908181526020018280548015610c6057602002820191906000526020600020905b8160009054906101000a900473ffffffffffffffffffffffffffffffffffffffff1673ffffffffffffffffffffffffffffffffffffffff1681526020019060010190808311610c16575b505050505090508091505090565b6000806002600084815260200190815260200160002060009054906101000a900473ffffffffffffffffffffffffffffffffffffffff169050600073ffffffffffffffffffffffffffffffffffffffff168173ffffffffffffffffffffffffffffffffffffffff161415610d17576040517f08c379a0000000000000000000000000000000000000000000000000000000008152600401610d0e90612fab565b60405180910390fd5b80915050919050565b60008073ffffffffffffffffffffffffffffffffffffffff168273ffffffffffffffffffffffffffffffffffffffff161415610d91576040517f08c379a0000000000000000000000000000000000000000000000000000000008152600401610d8890612f8b565b60405180910390fd5b600360008373ffffffffffffffffffffffffffffffffffffffff1673ffffffffffffffffffffffffffffffffffffffff168152602001908152602001600020549050919050565b606060018054610de7906133dd565b80601f0160208091040260200160405190810160405280929190818152602001828054610e13906133dd565b8015610e605780601f10610e3557610100808354040283529160200191610e60565b820191906000526020600020905b815481529060010190602001808311610e4357829003601f168201915b5050505050905090565b610e72611337565b73ffffffffffffffffffffffffffffffffffffffff168273ffffffffffffffffffffffffffffffffffffffff161415610ee0576040517f08c379a0000000000000000000000000000000000000000000000000000000008152600401610ed790612f0b565b60405180910390fd5b8060056000610eed611337565b73ffffffffffffffffffffffffffffffffffffffff1673ffffffffffffffffffffffffffffffffffffffff16815260200190815260200160002060008473ffffffffffffffffffffffffffffffffffffffff1673ffffffffffffffffffffffffffffffffffffffff16815260200190815260200160002060006101000a81548160ff0219169083151502179055508173ffffffffffffffffffffffffffffffffffffffff16610f9a611337565b73ffffffffffffffffffffffffffffffffffffffff167f17307eab39ab6107e8899845ad3d59bd9653f200f220920489ca2b5937696c3183604051610fdf9190612e6e565b60405180910390a35050565b610ffc610ff6611337565b836113f8565b61103b576040517f08c379a0000000000000000000000000000000000000000000000000000000008152600401611032906130cb565b60405180910390fd5b61104784848484611998565b50505050565b60606040518060400160405280600a81526020017f43727970746f46616365000000000000000000000000000000000000000000008152509050919050565b6060611097826112cb565b6110d6576040517f08c379a00000000000000000000000000000000000000000000000000000000081526004016110cd9061304b565b60405180910390fd5b600033905060006110e684610c6e565b90508173ffffffffffffffffffffffffffffffffffffffff168173ffffffffffffffffffffffffffffffffffffffff1614611156576040517f08c379a000000000000000000000000000000000000000000000000000000000815260040161114d90612f2b565b60405180910390fd5b61115f846119f4565b92505050919050565b6000611173826112cb565b6111b2576040517f08c379a00000000000000000000000000000000000000000000000000000000081526004016111a99061304b565b60405180910390fd5b600e6000838152602001908152602001600020549050919050565b6000600560008473ffffffffffffffffffffffffffffffffffffffff1673ffffffffffffffffffffffffffffffffffffffff16815260200190815260200160002060008373ffffffffffffffffffffffffffffffffffffffff1673ffffffffffffffffffffffffffffffffffffffff16815260200190815260200160002060009054906101000a900460ff16905092915050565b60007f01ffc9a7000000000000000000000000000000000000000000000000000000007bffffffffffffffffffffffffffffffffffffffffffffffffffffffff1916827bffffffffffffffffffffffffffffffffffffffffffffffffffffffff1916149050919050565b60008073ffffffffffffffffffffffffffffffffffffffff166002600084815260200190815260200160002060009054906101000a900473ffffffffffffffffffffffffffffffffffffffff1673ffffffffffffffffffffffffffffffffffffffff1614159050919050565b600033905090565b816004600083815260200190815260200160002060006101000a81548173ffffffffffffffffffffffffffffffffffffffff021916908373ffffffffffffffffffffffffffffffffffffffff160217905550808273ffffffffffffffffffffffffffffffffffffffff166113b283610c6e565b73ffffffffffffffffffffffffffffffffffffffff167f8c5be1e5ebec7d5bd14f71427d1e84f3dd0314c0f7b2291e5b200ac8c7c3b92560405160405180910390a45050565b6000611403826112cb565b611442576040517f08c379a000000000000000000000000000000000000000000000000000000000815260040161143990612f4b565b60405180910390fd5b600061144d83610c6e565b90508073ffffffffffffffffffffffffffffffffffffffff168473ffffffffffffffffffffffffffffffffffffffff1614806114bc57508373ffffffffffffffffffffffffffffffffffffffff166114a48461057e565b73ffffffffffffffffffffffffffffffffffffffff16145b806114cd57506114cc81856111cd565b5b91505092915050565b8273ffffffffffffffffffffffffffffffffffffffff166114f682610c6e565b73ffffffffffffffffffffffffffffffffffffffff161461154c576040517f08c379a00000000000000000000000000000000000000000000000000000000081526004016115439061306b565b60405180910390fd5b600073ffffffffffffffffffffffffffffffffffffffff168273ffffffffffffffffffffffffffffffffffffffff1614156115bc576040517f08c379a00000000000000000000000000000000000000000000000000000000081526004016115b390612eeb565b60405180910390fd5b6115c7838383611b46565b6115d260008261133f565b6001600360008573ffffffffffffffffffffffffffffffffffffffff1673ffffffffffffffffffffffffffffffffffffffff168152602001908152602001600020600082825461162291906132f3565b925050819055506001600360008473ffffffffffffffffffffffffffffffffffffffff1673ffffffffffffffffffffffffffffffffffffffff1681526020019081526020016000206000828254611679919061326c565b92505081905550816002600083815260200190815260200160002060006101000a81548173ffffffffffffffffffffffffffffffffffffffff021916908373ffffffffffffffffffffffffffffffffffffffff160217905550808273ffffffffffffffffffffffffffffffffffffffff168473ffffffffffffffffffffffffffffffffffffffff167fddf252ad1be2c89b69c2b068fc378daa952ba7f163c4a11628f55a4df523b3ef60405160405180910390a4505050565b600081600001549050919050565b600073ffffffffffffffffffffffffffffffffffffffff168273ffffffffffffffffffffffffffffffffffffffff1614156117b0576040517f08c379a00000000000000000000000000000000000000000000000000000000081526004016117a790612feb565b60405180910390fd5b6117b9816112cb565b156117f9576040517f08c379a00000000000000000000000000000000000000000000000000000000081526004016117f090612ecb565b60405180910390fd5b61180560008383611b46565b6001600360008473ffffffffffffffffffffffffffffffffffffffff1673ffffffffffffffffffffffffffffffffffffffff1681526020019081526020016000206000828254611855919061326c565b92505081905550816002600083815260200190815260200160002060006101000a81548173ffffffffffffffffffffffffffffffffffffffff021916908373ffffffffffffffffffffffffffffffffffffffff160217905550808273ffffffffffffffffffffffffffffffffffffffff16600073ffffffffffffffffffffffffffffffffffffffff167fddf252ad1be2c89b69c2b068fc378daa952ba7f163c4a11628f55a4df523b3ef60405160405180910390a45050565b6001816000016000828254019250508190555050565b61192d826112cb565b61196c576040517f08c379a000000000000000000000000000000000000000000000000000000000815260040161196390612fcb565b60405180910390fd5b806006600084815260200190815260200160002090805190602001906119939291906120b2565b505050565b6119a38484846114d6565b6119af84848484611b4b565b6119ee576040517f08c379a00000000000000000000000000000000000000000000000000000000081526004016119e590612eab565b60405180910390fd5b50505050565b60606119ff826112cb565b611a3e576040517f08c379a0000000000000000000000000000000000000000000000000000000008152600401611a359061304b565b60405180910390fd5b6000600a60008481526020019081526020016000208054611a5e906133dd565b80601f0160208091040260200160405190810160405280929190818152602001828054611a8a906133dd565b8015611ad75780601f10611aac57610100808354040283529160200191611ad7565b820191906000526020600020905b815481529060010190602001808311611aba57829003601f168201915b505050505090506000611ae8611ce2565b9050600081511415611afe578192505050611b41565b600082511115611b33578082604051602001611b1b929190612d9f565b60405160208183030381529060405292505050611b41565b611b3c84611cf9565b925050505b919050565b505050565b6000611b6c8473ffffffffffffffffffffffffffffffffffffffff16611e4b565b15611cd5578373ffffffffffffffffffffffffffffffffffffffff1663150b7a02611b95611337565b8786866040518563ffffffff1660e01b8152600401611bb79493929190612dde565b602060405180830381600087803b158015611bd157600080fd5b505af1925050508015611c0257506040513d601f19601f82011682018060405250810190611bff91906124c5565b60015b611c85573d8060008114611c32576040519150601f19603f3d011682016040523d82523d6000602084013e611c37565b606091505b50600081511415611c7d576040517f08c379a0000000000000000000000000000000000000000000000000000000008152600401611c7490612eab565b60405180910390fd5b805181602001fd5b63150b7a0260e01b7bffffffffffffffffffffffffffffffffffffffffffffffffffffffff1916817bffffffffffffffffffffffffffffffffffffffffffffffffffffffff191614915050611cda565b600190505b949350505050565b606060405180602001604052806000815250905090565b6060611d04826112cb565b611d43576040517f08c379a0000000000000000000000000000000000000000000000000000000008152600401611d3a9061300b565b60405180910390fd5b6000600660008481526020019081526020016000208054611d63906133dd565b80601f0160208091040260200160405190810160405280929190818152602001828054611d8f906133dd565b8015611ddc5780601f10611db157610100808354040283529160200191611ddc565b820191906000526020600020905b815481529060010190602001808311611dbf57829003601f168201915b505050505090506000611ded611ce2565b9050600081511415611e03578192505050611e46565b600082511115611e38578082604051602001611e20929190612d9f565b60405160208183030381529060405292505050611e46565b611e4184611e5e565b925050505b919050565b600080823b905060008111915050919050565b6060611e69826112cb565b611ea8576040517f08c379a0000000000000000000000000000000000000000000000000000000008152600401611e9f9061308b565b60405180910390fd5b6000611eb2611ce2565b90506000815111611ed25760405180602001604052806000815250611efd565b80611edc84611f05565b604051602001611eed929190612d9f565b6040516020818303038152906040525b915050919050565b60606000821415611f4d576040518060400160405280600181526020017f300000000000000000000000000000000000000000000000000000000000000081525090506120ad565b600082905060005b60008214611f7f578080611f689061340f565b915050600a82611f7891906132c2565b9150611f55565b60008167ffffffffffffffff811115611fc1577f4e487b7100000000000000000000000000000000000000000000000000000000600052604160045260246000fd5b6040519080825280601f01601f191660200182016040528015611ff35781602001600182028036833780820191505090505b5090505b600085146120a65760018261200c91906132f3565b9150600a8561201b9190613458565b6030612027919061326c565b60f81b818381518110612063577f4e487b7100000000000000000000000000000000000000000000000000000000600052603260045260246000fd5b60200101907effffffffffffffffffffffffffffffffffffffffffffffffffffffffffffff1916908160001a905350600a8561209f91906132c2565b9450611ff7565b8093505050505b919050565b8280546120be906133dd565b90600052602060002090601f0160209004810192826120e05760008555612127565b82601f106120f957805160ff1916838001178555612127565b82800160010185558215612127579182015b8281111561212657825182559160200191906001019061210b565b5b5090506121349190612138565b5090565b5b80821115612151576000816000905550600101612139565b5090565b600061216861216384613157565b613126565b90508281526020810184848401111561218057600080fd5b61218b84828561339b565b509392505050565b60006121a66121a184613187565b613126565b9050828152602081018484840111156121be57600080fd5b6121c984828561339b565b509392505050565b6000813590506121e081613556565b92915050565b6000813590506121f58161356d565b92915050565b60008135905061220a81613584565b92915050565b60008151905061221f81613584565b92915050565b600082601f83011261223657600080fd5b8135612246848260208601612155565b91505092915050565b600082601f83011261226057600080fd5b8135612270848260208601612193565b91505092915050565b6000813590506122888161359b565b92915050565b6000602082840312156122a057600080fd5b60006122ae848285016121d1565b91505092915050565b600080604083850312156122ca57600080fd5b60006122d8858286016121d1565b92505060206122e9858286016121d1565b9150509250929050565b60008060006060848603121561230857600080fd5b6000612316868287016121d1565b9350506020612327868287016121d1565b925050604061233886828701612279565b9150509250925092565b6000806000806080858703121561235857600080fd5b6000612366878288016121d1565b9450506020612377878288016121d1565b935050604061238887828801612279565b925050606085013567ffffffffffffffff8111156123a557600080fd5b6123b187828801612225565b91505092959194509250565b600080604083850312156123d057600080fd5b60006123de858286016121d1565b92505060206123ef858286016121e6565b9150509250929050565b60008060006060848603121561240e57600080fd5b600061241c868287016121d1565b935050602084013567ffffffffffffffff81111561243957600080fd5b6124458682870161224f565b925050604061245686828701612279565b9150509250925092565b6000806040838503121561247357600080fd5b6000612481858286016121d1565b925050602061249285828601612279565b9150509250929050565b6000602082840312156124ae57600080fd5b60006124bc848285016121fb565b91505092915050565b6000602082840312156124d757600080fd5b60006124e584828501612210565b91505092915050565b60006020828403121561250057600080fd5b600061250e84828501612279565b91505092915050565b60006125238383612547565b60208301905092915050565b600061253b8383612d81565b60208301905092915050565b61255081613327565b82525050565b61255f81613327565b82525050565b6000612570826131d7565b61257a818561321d565b9350612585836131b7565b8060005b838110156125b657815161259d8882612517565b97506125a883613203565b925050600181019050612589565b5085935050505092915050565b60006125ce826131e2565b6125d8818561322e565b93506125e3836131c7565b8060005b838110156126145781516125fb888261252f565b975061260683613210565b9250506001810190506125e7565b5085935050505092915050565b61262a81613339565b82525050565b600061263b826131ed565b612645818561323f565b93506126558185602086016133aa565b61265e81613545565b840191505092915050565b6000612674826131f8565b61267e8185613250565b935061268e8185602086016133aa565b61269781613545565b840191505092915050565b60006126ad826131f8565b6126b78185613261565b93506126c78185602086016133aa565b80840191505092915050565b60006126e0603283613250565b91507f4552433732313a207472616e7366657220746f206e6f6e20455243373231526560008301527f63656976657220696d706c656d656e74657200000000000000000000000000006020830152604082019050919050565b6000612746601c83613250565b91507f4552433732313a20746f6b656e20616c7265616479206d696e746564000000006000830152602082019050919050565b6000612786602483613250565b91507f4552433732313a207472616e7366657220746f20746865207a65726f2061646460008301527f72657373000000000000000000000000000000000000000000000000000000006020830152604082019050919050565b60006127ec601983613250565b91507f4552433732313a20617070726f766520746f2063616c6c6572000000000000006000830152602082019050919050565b600061282c600e83613250565b91507f696e76616c6964206163636573730000000000000000000000000000000000006000830152602082019050919050565b600061286c602c83613250565b91507f4552433732313a206f70657261746f7220717565727920666f72206e6f6e657860008301527f697374656e7420746f6b656e00000000000000000000000000000000000000006020830152604082019050919050565b60006128d2603883613250565b91507f4552433732313a20617070726f76652063616c6c6572206973206e6f74206f7760008301527f6e6572206e6f7220617070726f76656420666f7220616c6c00000000000000006020830152604082019050919050565b6000612938602a83613250565b91507f4552433732313a2062616c616e636520717565727920666f7220746865207a6560008301527f726f2061646472657373000000000000000000000000000000000000000000006020830152604082019050919050565b600061299e602983613250565b91507f4552433732313a206f776e657220717565727920666f72206e6f6e657869737460008301527f656e7420746f6b656e00000000000000000000000000000000000000000000006020830152604082019050919050565b6000612a04602e83613250565b91507f45524337323155524953746f726167653a2055524920736574206f66206e6f6e60008301527f6578697374656e7420746f6b656e0000000000000000000000000000000000006020830152604082019050919050565b6000612a6a602083613250565b91507f4552433732313a206d696e7420746f20746865207a65726f20616464726573736000830152602082019050919050565b6000612aaa603183613250565b91507f45524337323155524953746f726167653a2055524920717565727920666f722060008301527f6e6f6e6578697374656e7420746f6b656e0000000000000000000000000000006020830152604082019050919050565b6000612b10602c83613250565b91507f4552433732313a20617070726f76656420717565727920666f72206e6f6e657860008301527f697374656e7420746f6b656e00000000000000000000000000000000000000006020830152604082019050919050565b6000612b76601183613250565b91507f6e6f6e6578697374656e7420746f6b656e0000000000000000000000000000006000830152602082019050919050565b6000612bb6602983613250565b91507f4552433732313a207472616e73666572206f6620746f6b656e2074686174206960008301527f73206e6f74206f776e00000000000000000000000000000000000000000000006020830152604082019050919050565b6000612c1c602f83613250565b91507f4552433732314d657461646174613a2055524920717565727920666f72206e6f60008301527f6e6578697374656e7420746f6b656e00000000000000000000000000000000006020830152604082019050919050565b6000612c82602183613250565b91507f4552433732313a20617070726f76616c20746f2063757272656e74206f776e6560008301527f72000000000000000000000000000000000000000000000000000000000000006020830152604082019050919050565b6000612ce8603183613250565b91507f4552433732313a207472616e736665722063616c6c6572206973206e6f74206f60008301527f776e6572206e6f7220617070726f7665640000000000000000000000000000006020830152604082019050919050565b6000612d4e600b83613250565b91507f4e6f7420416c6c6f7765640000000000000000000000000000000000000000006000830152602082019050919050565b612d8a81613391565b82525050565b612d9981613391565b82525050565b6000612dab82856126a2565b9150612db782846126a2565b91508190509392505050565b6000602082019050612dd86000830184612556565b92915050565b6000608082019050612df36000830187612556565b612e006020830186612556565b612e0d6040830185612d90565b8181036060830152612e1f8184612630565b905095945050505050565b60006020820190508181036000830152612e448184612565565b905092915050565b60006020820190508181036000830152612e6681846125c3565b905092915050565b6000602082019050612e836000830184612621565b92915050565b60006020820190508181036000830152612ea38184612669565b905092915050565b60006020820190508181036000830152612ec4816126d3565b9050919050565b60006020820190508181036000830152612ee481612739565b9050919050565b60006020820190508181036000830152612f0481612779565b9050919050565b60006020820190508181036000830152612f24816127df565b9050919050565b60006020820190508181036000830152612f448161281f565b9050919050565b60006020820190508181036000830152612f648161285f565b9050919050565b60006020820190508181036000830152612f84816128c5565b9050919050565b60006020820190508181036000830152612fa48161292b565b9050919050565b60006020820190508181036000830152612fc481612991565b9050919050565b60006020820190508181036000830152612fe4816129f7565b9050919050565b6000602082019050818103600083015261300481612a5d565b9050919050565b6000602082019050818103600083015261302481612a9d565b9050919050565b6000602082019050818103600083015261304481612b03565b9050919050565b6000602082019050818103600083015261306481612b69565b9050919050565b6000602082019050818103600083015261308481612ba9565b9050919050565b600060208201905081810360008301526130a481612c0f565b9050919050565b600060208201905081810360008301526130c481612c75565b9050919050565b600060208201905081810360008301526130e481612cdb565b9050919050565b6000602082019050818103600083015261310481612d41565b9050919050565b60006020820190506131206000830184612d90565b92915050565b6000604051905081810181811067ffffffffffffffff8211171561314d5761314c613516565b5b8060405250919050565b600067ffffffffffffffff82111561317257613171613516565b5b601f19601f8301169050602081019050919050565b600067ffffffffffffffff8211156131a2576131a1613516565b5b601f19601f8301169050602081019050919050565b6000819050602082019050919050565b6000819050602082019050919050565b600081519050919050565b600081519050919050565b600081519050919050565b600081519050919050565b6000602082019050919050565b6000602082019050919050565b600082825260208201905092915050565b600082825260208201905092915050565b600082825260208201905092915050565b600082825260208201905092915050565b600081905092915050565b600061327782613391565b915061328283613391565b9250827fffffffffffffffffffffffffffffffffffffffffffffffffffffffffffffffff038211156132b7576132b6613489565b5b828201905092915050565b60006132cd82613391565b91506132d883613391565b9250826132e8576132e76134b8565b5b828204905092915050565b60006132fe82613391565b915061330983613391565b92508282101561331c5761331b613489565b5b828203905092915050565b600061333282613371565b9050919050565b60008115159050919050565b60007fffffffff0000000000000000000000000000000000000000000000000000000082169050919050565b600073ffffffffffffffffffffffffffffffffffffffff82169050919050565b6000819050919050565b82818337600083830152505050565b60005b838110156133c85780820151818401526020810190506133ad565b838111156133d7576000848401525b50505050565b600060028204905060018216806133f557607f821691505b60208210811415613409576134086134e7565b5b50919050565b600061341a82613391565b91507fffffffffffffffffffffffffffffffffffffffffffffffffffffffffffffffff82141561344d5761344c613489565b5b600182019050919050565b600061346382613391565b915061346e83613391565b92508261347e5761347d6134b8565b5b828206905092915050565b7f4e487b7100000000000000000000000000000000000000000000000000000000600052601160045260246000fd5b7f4e487b7100000000000000000000000000000000000000000000000000000000600052601260045260246000fd5b7f4e487b7100000000000000000000000000000000000000000000000000000000600052602260045260246000fd5b7f4e487b7100000000000000000000000000000000000000000000000000000000600052604160045260246000fd5b6000601f19601f8301169050919050565b61355f81613327565b811461356a57600080fd5b50565b61357681613339565b811461358157600080fd5b50565b61358d81613345565b811461359857600080fd5b50565b6135a481613391565b81146135af57600080fd5b5056fea26469706673582212207e5a7b91faa6c030afdd205b6bc2522ba8a55a87a3940cd5fbf16032892ad5bb64736f6c63430008000033",
  "immutableReferences": {},
  "source": "// SPDX-License-Identifier: MIT\r\npragma solidity ^0.8.0;\r\n\r\nimport \"@openzeppelin/contracts/token/ERC721/extensions/ERC721URIStorage.sol\";\r\nimport \"@openzeppelin/contracts/utils/Counters.sol\";\r\n\r\n\r\ncontract CryptoFace is ERC721URIStorage {\r\n\r\nusing Counters for Counters.Counter;\r\n  Counters.Counter private _tokenIds;\r\n\r\n  address[] ownerAddresses;               // total minted Address\r\n  uint256[] tokenList;                  // total minted Tokens\r\n  mapping(uint256 => string) hashes; \r\n  mapping(uint256 => address) allowedByTokenHash;                                        \t\r\n  mapping(address => uint256) allowedByAddressHash;                                     \t\r\n  mapping(uint256 => address) ipfsHash;    \r\n  mapping(uint256=>uint256) tokenPriceHash;                                 \t// tokenId=>Price\r\n  \r\n \r\nconstructor() public ERC721(\"CFACE\", \"CFACE\") {}\r\n\r\n    function addRecipient(address recipient) public returns (uint256)\r\n\t{\r\n\t  require(allowedByAddressHash[recipient]==0, \"Not Allowed\");\t\r\n\t  allowedByAddressHash[recipient]=1;\t//  0 means not exist in register (so not allowed)\r\n\t  return 1;\r\n\t}\r\n\tfunction addCryptoFace(address recipient, string memory hash,uint256 price)  public  returns (uint256)\r\n\t{\r\n\t \r\n\t    require(allowedByAddressHash[recipient]!=0, \"Not Allowed\");\t\r\n\t\t\r\n\t\t\t\tif(allowedByAddressHash[recipient]!=0)\r\n\t\t\t\t{\r\n\t\t\t\tuint256 newItemId = _tokenIds.current();\t\t\t\t// get Last Existing Token\r\n\t\t\t\tnewItemId=newItemId+1;\t\t\t\t\t\t\t\t\t// increment in our menory not in existing menory\r\n\t\t\t\trequire(!_exists(newItemId), \"nonexistent token\");\t\t// if token no exist then terminate\r\n\t\t\t\thashes[newItemId] = hash;\t\t\t\t\t\t\t\t\t// mapping token=>IPFS Hass code\r\n\t\t\t\t_mint(recipient, newItemId);\r\n\t\t\t\t_tokenIds.increment();\t\t\t\t\t\t\t\t\t\t// my above increment will reflect to existing increament\r\n\t\t\t\t_setTokenURI(newItemId, hashes[newItemId]);  \t\t\t    // toekenId=>IPFS Hash\r\n\t\t\t\ttokenPriceHash[newItemId]=price;\r\n\t\t\t\ttokenList.push(newItemId);\r\n\t\t\t\townerAddresses.push(recipient);\r\n\t\t\t\tallowedByAddressHash[recipient]=0;\r\n\t\t\t\treturn newItemId;\r\n\t\t\t\t}\r\n\t\t\t\treturn 0;\r\n\t\t\r\n\t}\r\n\tfunction getPrice(uint256 tokenId) public view returns(uint256)\r\n\t{\r\n\t\t   require(_exists(tokenId), \"nonexistent token\");\r\n\t\t   return tokenPriceHash[tokenId];\r\n\t}\r\n\tfunction tokenURI(uint256 tokenId) public view virtual override returns (string memory) {\r\n\t    return \"CryptoFace\";\r\n\t}\r\n\t\r\n\tfunction getToken(uint256 tokenId) private view returns(string memory)\r\n\t{\r\n\t    require(_exists(tokenId), \"nonexistent token\");\r\n\t    string memory _tokenURI = hashes[tokenId];\r\n        string memory base = _baseURI();\r\n\r\n        // If there is no base URI, return the token URI.\r\n        if (bytes(base).length == 0) {\r\n            return _tokenURI;\r\n        }\r\n        // If both are set, concatenate the baseURI and tokenURI (via abi.encodePacked).\r\n        if (bytes(_tokenURI).length > 0) {\r\n            return string(abi.encodePacked(base, _tokenURI));\r\n        }\r\n\r\n        return super.tokenURI(tokenId);\r\n\t}\r\n\t\r\n\tfunction getMyToken(uint256 tokenId) public view returns(string memory)\r\n\t{\r\n\t    require(_exists(tokenId), \"nonexistent token\");\r\n\t    address selfAddress=msg.sender;\r\n\t    address ownerAddress=ownerOf(tokenId);\r\n\t    require(ownerAddress==selfAddress,\"invalid access\");\r\n\t    return getToken(tokenId);\r\n\t    \r\n\t} \r\n\t\r\n\t\r\n\t\r\n\t\r\n\t\r\n    function getOwnerList() public view returns(address[] memory)\r\n    {\r\n        address[] memory X=ownerAddresses;\r\n        return X;\r\n    }\r\n    \r\n    function getTokenList() public view returns(uint256[] memory)\r\n    {\r\n        uint256[] memory Y=tokenList;\r\n        return Y;\r\n    }\r\n}",
  "sourcePath": "F:/Assignment/aibcccc/AIBC/contracts/CryptoFace.sol",
  "compiler": {
    "name": "solc",
    "version": "0.8.0+commit.c7dfd78e.Emscripten.clang"
  },
  "schemaVersion": "3.3.4",
  "updatedAt": "2021-05-18T12:55:00.084Z",
  "networkType": "ethereum",
  "devdoc": {
    "kind": "dev",
    "methods": {
      "approve(address,uint256)": {
        "details": "See {IERC721-approve}."
      },
      "balanceOf(address)": {
        "details": "See {IERC721-balanceOf}."
      },
      "getApproved(uint256)": {
        "details": "See {IERC721-getApproved}."
      },
      "isApprovedForAll(address,address)": {
        "details": "See {IERC721-isApprovedForAll}."
      },
      "name()": {
        "details": "See {IERC721Metadata-name}."
      },
      "ownerOf(uint256)": {
        "details": "See {IERC721-ownerOf}."
      },
      "safeTransferFrom(address,address,uint256)": {
        "details": "See {IERC721-safeTransferFrom}."
      },
      "safeTransferFrom(address,address,uint256,bytes)": {
        "details": "See {IERC721-safeTransferFrom}."
      },
      "setApprovalForAll(address,bool)": {
        "details": "See {IERC721-setApprovalForAll}."
      },
      "supportsInterface(bytes4)": {
        "details": "See {IERC165-supportsInterface}."
      },
      "symbol()": {
        "details": "See {IERC721Metadata-symbol}."
      },
      "tokenURI(uint256)": {
        "details": "See {IERC721Metadata-tokenURI}."
      },
      "transferFrom(address,address,uint256)": {
        "details": "See {IERC721-transferFrom}."
      }
    },
    "version": 1
  },
  "userdoc": {
    "kind": "user",
    "methods": {},
    "version": 1
  }
}