{
  "contractName": "GenesisContract",
  "abi": [
    {
      "inputs": [],
      "stateMutability": "nonpayable",
      "type": "constructor"
    },
    {
      "anonymous": false,
      "inputs": [
        {
          "indexed": true,
          "internalType": "address",
          "name": "owner",
          "type": "address"
        },
        {
          "indexed": true,
          "internalType": "address",
          "name": "approved",
          "type": "address"
        },
        {
          "indexed": true,
          "internalType": "uint256",
          "name": "tokenId",
          "type": "uint256"
        }
      ],
      "name": "Approval",
      "type": "event"
    },
    {
      "anonymous": false,
      "inputs": [
        {
          "indexed": true,
          "internalType": "address",
          "name": "owner",
          "type": "address"
        },
        {
          "indexed": true,
          "internalType": "address",
          "name": "operator",
          "type": "address"
        },
        {
          "indexed": false,
          "internalType": "bool",
          "name": "approved",
          "type": "bool"
        }
      ],
      "name": "ApprovalForAll",
      "type": "event"
    },
    {
      "anonymous": false,
      "inputs": [
        {
          "indexed": true,
          "internalType": "address",
          "name": "from",
          "type": "address"
        },
        {
          "indexed": true,
          "internalType": "address",
          "name": "to",
          "type": "address"
        },
        {
          "indexed": true,
          "internalType": "uint256",
          "name": "tokenId",
          "type": "uint256"
        }
      ],
      "name": "Transfer",
      "type": "event"
    },
    {
      "inputs": [
        {
          "internalType": "address",
          "name": "to",
          "type": "address"
        },
        {
          "internalType": "uint256",
          "name": "tokenId",
          "type": "uint256"
        }
      ],
      "name": "approve",
      "outputs": [],
      "stateMutability": "nonpayable",
      "type": "function"
    },
    {
      "inputs": [
        {
          "internalType": "address",
          "name": "owner",
          "type": "address"
        }
      ],
      "name": "balanceOf",
      "outputs": [
        {
          "internalType": "uint256",
          "name": "",
          "type": "uint256"
        }
      ],
      "stateMutability": "view",
      "type": "function",
      "constant": true
    },
    {
      "inputs": [
        {
          "internalType": "uint256",
          "name": "tokenId",
          "type": "uint256"
        }
      ],
      "name": "getApproved",
      "outputs": [
        {
          "internalType": "address",
          "name": "",
          "type": "address"
        }
      ],
      "stateMutability": "view",
      "type": "function",
      "constant": true
    },
    {
      "inputs": [
        {
          "internalType": "address",
          "name": "owner",
          "type": "address"
        },
        {
          "internalType": "address",
          "name": "operator",
          "type": "address"
        }
      ],
      "name": "isApprovedForAll",
      "outputs": [
        {
          "internalType": "bool",
          "name": "",
          "type": "bool"
        }
      ],
      "stateMutability": "view",
      "type": "function",
      "constant": true
    },
    {
      "inputs": [],
      "name": "name",
      "outputs": [
        {
          "internalType": "string",
          "name": "",
          "type": "string"
        }
      ],
      "stateMutability": "view",
      "type": "function",
      "constant": true
    },
    {
      "inputs": [
        {
          "internalType": "uint256",
          "name": "tokenId",
          "type": "uint256"
        }
      ],
      "name": "ownerOf",
      "outputs": [
        {
          "internalType": "address",
          "name": "",
          "type": "address"
        }
      ],
      "stateMutability": "view",
      "type": "function",
      "constant": true
    },
    {
      "inputs": [
        {
          "internalType": "address",
          "name": "from",
          "type": "address"
        },
        {
          "internalType": "address",
          "name": "to",
          "type": "address"
        },
        {
          "internalType": "uint256",
          "name": "tokenId",
          "type": "uint256"
        }
      ],
      "name": "safeTransferFrom",
      "outputs": [],
      "stateMutability": "nonpayable",
      "type": "function"
    },
    {
      "inputs": [
        {
          "internalType": "address",
          "name": "from",
          "type": "address"
        },
        {
          "internalType": "address",
          "name": "to",
          "type": "address"
        },
        {
          "internalType": "uint256",
          "name": "tokenId",
          "type": "uint256"
        },
        {
          "internalType": "bytes",
          "name": "_data",
          "type": "bytes"
        }
      ],
      "name": "safeTransferFrom",
      "outputs": [],
      "stateMutability": "nonpayable",
      "type": "function"
    },
    {
      "inputs": [
        {
          "internalType": "address",
          "name": "operator",
          "type": "address"
        },
        {
          "internalType": "bool",
          "name": "approved",
          "type": "bool"
        }
      ],
      "name": "setApprovalForAll",
      "outputs": [],
      "stateMutability": "nonpayable",
      "type": "function"
    },
    {
      "inputs": [
        {
          "internalType": "bytes4",
          "name": "interfaceId",
          "type": "bytes4"
        }
      ],
      "name": "supportsInterface",
      "outputs": [
        {
          "internalType": "bool",
          "name": "",
          "type": "bool"
        }
      ],
      "stateMutability": "view",
      "type": "function",
      "constant": true
    },
    {
      "inputs": [],
      "name": "symbol",
      "outputs": [
        {
          "internalType": "string",
          "name": "",
          "type": "string"
        }
      ],
      "stateMutability": "view",
      "type": "function",
      "constant": true
    },
    {
      "inputs": [
        {
          "internalType": "address",
          "name": "from",
          "type": "address"
        },
        {
          "internalType": "address",
          "name": "to",
          "type": "address"
        },
        {
          "internalType": "uint256",
          "name": "tokenId",
          "type": "uint256"
        }
      ],
      "name": "transferFrom",
      "outputs": [],
      "stateMutability": "nonpayable",
      "type": "function"
    },
    {
      "inputs": [
        {
          "internalType": "address",
          "name": "recipient",
          "type": "address"
        },
        {
          "internalType": "string",
          "name": "hash",
          "type": "string"
        },
        {
          "internalType": "uint256",
          "name": "_length",
          "type": "uint256"
        },
        {
          "internalType": "uint256",
          "name": "price",
          "type": "uint256"
        }
      ],
      "name": "awardItem",
      "outputs": [
        {
          "internalType": "uint256",
          "name": "",
          "type": "uint256"
        }
      ],
      "stateMutability": "nonpayable",
      "type": "function"
    },
    {
      "inputs": [
        {
          "internalType": "uint256",
          "name": "tokenId",
          "type": "uint256"
        }
      ],
      "name": "getPrice",
      "outputs": [
        {
          "internalType": "uint256",
          "name": "",
          "type": "uint256"
        }
      ],
      "stateMutability": "view",
      "type": "function",
      "constant": true
    },
    {
      "inputs": [
        {
          "internalType": "uint256",
          "name": "tokenId",
          "type": "uint256"
        }
      ],
      "name": "tokenURI",
      "outputs": [
        {
          "internalType": "string",
          "name": "",
          "type": "string"
        }
      ],
      "stateMutability": "view",
      "type": "function",
      "constant": true
    },
    {
      "inputs": [
        {
          "internalType": "uint256",
          "name": "tokenId",
          "type": "uint256"
        }
      ],
      "name": "getMyToken",
      "outputs": [
        {
          "internalType": "string",
          "name": "",
          "type": "string"
        }
      ],
      "stateMutability": "view",
      "type": "function",
      "constant": true
    },
    {
      "inputs": [
        {
          "internalType": "address",
          "name": "_viewerAddress",
          "type": "address"
        },
        {
          "internalType": "uint256",
          "name": "tokenId",
          "type": "uint256"
        },
        {
          "internalType": "uint256",
          "name": "price",
          "type": "uint256"
        }
      ],
      "name": "addRequestForView",
      "outputs": [
        {
          "internalType": "bool",
          "name": "",
          "type": "bool"
        }
      ],
      "stateMutability": "payable",
      "type": "function",
      "payable": true
    },
    {
      "inputs": [
        {
          "internalType": "uint256",
          "name": "tokenId",
          "type": "uint256"
        }
      ],
      "name": "viewToken",
      "outputs": [
        {
          "internalType": "string",
          "name": "",
          "type": "string"
        }
      ],
      "stateMutability": "view",
      "type": "function",
      "constant": true
    },
    {
      "inputs": [
        {
          "internalType": "uint256",
          "name": "tokenId",
          "type": "uint256"
        }
      ],
      "name": "getViewers",
      "outputs": [
        {
          "internalType": "address[]",
          "name": "",
          "type": "address[]"
        }
      ],
      "stateMutability": "view",
      "type": "function",
      "constant": true
    },
    {
      "inputs": [
        {
          "internalType": "address",
          "name": "_viewerAddress",
          "type": "address"
        }
      ],
      "name": "getTokens",
      "outputs": [
        {
          "internalType": "uint256[]",
          "name": "",
          "type": "uint256[]"
        }
      ],
      "stateMutability": "view",
      "type": "function",
      "constant": true
    },
    {
      "inputs": [],
      "name": "getOwnerList",
      "outputs": [
        {
          "internalType": "address[]",
          "name": "",
          "type": "address[]"
        }
      ],
      "stateMutability": "view",
      "type": "function",
      "constant": true
    },
    {
      "inputs": [],
      "name": "getTokenList",
      "outputs": [
        {
          "internalType": "uint256[]",
          "name": "",
          "type": "uint256[]"
        }
      ],
      "stateMutability": "view",
      "type": "function",
      "constant": true
    },
    {
      "inputs": [
        {
          "internalType": "uint256",
          "name": "tokenId",
          "type": "uint256"
        },
        {
          "internalType": "address",
          "name": "erc20Address",
          "type": "address"
        }
      ],
      "name": "setERC20Address",
      "outputs": [
        {
          "internalType": "bool",
          "name": "",
          "type": "bool"
        }
      ],
      "stateMutability": "nonpayable",
      "type": "function"
    },
    {
      "inputs": [
        {
          "internalType": "uint256",
          "name": "tokenId",
          "type": "uint256"
        }
      ],
      "name": "getERC20Address",
      "outputs": [
        {
          "internalType": "address",
          "name": "",
          "type": "address"
        }
      ],
      "stateMutability": "nonpayable",
      "type": "function"
    }
  ],
  "bytecode": "0x60806040523480156200001157600080fd5b506040518060400160405280600881526020017f4d595443414942430000000000000000000000000000000000000000000000008152506040518060400160405280600881526020017f4d59544341494243000000000000000000000000000000000000000000000000815250816000908051906020019062000096929190620000b8565b508060019080519060200190620000af929190620000b8565b505050620001cd565b828054620000c69062000168565b90600052602060002090601f016020900481019282620000ea576000855562000136565b82601f106200010557805160ff191683800117855562000136565b8280016001018555821562000136579182015b828111156200013557825182559160200191906001019062000118565b5b50905062000145919062000149565b5090565b5b80821115620001645760008160009055506001016200014a565b5090565b600060028204905060018216806200018157607f821691505b602082108114156200019857620001976200019e565b5b50919050565b7f4e487b7100000000000000000000000000000000000000000000000000000000600052602260045260246000fd5b6141e980620001dd6000396000f3fe60806040526004361061014b5760003560e01c806370a08231116100b6578063c87b56dd1161006f578063c87b56dd146104e1578063d1bc6caa1461051e578063db93bfa21461055b578063dfbb61f214610598578063e7572230146105d5578063e985e9c5146106125761014b565b806370a08231146103ad5780638334d195146103ea57806395d89b41146104275780639efea36d14610452578063a22cb4651461048f578063b88d4fde146104b85761014b565b8063273cbaa011610108578063273cbaa0146102775780632ec39f29146102a257806342842e0e146102df578063450efe211461030857806358100370146103455780636352211e146103705761014b565b806301ffc9a71461015057806306fdde031461018d578063081812fc146101b8578063095ea7b3146101f557806323b872dd1461021e578063253e054114610247575b600080fd5b34801561015c57600080fd5b5061017760048036038101906101729190612f41565b61064f565b6040516101849190613a0f565b60405180910390f35b34801561019957600080fd5b506101a2610731565b6040516101af9190613a2a565b60405180910390f35b3480156101c457600080fd5b506101df60048036038101906101da9190612f93565b6107c3565b6040516101ec9190613964565b60405180910390f35b34801561020157600080fd5b5061021c60048036038101906102179190612eb6565b610848565b005b34801561022a57600080fd5b5061024560048036038101906102409190612d35565b610960565b005b610261600480360381019061025c9190612ef2565b6109c0565b60405161026e9190613a0f565b60405180910390f35b34801561028357600080fd5b5061028c610c1c565b60405161029991906139ed565b60405180910390f35b3480156102ae57600080fd5b506102c960048036038101906102c49190612fbc565b610c7a565b6040516102d69190613a0f565b60405180910390f35b3480156102eb57600080fd5b5061030660048036038101906103019190612d35565b610da2565b005b34801561031457600080fd5b5061032f600480360381019061032a9190612cd0565b610dc2565b60405161033c91906139ed565b60405180910390f35b34801561035157600080fd5b5061035a610e5f565b60405161036791906139cb565b60405180910390f35b34801561037c57600080fd5b5061039760048036038101906103929190612f93565b610ef3565b6040516103a49190613964565b60405180910390f35b3480156103b957600080fd5b506103d460048036038101906103cf9190612cd0565b610fa5565b6040516103e19190613d0c565b60405180910390f35b3480156103f657600080fd5b50610411600480360381019061040c9190612f93565b61105d565b60405161041e9190613a2a565b60405180910390f35b34801561043357600080fd5b5061043c61115a565b6040516104499190613a2a565b60405180910390f35b34801561045e57600080fd5b5061047960048036038101906104749190612e3b565b6111ec565b6040516104869190613d0c565b60405180910390f35b34801561049b57600080fd5b506104b660048036038101906104b19190612dff565b61156c565b005b3480156104c457600080fd5b506104df60048036038101906104da9190612d84565b6116ed565b005b3480156104ed57600080fd5b5061050860048036038101906105039190612f93565b61174f565b6040516105159190613a2a565b60405180910390f35b34801561052a57600080fd5b5061054560048036038101906105409190612f93565b61178e565b6040516105529190613964565b60405180910390f35b34801561056757600080fd5b50610582600480360381019061057d9190612f93565b611813565b60405161058f9190613a2a565b60405180910390f35b3480156105a457600080fd5b506105bf60048036038101906105ba9190612f93565b6118ef565b6040516105cc91906139cb565b60405180910390f35b3480156105e157600080fd5b506105fc60048036038101906105f79190612f93565b611996565b6040516106099190613d0c565b60405180910390f35b34801561061e57600080fd5b5061063960048036038101906106349190612cf9565b6119fb565b6040516106469190613a0f565b60405180910390f35b60007f80ac58cd000000000000000000000000000000000000000000000000000000007bffffffffffffffffffffffffffffffffffffffffffffffffffffffff1916827bffffffffffffffffffffffffffffffffffffffffffffffffffffffff1916148061071a57507f5b5e139f000000000000000000000000000000000000000000000000000000007bffffffffffffffffffffffffffffffffffffffffffffffffffffffff1916827bffffffffffffffffffffffffffffffffffffffffffffffffffffffff1916145b8061072a575061072982611a8f565b5b9050919050565b60606000805461074090613fde565b80601f016020809104026020016040519081016040528092919081815260200182805461076c90613fde565b80156107b95780601f1061078e576101008083540402835291602001916107b9565b820191906000526020600020905b81548152906001019060200180831161079c57829003601f168201915b5050505050905090565b60006107ce82611af9565b61080d576040517f08c379a000000000000000000000000000000000000000000000000000000000815260040161080490613c2c565b60405180910390fd5b6004600083815260200190815260200160002060009054906101000a900473ffffffffffffffffffffffffffffffffffffffff169050919050565b600061085382610ef3565b90508073ffffffffffffffffffffffffffffffffffffffff168373ffffffffffffffffffffffffffffffffffffffff1614156108c4576040517f08c379a00000000000000000000000000000000000000000000000000000000081526004016108bb90613cac565b60405180910390fd5b8073ffffffffffffffffffffffffffffffffffffffff166108e3611b65565b73ffffffffffffffffffffffffffffffffffffffff16148061091257506109118161090c611b65565b6119fb565b5b610951576040517f08c379a000000000000000000000000000000000000000000000000000000000815260040161094890613b4c565b60405180910390fd5b61095b8383611b6d565b505050565b61097161096b611b65565b82611c26565b6109b0576040517f08c379a00000000000000000000000000000000000000000000000000000000081526004016109a790613cec565b60405180910390fd5b6109bb838383611d04565b505050565b60006109cb83611af9565b610a0a576040517f08c379a0000000000000000000000000000000000000000000000000000000008152600401610a0190613c4c565b60405180910390fd5b6000600e6000858152602001908152602001600020549050808314610a64576040517f08c379a0000000000000000000000000000000000000000000000000000000008152600401610a5b90613bcc565b60405180910390fd5b6001600c60008773ffffffffffffffffffffffffffffffffffffffff1673ffffffffffffffffffffffffffffffffffffffff168152602001908152602001600020600086815260200190815260200160002060006101000a81548160ff0219169083151502179055506001600d600086815260200190815260200160002060008773ffffffffffffffffffffffffffffffffffffffff1673ffffffffffffffffffffffffffffffffffffffff16815260200190815260200160002060006101000a81548160ff021916908315150217905550600f60008673ffffffffffffffffffffffffffffffffffffffff1673ffffffffffffffffffffffffffffffffffffffff16815260200190815260200160002084908060018154018082558091505060019003906000526020600020016000909190919091505560106000858152602001908152602001600020859080600181540180825580915050600190039060005260206000200160009091909190916101000a81548173ffffffffffffffffffffffffffffffffffffffff021916908373ffffffffffffffffffffffffffffffffffffffff16021790555060019150509392505050565b606060006009805480602002602001604051908101604052809291908181526020018280548015610c6c57602002820191906000526020600020905b815481526020019060010190808311610c58575b505050505090508091505090565b6000610c8583611af9565b610cc4576040517f08c379a0000000000000000000000000000000000000000000000000000000008152600401610cbb90613c4c565b60405180910390fd5b60003390506000610cd485610ef3565b90508173ffffffffffffffffffffffffffffffffffffffff168173ffffffffffffffffffffffffffffffffffffffff1614610d44576040517f08c379a0000000000000000000000000000000000000000000000000000000008152600401610d3b90613b0c565b60405180910390fd5b836011600087815260200190815260200160002060006101000a81548173ffffffffffffffffffffffffffffffffffffffff021916908373ffffffffffffffffffffffffffffffffffffffff16021790555060019250505092915050565b610dbd838383604051806020016040528060008152506116ed565b505050565b60606000600f60008473ffffffffffffffffffffffffffffffffffffffff1673ffffffffffffffffffffffffffffffffffffffff168152602001908152602001600020805480602002602001604051908101604052809291908181526020018280548015610e4f57602002820191906000526020600020905b815481526020019060010190808311610e3b575b5050505050905080915050919050565b606060006008805480602002602001604051908101604052809291908181526020018280548015610ee557602002820191906000526020600020905b8160009054906101000a900473ffffffffffffffffffffffffffffffffffffffff1673ffffffffffffffffffffffffffffffffffffffff1681526020019060010190808311610e9b575b505050505090508091505090565b6000806002600084815260200190815260200160002060009054906101000a900473ffffffffffffffffffffffffffffffffffffffff169050600073ffffffffffffffffffffffffffffffffffffffff168173ffffffffffffffffffffffffffffffffffffffff161415610f9c576040517f08c379a0000000000000000000000000000000000000000000000000000000008152600401610f9390613b8c565b60405180910390fd5b80915050919050565b60008073ffffffffffffffffffffffffffffffffffffffff168273ffffffffffffffffffffffffffffffffffffffff161415611016576040517f08c379a000000000000000000000000000000000000000000000000000000000815260040161100d90613b6c565b60405180910390fd5b600360008373ffffffffffffffffffffffffffffffffffffffff1673ffffffffffffffffffffffffffffffffffffffff168152602001908152602001600020549050919050565b606061106882611af9565b6110a7576040517f08c379a000000000000000000000000000000000000000000000000000000000815260040161109e90613c4c565b60405180910390fd5b6000339050600c60008273ffffffffffffffffffffffffffffffffffffffff1673ffffffffffffffffffffffffffffffffffffffff168152602001908152602001600020600084815260200190815260200160002060009054906101000a900460ff16611149576040517f08c379a000000000000000000000000000000000000000000000000000000000815260040161114090613aec565b60405180910390fd5b61115283611f60565b915050919050565b60606001805461116990613fde565b80601f016020809104026020016040519081016040528092919081815260200182805461119590613fde565b80156111e25780601f106111b7576101008083540402835291602001916111e2565b820191906000526020600020905b8154815290600101906020018083116111c557829003601f168201915b5050505050905090565b600080600b60008773ffffffffffffffffffffffffffffffffffffffff1673ffffffffffffffffffffffffffffffffffffffff1681526020019081526020016000205414156112dd5782600b60008773ffffffffffffffffffffffffffffffffffffffff1673ffffffffffffffffffffffffffffffffffffffff168152602001908152602001600020819055506008859080600181540180825580915050600190039060005260206000200160009091909190916101000a81548173ffffffffffffffffffffffffffffffffffffffff021916908373ffffffffffffffffffffffffffffffffffffffff1602179055505b60006112e886610fa5565b90506000600b60008873ffffffffffffffffffffffffffffffffffffffff1673ffffffffffffffffffffffffffffffffffffffff1681526020019081526020016000205490508181111561151957600061134260076120b2565b90506001816113519190613e6d565b905061135c81611af9565b1561139c576040517f08c379a000000000000000000000000000000000000000000000000000000000815260040161139390613c4c565b60405180910390fd5b600115156113aa89836120c0565b1515146113ec576040517f08c379a00000000000000000000000000000000000000000000000000000000081526004016113e390613ccc565b60405180910390fd5b86600a60008381526020019081526020016000209080519060200190611413929190612af4565b5061141e88826122d4565b61142860076124a2565b6114cd81600a6000848152602001908152602001600020805461144a90613fde565b80601f016020809104026020016040519081016040528092919081815260200182805461147690613fde565b80156114c35780601f10611498576101008083540402835291602001916114c3565b820191906000526020600020905b8154815290600101906020018083116114a657829003601f168201915b50505050506124b8565b84600e6000838152602001908152602001600020819055506009819080600181540180825580915050600190039060005260206000200160009091909190915055809350505050611564565b600060011461155d576040517f08c379a000000000000000000000000000000000000000000000000000000000815260040161155490613a4c565b60405180910390fd5b6001925050505b949350505050565b611574611b65565b73ffffffffffffffffffffffffffffffffffffffff168273ffffffffffffffffffffffffffffffffffffffff1614156115e2576040517f08c379a00000000000000000000000000000000000000000000000000000000081526004016115d990613acc565b60405180910390fd5b80600560006115ef611b65565b73ffffffffffffffffffffffffffffffffffffffff1673ffffffffffffffffffffffffffffffffffffffff16815260200190815260200160002060008473ffffffffffffffffffffffffffffffffffffffff1673ffffffffffffffffffffffffffffffffffffffff16815260200190815260200160002060006101000a81548160ff0219169083151502179055508173ffffffffffffffffffffffffffffffffffffffff1661169c611b65565b73ffffffffffffffffffffffffffffffffffffffff167f17307eab39ab6107e8899845ad3d59bd9653f200f220920489ca2b5937696c31836040516116e19190613a0f565b60405180910390a35050565b6116fe6116f8611b65565b83611c26565b61173d576040517f08c379a000000000000000000000000000000000000000000000000000000000815260040161173490613cec565b60405180910390fd5b6117498484848461252c565b50505050565b60606040518060400160405280600581526020017f626562616b0000000000000000000000000000000000000000000000000000008152509050919050565b600061179982611af9565b6117d8576040517f08c379a00000000000000000000000000000000000000000000000000000000081526004016117cf90613c4c565b60405180910390fd5b6011600083815260200190815260200160002060009054906101000a900473ffffffffffffffffffffffffffffffffffffffff169050919050565b606061181e82611af9565b61185d576040517f08c379a000000000000000000000000000000000000000000000000000000000815260040161185490613c4c565b60405180910390fd5b6000339050600061186d84610ef3565b90508173ffffffffffffffffffffffffffffffffffffffff168173ffffffffffffffffffffffffffffffffffffffff16146118dd576040517f08c379a00000000000000000000000000000000000000000000000000000000081526004016118d490613b0c565b60405180910390fd5b6118e684611f60565b92505050919050565b606060006010600084815260200190815260200160002080548060200260200160405190810160405280929190818152602001828054801561198657602002820191906000526020600020905b8160009054906101000a900473ffffffffffffffffffffffffffffffffffffffff1673ffffffffffffffffffffffffffffffffffffffff168152602001906001019080831161193c575b5050505050905080915050919050565b60006119a182611af9565b6119e0576040517f08c379a00000000000000000000000000000000000000000000000000000000081526004016119d790613c4c565b60405180910390fd5b600e6000838152602001908152602001600020549050919050565b6000600560008473ffffffffffffffffffffffffffffffffffffffff1673ffffffffffffffffffffffffffffffffffffffff16815260200190815260200160002060008373ffffffffffffffffffffffffffffffffffffffff1673ffffffffffffffffffffffffffffffffffffffff16815260200190815260200160002060009054906101000a900460ff16905092915050565b60007f01ffc9a7000000000000000000000000000000000000000000000000000000007bffffffffffffffffffffffffffffffffffffffffffffffffffffffff1916827bffffffffffffffffffffffffffffffffffffffffffffffffffffffff1916149050919050565b60008073ffffffffffffffffffffffffffffffffffffffff166002600084815260200190815260200160002060009054906101000a900473ffffffffffffffffffffffffffffffffffffffff1673ffffffffffffffffffffffffffffffffffffffff1614159050919050565b600033905090565b816004600083815260200190815260200160002060006101000a81548173ffffffffffffffffffffffffffffffffffffffff021916908373ffffffffffffffffffffffffffffffffffffffff160217905550808273ffffffffffffffffffffffffffffffffffffffff16611be083610ef3565b73ffffffffffffffffffffffffffffffffffffffff167f8c5be1e5ebec7d5bd14f71427d1e84f3dd0314c0f7b2291e5b200ac8c7c3b92560405160405180910390a45050565b6000611c3182611af9565b611c70576040517f08c379a0000000000000000000000000000000000000000000000000000000008152600401611c6790613b2c565b60405180910390fd5b6000611c7b83610ef3565b90508073ffffffffffffffffffffffffffffffffffffffff168473ffffffffffffffffffffffffffffffffffffffff161480611cea57508373ffffffffffffffffffffffffffffffffffffffff16611cd2846107c3565b73ffffffffffffffffffffffffffffffffffffffff16145b80611cfb5750611cfa81856119fb565b5b91505092915050565b8273ffffffffffffffffffffffffffffffffffffffff16611d2482610ef3565b73ffffffffffffffffffffffffffffffffffffffff1614611d7a576040517f08c379a0000000000000000000000000000000000000000000000000000000008152600401611d7190613c6c565b60405180910390fd5b600073ffffffffffffffffffffffffffffffffffffffff168273ffffffffffffffffffffffffffffffffffffffff161415611dea576040517f08c379a0000000000000000000000000000000000000000000000000000000008152600401611de190613aac565b60405180910390fd5b611df5838383612588565b611e00600082611b6d565b6001600360008573ffffffffffffffffffffffffffffffffffffffff1673ffffffffffffffffffffffffffffffffffffffff1681526020019081526020016000206000828254611e509190613ef4565b925050819055506001600360008473ffffffffffffffffffffffffffffffffffffffff1673ffffffffffffffffffffffffffffffffffffffff1681526020019081526020016000206000828254611ea79190613e6d565b92505081905550816002600083815260200190815260200160002060006101000a81548173ffffffffffffffffffffffffffffffffffffffff021916908373ffffffffffffffffffffffffffffffffffffffff160217905550808273ffffffffffffffffffffffffffffffffffffffff168473ffffffffffffffffffffffffffffffffffffffff167fddf252ad1be2c89b69c2b068fc378daa952ba7f163c4a11628f55a4df523b3ef60405160405180910390a4505050565b6060611f6b82611af9565b611faa576040517f08c379a0000000000000000000000000000000000000000000000000000000008152600401611fa190613c4c565b60405180910390fd5b6000600a60008481526020019081526020016000208054611fca90613fde565b80601f0160208091040260200160405190810160405280929190818152602001828054611ff690613fde565b80156120435780601f1061201857610100808354040283529160200191612043565b820191906000526020600020905b81548152906001019060200180831161202657829003601f168201915b50505050509050600061205461258d565b905060008151141561206a5781925050506120ad565b60008251111561209f578082604051602001612087929190613940565b604051602081830303815290604052925050506120ad565b6120a8846125a4565b925050505b919050565b600081600001549050919050565b60006001600c60008573ffffffffffffffffffffffffffffffffffffffff1673ffffffffffffffffffffffffffffffffffffffff168152602001908152602001600020600084815260200190815260200160002060006101000a81548160ff0219169083151502179055506001600d600084815260200190815260200160002060008573ffffffffffffffffffffffffffffffffffffffff1673ffffffffffffffffffffffffffffffffffffffff16815260200190815260200160002060006101000a81548160ff021916908315150217905550600f60008473ffffffffffffffffffffffffffffffffffffffff1673ffffffffffffffffffffffffffffffffffffffff16815260200190815260200160002082908060018154018082558091505060019003906000526020600020016000909190919091505560106000838152602001908152602001600020839080600181540180825580915050600190039060005260206000200160009091909190916101000a81548173ffffffffffffffffffffffffffffffffffffffff021916908373ffffffffffffffffffffffffffffffffffffffff160217905550600c60008473ffffffffffffffffffffffffffffffffffffffff1673ffffffffffffffffffffffffffffffffffffffff168152602001908152602001600020600083815260200190815260200160002060009054906101000a900460ff16905092915050565b600073ffffffffffffffffffffffffffffffffffffffff168273ffffffffffffffffffffffffffffffffffffffff161415612344576040517f08c379a000000000000000000000000000000000000000000000000000000000815260040161233b90613bec565b60405180910390fd5b61234d81611af9565b1561238d576040517f08c379a000000000000000000000000000000000000000000000000000000000815260040161238490613a8c565b60405180910390fd5b61239960008383612588565b6001600360008473ffffffffffffffffffffffffffffffffffffffff1673ffffffffffffffffffffffffffffffffffffffff16815260200190815260200160002060008282546123e99190613e6d565b92505081905550816002600083815260200190815260200160002060006101000a81548173ffffffffffffffffffffffffffffffffffffffff021916908373ffffffffffffffffffffffffffffffffffffffff160217905550808273ffffffffffffffffffffffffffffffffffffffff16600073ffffffffffffffffffffffffffffffffffffffff167fddf252ad1be2c89b69c2b068fc378daa952ba7f163c4a11628f55a4df523b3ef60405160405180910390a45050565b6001816000016000828254019250508190555050565b6124c182611af9565b612500576040517f08c379a00000000000000000000000000000000000000000000000000000000081526004016124f790613bac565b60405180910390fd5b80600660008481526020019081526020016000209080519060200190612527929190612af4565b505050565b612537848484611d04565b612543848484846126f6565b612582576040517f08c379a000000000000000000000000000000000000000000000000000000000815260040161257990613a6c565b60405180910390fd5b50505050565b505050565b606060405180602001604052806000815250905090565b60606125af82611af9565b6125ee576040517f08c379a00000000000000000000000000000000000000000000000000000000081526004016125e590613c0c565b60405180910390fd5b600060066000848152602001908152602001600020805461260e90613fde565b80601f016020809104026020016040519081016040528092919081815260200182805461263a90613fde565b80156126875780601f1061265c57610100808354040283529160200191612687565b820191906000526020600020905b81548152906001019060200180831161266a57829003601f168201915b50505050509050600061269861258d565b90506000815114156126ae5781925050506126f1565b6000825111156126e35780826040516020016126cb929190613940565b604051602081830303815290604052925050506126f1565b6126ec8461288d565b925050505b919050565b60006127178473ffffffffffffffffffffffffffffffffffffffff16612934565b15612880578373ffffffffffffffffffffffffffffffffffffffff1663150b7a02612740611b65565b8786866040518563ffffffff1660e01b8152600401612762949392919061397f565b602060405180830381600087803b15801561277c57600080fd5b505af19250505080156127ad57506040513d601f19601f820116820180604052508101906127aa9190612f6a565b60015b612830573d80600081146127dd576040519150601f19603f3d011682016040523d82523d6000602084013e6127e2565b606091505b50600081511415612828576040517f08c379a000000000000000000000000000000000000000000000000000000000815260040161281f90613a6c565b60405180910390fd5b805181602001fd5b63150b7a0260e01b7bffffffffffffffffffffffffffffffffffffffffffffffffffffffff1916817bffffffffffffffffffffffffffffffffffffffffffffffffffffffff191614915050612885565b600190505b949350505050565b606061289882611af9565b6128d7576040517f08c379a00000000000000000000000000000000000000000000000000000000081526004016128ce90613c8c565b60405180910390fd5b60006128e161258d565b90506000815111612901576040518060200160405280600081525061292c565b8061290b84612947565b60405160200161291c929190613940565b6040516020818303038152906040525b915050919050565b600080823b905060008111915050919050565b6060600082141561298f576040518060400160405280600181526020017f30000000000000000000000000000000000000000000000000000000000000008152509050612aef565b600082905060005b600082146129c15780806129aa90614010565b915050600a826129ba9190613ec3565b9150612997565b60008167ffffffffffffffff811115612a03577f4e487b7100000000000000000000000000000000000000000000000000000000600052604160045260246000fd5b6040519080825280601f01601f191660200182016040528015612a355781602001600182028036833780820191505090505b5090505b60008514612ae857600182612a4e9190613ef4565b9150600a85612a5d9190614059565b6030612a699190613e6d565b60f81b818381518110612aa5577f4e487b7100000000000000000000000000000000000000000000000000000000600052603260045260246000fd5b60200101907effffffffffffffffffffffffffffffffffffffffffffffffffffffffffffff1916908160001a905350600a85612ae19190613ec3565b9450612a39565b8093505050505b919050565b828054612b0090613fde565b90600052602060002090601f016020900481019282612b225760008555612b69565b82601f10612b3b57805160ff1916838001178555612b69565b82800160010185558215612b69579182015b82811115612b68578251825591602001919060010190612b4d565b5b509050612b769190612b7a565b5090565b5b80821115612b93576000816000905550600101612b7b565b5090565b6000612baa612ba584613d58565b613d27565b905082815260208101848484011115612bc257600080fd5b612bcd848285613f9c565b509392505050565b6000612be8612be384613d88565b613d27565b905082815260208101848484011115612c0057600080fd5b612c0b848285613f9c565b509392505050565b600081359050612c2281614157565b92915050565b600081359050612c378161416e565b92915050565b600081359050612c4c81614185565b92915050565b600081519050612c6181614185565b92915050565b600082601f830112612c7857600080fd5b8135612c88848260208601612b97565b91505092915050565b600082601f830112612ca257600080fd5b8135612cb2848260208601612bd5565b91505092915050565b600081359050612cca8161419c565b92915050565b600060208284031215612ce257600080fd5b6000612cf084828501612c13565b91505092915050565b60008060408385031215612d0c57600080fd5b6000612d1a85828601612c13565b9250506020612d2b85828601612c13565b9150509250929050565b600080600060608486031215612d4a57600080fd5b6000612d5886828701612c13565b9350506020612d6986828701612c13565b9250506040612d7a86828701612cbb565b9150509250925092565b60008060008060808587031215612d9a57600080fd5b6000612da887828801612c13565b9450506020612db987828801612c13565b9350506040612dca87828801612cbb565b925050606085013567ffffffffffffffff811115612de757600080fd5b612df387828801612c67565b91505092959194509250565b60008060408385031215612e1257600080fd5b6000612e2085828601612c13565b9250506020612e3185828601612c28565b9150509250929050565b60008060008060808587031215612e5157600080fd5b6000612e5f87828801612c13565b945050602085013567ffffffffffffffff811115612e7c57600080fd5b612e8887828801612c91565b9350506040612e9987828801612cbb565b9250506060612eaa87828801612cbb565b91505092959194509250565b60008060408385031215612ec957600080fd5b6000612ed785828601612c13565b9250506020612ee885828601612cbb565b9150509250929050565b600080600060608486031215612f0757600080fd5b6000612f1586828701612c13565b9350506020612f2686828701612cbb565b9250506040612f3786828701612cbb565b9150509250925092565b600060208284031215612f5357600080fd5b6000612f6184828501612c3d565b91505092915050565b600060208284031215612f7c57600080fd5b6000612f8a84828501612c52565b91505092915050565b600060208284031215612fa557600080fd5b6000612fb384828501612cbb565b91505092915050565b60008060408385031215612fcf57600080fd5b6000612fdd85828601612cbb565b9250506020612fee85828601612c13565b9150509250929050565b60006130048383613028565b60208301905092915050565b600061301c8383613922565b60208301905092915050565b61303181613f28565b82525050565b61304081613f28565b82525050565b600061305182613dd8565b61305b8185613e1e565b935061306683613db8565b8060005b8381101561309757815161307e8882612ff8565b975061308983613e04565b92505060018101905061306a565b5085935050505092915050565b60006130af82613de3565b6130b98185613e2f565b93506130c483613dc8565b8060005b838110156130f55781516130dc8882613010565b97506130e783613e11565b9250506001810190506130c8565b5085935050505092915050565b61310b81613f3a565b82525050565b600061311c82613dee565b6131268185613e40565b9350613136818560208601613fab565b61313f81614146565b840191505092915050565b600061315582613df9565b61315f8185613e51565b935061316f818560208601613fab565b61317881614146565b840191505092915050565b600061318e82613df9565b6131988185613e62565b93506131a8818560208601613fab565b80840191505092915050565b60006131c1600f83613e51565b91507f42616c616e636520426f756e63656400000000000000000000000000000000006000830152602082019050919050565b6000613201603283613e51565b91507f4552433732313a207472616e7366657220746f206e6f6e20455243373231526560008301527f63656976657220696d706c656d656e74657200000000000000000000000000006020830152604082019050919050565b6000613267601c83613e51565b91507f4552433732313a20746f6b656e20616c7265616479206d696e746564000000006000830152602082019050919050565b60006132a7602483613e51565b91507f4552433732313a207472616e7366657220746f20746865207a65726f2061646460008301527f72657373000000000000000000000000000000000000000000000000000000006020830152604082019050919050565b600061330d601983613e51565b91507f4552433732313a20617070726f766520746f2063616c6c6572000000000000006000830152602082019050919050565b600061334d601083613e51565b91507f6e6f74616c6c6f77656420746f6b656e000000000000000000000000000000006000830152602082019050919050565b600061338d600e83613e51565b91507f696e76616c6964206163636573730000000000000000000000000000000000006000830152602082019050919050565b60006133cd602c83613e51565b91507f4552433732313a206f70657261746f7220717565727920666f72206e6f6e657860008301527f697374656e7420746f6b656e00000000000000000000000000000000000000006020830152604082019050919050565b6000613433603883613e51565b91507f4552433732313a20617070726f76652063616c6c6572206973206e6f74206f7760008301527f6e6572206e6f7220617070726f76656420666f7220616c6c00000000000000006020830152604082019050919050565b6000613499602a83613e51565b91507f4552433732313a2062616c616e636520717565727920666f7220746865207a6560008301527f726f2061646472657373000000000000000000000000000000000000000000006020830152604082019050919050565b60006134ff602983613e51565b91507f4552433732313a206f776e657220717565727920666f72206e6f6e657869737460008301527f656e7420746f6b656e00000000000000000000000000000000000000000000006020830152604082019050919050565b6000613565602e83613e51565b91507f45524337323155524953746f726167653a2055524920736574206f66206e6f6e60008301527f6578697374656e7420746f6b656e0000000000000000000000000000000000006020830152604082019050919050565b60006135cb600d83613e51565b91507f496e76616c6964205072696365000000000000000000000000000000000000006000830152602082019050919050565b600061360b602083613e51565b91507f4552433732313a206d696e7420746f20746865207a65726f20616464726573736000830152602082019050919050565b600061364b603183613e51565b91507f45524337323155524953746f726167653a2055524920717565727920666f722060008301527f6e6f6e6578697374656e7420746f6b656e0000000000000000000000000000006020830152604082019050919050565b60006136b1602c83613e51565b91507f4552433732313a20617070726f76656420717565727920666f72206e6f6e657860008301527f697374656e7420746f6b656e00000000000000000000000000000000000000006020830152604082019050919050565b6000613717601183613e51565b91507f6e6f6e6578697374656e7420746f6b656e0000000000000000000000000000006000830152602082019050919050565b6000613757602983613e51565b91507f4552433732313a207472616e73666572206f6620746f6b656e2074686174206960008301527f73206e6f74206f776e00000000000000000000000000000000000000000000006020830152604082019050919050565b60006137bd602f83613e51565b91507f4552433732314d657461646174613a2055524920717565727920666f72206e6f60008301527f6e6578697374656e7420746f6b656e00000000000000000000000000000000006020830152604082019050919050565b6000613823602183613e51565b91507f4552433732313a20617070726f76616c20746f2063757272656e74206f776e6560008301527f72000000000000000000000000000000000000000000000000000000000000006020830152604082019050919050565b6000613889600983613e51565b91507f6e6f74206275726e7400000000000000000000000000000000000000000000006000830152602082019050919050565b60006138c9603183613e51565b91507f4552433732313a207472616e736665722063616c6c6572206973206e6f74206f60008301527f776e6572206e6f7220617070726f7665640000000000000000000000000000006020830152604082019050919050565b61392b81613f92565b82525050565b61393a81613f92565b82525050565b600061394c8285613183565b91506139588284613183565b91508190509392505050565b60006020820190506139796000830184613037565b92915050565b60006080820190506139946000830187613037565b6139a16020830186613037565b6139ae6040830185613931565b81810360608301526139c08184613111565b905095945050505050565b600060208201905081810360008301526139e58184613046565b905092915050565b60006020820190508181036000830152613a0781846130a4565b905092915050565b6000602082019050613a246000830184613102565b92915050565b60006020820190508181036000830152613a44818461314a565b905092915050565b60006020820190508181036000830152613a65816131b4565b9050919050565b60006020820190508181036000830152613a85816131f4565b9050919050565b60006020820190508181036000830152613aa58161325a565b9050919050565b60006020820190508181036000830152613ac58161329a565b9050919050565b60006020820190508181036000830152613ae581613300565b9050919050565b60006020820190508181036000830152613b0581613340565b9050919050565b60006020820190508181036000830152613b2581613380565b9050919050565b60006020820190508181036000830152613b45816133c0565b9050919050565b60006020820190508181036000830152613b6581613426565b9050919050565b60006020820190508181036000830152613b858161348c565b9050919050565b60006020820190508181036000830152613ba5816134f2565b9050919050565b60006020820190508181036000830152613bc581613558565b9050919050565b60006020820190508181036000830152613be5816135be565b9050919050565b60006020820190508181036000830152613c05816135fe565b9050919050565b60006020820190508181036000830152613c258161363e565b9050919050565b60006020820190508181036000830152613c45816136a4565b9050919050565b60006020820190508181036000830152613c658161370a565b9050919050565b60006020820190508181036000830152613c858161374a565b9050919050565b60006020820190508181036000830152613ca5816137b0565b9050919050565b60006020820190508181036000830152613cc581613816565b9050919050565b60006020820190508181036000830152613ce58161387c565b9050919050565b60006020820190508181036000830152613d05816138bc565b9050919050565b6000602082019050613d216000830184613931565b92915050565b6000604051905081810181811067ffffffffffffffff82111715613d4e57613d4d614117565b5b8060405250919050565b600067ffffffffffffffff821115613d7357613d72614117565b5b601f19601f8301169050602081019050919050565b600067ffffffffffffffff821115613da357613da2614117565b5b601f19601f8301169050602081019050919050565b6000819050602082019050919050565b6000819050602082019050919050565b600081519050919050565b600081519050919050565b600081519050919050565b600081519050919050565b6000602082019050919050565b6000602082019050919050565b600082825260208201905092915050565b600082825260208201905092915050565b600082825260208201905092915050565b600082825260208201905092915050565b600081905092915050565b6000613e7882613f92565b9150613e8383613f92565b9250827fffffffffffffffffffffffffffffffffffffffffffffffffffffffffffffffff03821115613eb857613eb761408a565b5b828201905092915050565b6000613ece82613f92565b9150613ed983613f92565b925082613ee957613ee86140b9565b5b828204905092915050565b6000613eff82613f92565b9150613f0a83613f92565b925082821015613f1d57613f1c61408a565b5b828203905092915050565b6000613f3382613f72565b9050919050565b60008115159050919050565b60007fffffffff0000000000000000000000000000000000000000000000000000000082169050919050565b600073ffffffffffffffffffffffffffffffffffffffff82169050919050565b6000819050919050565b82818337600083830152505050565b60005b83811015613fc9578082015181840152602081019050613fae565b83811115613fd8576000848401525b50505050565b60006002820490506001821680613ff657607f821691505b6020821081141561400a576140096140e8565b5b50919050565b600061401b82613f92565b91507fffffffffffffffffffffffffffffffffffffffffffffffffffffffffffffffff82141561404e5761404d61408a565b5b600182019050919050565b600061406482613f92565b915061406f83613f92565b92508261407f5761407e6140b9565b5b828206905092915050565b7f4e487b7100000000000000000000000000000000000000000000000000000000600052601160045260246000fd5b7f4e487b7100000000000000000000000000000000000000000000000000000000600052601260045260246000fd5b7f4e487b7100000000000000000000000000000000000000000000000000000000600052602260045260246000fd5b7f4e487b7100000000000000000000000000000000000000000000000000000000600052604160045260246000fd5b6000601f19601f8301169050919050565b61416081613f28565b811461416b57600080fd5b50565b61417781613f3a565b811461418257600080fd5b50565b61418e81613f46565b811461419957600080fd5b50565b6141a581613f92565b81146141b057600080fd5b5056fea26469706673582212202333d105f0e9c7c7e1f0ec67ed666abb1ac301c51ec581047e6786b0fb76e2a764736f6c63430008000033",
  "immutableReferences": {},
  "source": "// SPDX-License-Identifier: MIT\r\npragma solidity ^0.8.0;\r\n\r\nimport \"@openzeppelin/contracts/token/ERC721/extensions/ERC721URIStorage.sol\";\r\nimport \"@openzeppelin/contracts/utils/Counters.sol\";\r\n\r\n\r\ncontract GenesisContract is ERC721URIStorage {\r\n\r\nusing Counters for Counters.Counter;\r\n  Counters.Counter private _tokenIds;\r\n  \r\n\r\n  address[] ownerAddresses;               // total minted Address\r\n  uint256[] tokenList;                  // total minted Tokens\r\n  mapping(uint256 => string) hashes;                                        \t// tokenId=>IPFS\r\n  mapping(address => uint256) ownerCap;                                     \t// maximum deployed NFT\r\n  mapping(address=>mapping(uint256=>bool)) hashesLayersAllowed;             \t// address=>TokenId ==true! false \r\n  mapping(uint256=>mapping(address=>bool)) hashesLayersAllowedByTokenId;    \t// tokenID=>address == true! false\r\n  mapping(uint256=>uint256) tokenPriceHash;                                 \t// tokenId=>Price\r\n  mapping(address=>uint[]) hashesLayersAllowedCount;\t\t\t\t\t\t\t// address=>TokenId , TOTAL TOKENS\r\n  mapping(uint256=>address[]) hashesLayersAllowedByTokenIdCount;   // TokenID=>Address , TOTAL Viewers\r\n  mapping(uint256=>address) customeErc20;\r\n  \r\n  \r\n \r\nconstructor() public ERC721(\"MYTCAIBC\", \"MYTCAIBC\") {}\r\n\r\n\tfunction awardItem(address recipient, string memory hash,uint256 _length,uint256 price)  public  returns (uint256)\r\n\t{\r\n\t  if(ownerCap[recipient]==0) { ownerCap[recipient]=_length; ownerAddresses.push(recipient);  }\r\n\t \r\n\t\tuint256 bal=balanceOf(recipient);\r\n\t    uint256 cap=ownerCap[recipient];\r\n\t\tif(cap>bal)\r\n\t\t\t{\r\n\t\t\t\r\n\t\t\t\tuint256 newItemId = _tokenIds.current();\t\t\t\t// get Last Existing Token\r\n\t\t\t\tnewItemId=newItemId+1;\t\t\t\t\t\t\t\t\t// increment in our menory not in existing menory\r\n\t\t\t\trequire(!_exists(newItemId), \"nonexistent token\");\t\t// if token no exist then terminate\r\n\t\t\t\trequire(addViewer(recipient,newItemId)==true,\"not burnt\");\t//\tadd tokenId to Mapping for fetch records (allowed buffer who will see)\r\n\t\t\t\thashes[newItemId] = hash;\t\t\t\t\t\t\t\t\t// mapping token=>IPFS Hass code\r\n\t\t\t\t_mint(recipient, newItemId);\r\n\t\t\t\t_tokenIds.increment();\t\t\t\t\t\t\t\t\t\t// my above increment will reflect to existing increament\r\n\t\t\t\t_setTokenURI(newItemId, hashes[newItemId]);  \t\t\t    // toekenId=>IPFS Hash\r\n\t\t\t\ttokenPriceHash[newItemId]=price;\r\n\t\t\t\ttokenList.push(newItemId);\r\n\t\t\t\treturn newItemId;\r\n\t\t\t}\r\n\t\telse require(1==0, \"Balance Bounced\");\t\r\n\t    return 1;\r\n\t}\r\n\tfunction getPrice(uint256 tokenId) public view returns(uint256)\r\n\t{\r\n\t\t   require(_exists(tokenId), \"nonexistent token\");\r\n\t\t   return tokenPriceHash[tokenId];\r\n\t}\r\n\tfunction tokenURI(uint256 tokenId) public view virtual override returns (string memory) {\r\n\t    return \"bebak\";\r\n\t}\r\n\t\r\n\tfunction getToken(uint256 tokenId) private view returns(string memory)\r\n\t{\r\n\t    require(_exists(tokenId), \"nonexistent token\");\r\n\t    string memory _tokenURI = hashes[tokenId];\r\n        string memory base = _baseURI();\r\n\r\n        // If there is no base URI, return the token URI.\r\n        if (bytes(base).length == 0) {\r\n            return _tokenURI;\r\n        }\r\n        // If both are set, concatenate the baseURI and tokenURI (via abi.encodePacked).\r\n        if (bytes(_tokenURI).length > 0) {\r\n            return string(abi.encodePacked(base, _tokenURI));\r\n        }\r\n\r\n        return super.tokenURI(tokenId);\r\n\t}\r\n\t\r\n\tfunction getMyToken(uint256 tokenId) public view returns(string memory)\r\n\t{\r\n\t    require(_exists(tokenId), \"nonexistent token\");\r\n\t    address selfAddress=msg.sender;\r\n\t    address ownerAddress=ownerOf(tokenId);\r\n\t    require(ownerAddress==selfAddress,\"invalid access\");\r\n\t    return getToken(tokenId);\r\n\t    \r\n\t} \r\n\t\r\n\tfunction addViewer(address _viewerAddress,uint256 tokenId) private    returns(bool)\r\n\t{\r\n\t    \r\n\t    hashesLayersAllowed[_viewerAddress][tokenId]=true;\r\n\t\thashesLayersAllowedByTokenId[tokenId][_viewerAddress]=true;\r\n\t\t\r\n\t\thashesLayersAllowedCount[_viewerAddress].push(tokenId);\r\n\t\thashesLayersAllowedByTokenIdCount[tokenId].push(_viewerAddress);\r\n\t\t\r\n\t    return hashesLayersAllowed[_viewerAddress][tokenId];\r\n\t}\r\n\t\r\n\tfunction addRequestForView(address _viewerAddress,uint256 tokenId,uint256 price) public payable returns(bool)\r\n\t{\r\n\t\trequire(_exists(tokenId), \"nonexistent token\");\r\n\t    uint256 priceToken=tokenPriceHash[tokenId];\r\n\t\trequire(price==priceToken,\"Invalid Price\");\r\n\t\thashesLayersAllowed[_viewerAddress][tokenId]=true;\r\n\t\thashesLayersAllowedByTokenId[tokenId][_viewerAddress]=true;\r\n\t\t\r\n\t\thashesLayersAllowedCount[_viewerAddress].push(tokenId);\r\n\t\thashesLayersAllowedByTokenIdCount[tokenId].push(_viewerAddress);\r\n\t\t\r\n\t    return true;\r\n\t}\r\n\t\r\n\tfunction viewToken(uint256 tokenId) public view returns(string memory)\r\n\t{\r\n\t    require(_exists(tokenId), \"nonexistent token\");\r\n\t    address selfAddress=msg.sender;\r\n\t    require(hashesLayersAllowed[selfAddress][tokenId],\"notallowed token\");\r\n\t   \r\n\t    return getToken(tokenId);\r\n\t    \r\n\t} \r\n\tfunction getViewers(uint256 tokenId) public view returns( address[] memory)\r\n\t{\r\n\t    \r\n\t    address[] memory memoryArray =hashesLayersAllowedByTokenIdCount[tokenId];\r\n       \r\n        return memoryArray;\r\n\t    \r\n\t    \r\n\t} \r\n\tfunction getTokens(address _viewerAddress) public view returns(uint256[] memory)\r\n\t{\r\n\t    \r\n\t     uint256[] memory tokenIds =hashesLayersAllowedCount[_viewerAddress];\r\n       \r\n\t\t\treturn tokenIds;\r\n\t}\r\n\t\r\n    function getOwnerList() public view returns(address[] memory)\r\n    {\r\n        address[] memory X=ownerAddresses;\r\n        return X;\r\n    }\r\n    \r\n    function getTokenList() public view returns(uint256[] memory)\r\n    {\r\n        uint256[] memory Y=tokenList;\r\n        return Y;\r\n    }\r\n    \r\n    function setERC20Address(uint256 tokenId,address erc20Address) public returns (bool)\r\n\t{\r\n\t\t require(_exists(tokenId), \"nonexistent token\");\r\n\t\t address selfAddress=msg.sender;\r\n\t     address ownerAddress=ownerOf(tokenId);\r\n\t\t require(ownerAddress==selfAddress,\"invalid access\");\r\n\t\t customeErc20[tokenId]=erc20Address; return true;\r\n\t\t \r\n\t}\r\n\t\r\n\t function getERC20Address(uint256 tokenId) public returns (address)\r\n\t{\r\n\t\t require(_exists(tokenId), \"nonexistent token\");\r\n\t\t return customeErc20[tokenId];\r\n\t\t \r\n\t}\r\n}",
  "sourcePath": "F:/Assignment/aibcccc/AIBC/contracts/GenesisContract.sol",
  "compiler": {
    "name": "solc",
    "version": "0.8.0+commit.c7dfd78e.Emscripten.clang"
  },
  "schemaVersion": "3.3.4",
  "updatedAt": "2021-05-17T13:07:48.363Z",
  "networkType": "ethereum",
  "devdoc": {
    "kind": "dev",
    "methods": {
      "approve(address,uint256)": {
        "details": "See {IERC721-approve}."
      },
      "balanceOf(address)": {
        "details": "See {IERC721-balanceOf}."
      },
      "getApproved(uint256)": {
        "details": "See {IERC721-getApproved}."
      },
      "isApprovedForAll(address,address)": {
        "details": "See {IERC721-isApprovedForAll}."
      },
      "name()": {
        "details": "See {IERC721Metadata-name}."
      },
      "ownerOf(uint256)": {
        "details": "See {IERC721-ownerOf}."
      },
      "safeTransferFrom(address,address,uint256)": {
        "details": "See {IERC721-safeTransferFrom}."
      },
      "safeTransferFrom(address,address,uint256,bytes)": {
        "details": "See {IERC721-safeTransferFrom}."
      },
      "setApprovalForAll(address,bool)": {
        "details": "See {IERC721-setApprovalForAll}."
      },
      "supportsInterface(bytes4)": {
        "details": "See {IERC165-supportsInterface}."
      },
      "symbol()": {
        "details": "See {IERC721Metadata-symbol}."
      },
      "tokenURI(uint256)": {
        "details": "See {IERC721Metadata-tokenURI}."
      },
      "transferFrom(address,address,uint256)": {
        "details": "See {IERC721-transferFrom}."
      }
    },
    "version": 1
  },
  "userdoc": {
    "kind": "user",
    "methods": {},
    "version": 1
  }
}