{
  "contractName": "GenesisContract",
  "abi": [
    {
      "inputs": [],
      "stateMutability": "nonpayable",
      "type": "constructor"
    },
    {
      "anonymous": false,
      "inputs": [
        {
          "indexed": true,
          "internalType": "address",
          "name": "owner",
          "type": "address"
        },
        {
          "indexed": true,
          "internalType": "address",
          "name": "approved",
          "type": "address"
        },
        {
          "indexed": true,
          "internalType": "uint256",
          "name": "tokenId",
          "type": "uint256"
        }
      ],
      "name": "Approval",
      "type": "event"
    },
    {
      "anonymous": false,
      "inputs": [
        {
          "indexed": true,
          "internalType": "address",
          "name": "owner",
          "type": "address"
        },
        {
          "indexed": true,
          "internalType": "address",
          "name": "operator",
          "type": "address"
        },
        {
          "indexed": false,
          "internalType": "bool",
          "name": "approved",
          "type": "bool"
        }
      ],
      "name": "ApprovalForAll",
      "type": "event"
    },
    {
      "anonymous": false,
      "inputs": [
        {
          "indexed": true,
          "internalType": "address",
          "name": "from",
          "type": "address"
        },
        {
          "indexed": true,
          "internalType": "address",
          "name": "to",
          "type": "address"
        },
        {
          "indexed": true,
          "internalType": "uint256",
          "name": "tokenId",
          "type": "uint256"
        }
      ],
      "name": "Transfer",
      "type": "event"
    },
    {
      "inputs": [
        {
          "internalType": "address",
          "name": "to",
          "type": "address"
        },
        {
          "internalType": "uint256",
          "name": "tokenId",
          "type": "uint256"
        }
      ],
      "name": "approve",
      "outputs": [],
      "stateMutability": "nonpayable",
      "type": "function"
    },
    {
      "inputs": [
        {
          "internalType": "address",
          "name": "owner",
          "type": "address"
        }
      ],
      "name": "balanceOf",
      "outputs": [
        {
          "internalType": "uint256",
          "name": "",
          "type": "uint256"
        }
      ],
      "stateMutability": "view",
      "type": "function",
      "constant": true
    },
    {
      "inputs": [
        {
          "internalType": "uint256",
          "name": "tokenId",
          "type": "uint256"
        }
      ],
      "name": "getApproved",
      "outputs": [
        {
          "internalType": "address",
          "name": "",
          "type": "address"
        }
      ],
      "stateMutability": "view",
      "type": "function",
      "constant": true
    },
    {
      "inputs": [
        {
          "internalType": "address",
          "name": "owner",
          "type": "address"
        },
        {
          "internalType": "address",
          "name": "operator",
          "type": "address"
        }
      ],
      "name": "isApprovedForAll",
      "outputs": [
        {
          "internalType": "bool",
          "name": "",
          "type": "bool"
        }
      ],
      "stateMutability": "view",
      "type": "function",
      "constant": true
    },
    {
      "inputs": [],
      "name": "name",
      "outputs": [
        {
          "internalType": "string",
          "name": "",
          "type": "string"
        }
      ],
      "stateMutability": "view",
      "type": "function",
      "constant": true
    },
    {
      "inputs": [
        {
          "internalType": "uint256",
          "name": "tokenId",
          "type": "uint256"
        }
      ],
      "name": "ownerOf",
      "outputs": [
        {
          "internalType": "address",
          "name": "",
          "type": "address"
        }
      ],
      "stateMutability": "view",
      "type": "function",
      "constant": true
    },
    {
      "inputs": [
        {
          "internalType": "address",
          "name": "from",
          "type": "address"
        },
        {
          "internalType": "address",
          "name": "to",
          "type": "address"
        },
        {
          "internalType": "uint256",
          "name": "tokenId",
          "type": "uint256"
        }
      ],
      "name": "safeTransferFrom",
      "outputs": [],
      "stateMutability": "nonpayable",
      "type": "function"
    },
    {
      "inputs": [
        {
          "internalType": "address",
          "name": "from",
          "type": "address"
        },
        {
          "internalType": "address",
          "name": "to",
          "type": "address"
        },
        {
          "internalType": "uint256",
          "name": "tokenId",
          "type": "uint256"
        },
        {
          "internalType": "bytes",
          "name": "_data",
          "type": "bytes"
        }
      ],
      "name": "safeTransferFrom",
      "outputs": [],
      "stateMutability": "nonpayable",
      "type": "function"
    },
    {
      "inputs": [
        {
          "internalType": "address",
          "name": "operator",
          "type": "address"
        },
        {
          "internalType": "bool",
          "name": "approved",
          "type": "bool"
        }
      ],
      "name": "setApprovalForAll",
      "outputs": [],
      "stateMutability": "nonpayable",
      "type": "function"
    },
    {
      "inputs": [
        {
          "internalType": "bytes4",
          "name": "interfaceId",
          "type": "bytes4"
        }
      ],
      "name": "supportsInterface",
      "outputs": [
        {
          "internalType": "bool",
          "name": "",
          "type": "bool"
        }
      ],
      "stateMutability": "view",
      "type": "function",
      "constant": true
    },
    {
      "inputs": [],
      "name": "symbol",
      "outputs": [
        {
          "internalType": "string",
          "name": "",
          "type": "string"
        }
      ],
      "stateMutability": "view",
      "type": "function",
      "constant": true
    },
    {
      "inputs": [
        {
          "internalType": "address",
          "name": "from",
          "type": "address"
        },
        {
          "internalType": "address",
          "name": "to",
          "type": "address"
        },
        {
          "internalType": "uint256",
          "name": "tokenId",
          "type": "uint256"
        }
      ],
      "name": "transferFrom",
      "outputs": [],
      "stateMutability": "nonpayable",
      "type": "function"
    },
    {
      "inputs": [
        {
          "internalType": "address",
          "name": "recipient",
          "type": "address"
        },
        {
          "internalType": "string",
          "name": "hash",
          "type": "string"
        },
        {
          "internalType": "uint256",
          "name": "_length",
          "type": "uint256"
        },
        {
          "internalType": "uint256",
          "name": "price",
          "type": "uint256"
        }
      ],
      "name": "awardItem",
      "outputs": [
        {
          "internalType": "uint256",
          "name": "",
          "type": "uint256"
        }
      ],
      "stateMutability": "nonpayable",
      "type": "function"
    },
    {
      "inputs": [
        {
          "internalType": "uint256",
          "name": "tokenId",
          "type": "uint256"
        }
      ],
      "name": "getPrice",
      "outputs": [
        {
          "internalType": "uint256",
          "name": "",
          "type": "uint256"
        }
      ],
      "stateMutability": "view",
      "type": "function",
      "constant": true
    },
    {
      "inputs": [
        {
          "internalType": "uint256",
          "name": "tokenId",
          "type": "uint256"
        }
      ],
      "name": "tokenURI",
      "outputs": [
        {
          "internalType": "string",
          "name": "",
          "type": "string"
        }
      ],
      "stateMutability": "view",
      "type": "function",
      "constant": true
    },
    {
      "inputs": [
        {
          "internalType": "uint256",
          "name": "tokenId",
          "type": "uint256"
        }
      ],
      "name": "getMyToken",
      "outputs": [
        {
          "internalType": "string",
          "name": "",
          "type": "string"
        }
      ],
      "stateMutability": "view",
      "type": "function",
      "constant": true
    },
    {
      "inputs": [
        {
          "internalType": "address",
          "name": "_viewerAddress",
          "type": "address"
        },
        {
          "internalType": "uint256",
          "name": "tokenId",
          "type": "uint256"
        },
        {
          "internalType": "uint256",
          "name": "price",
          "type": "uint256"
        }
      ],
      "name": "addRequestForView",
      "outputs": [
        {
          "internalType": "bool",
          "name": "",
          "type": "bool"
        }
      ],
      "stateMutability": "payable",
      "type": "function",
      "payable": true
    },
    {
      "inputs": [
        {
          "internalType": "uint256",
          "name": "tokenId",
          "type": "uint256"
        }
      ],
      "name": "viewToken",
      "outputs": [
        {
          "internalType": "string",
          "name": "",
          "type": "string"
        }
      ],
      "stateMutability": "view",
      "type": "function",
      "constant": true
    },
    {
      "inputs": [
        {
          "internalType": "uint256",
          "name": "tokenId",
          "type": "uint256"
        }
      ],
      "name": "getViewers",
      "outputs": [
        {
          "internalType": "address[]",
          "name": "",
          "type": "address[]"
        }
      ],
      "stateMutability": "view",
      "type": "function",
      "constant": true
    },
    {
      "inputs": [
        {
          "internalType": "address",
          "name": "_viewerAddress",
          "type": "address"
        }
      ],
      "name": "getTokens",
      "outputs": [
        {
          "internalType": "uint256[]",
          "name": "",
          "type": "uint256[]"
        }
      ],
      "stateMutability": "view",
      "type": "function",
      "constant": true
    },
    {
      "inputs": [
        {
          "internalType": "address",
          "name": "_viewerAddress",
          "type": "address"
        }
      ],
      "name": "getTokensOwner",
      "outputs": [
        {
          "internalType": "uint256[]",
          "name": "",
          "type": "uint256[]"
        }
      ],
      "stateMutability": "view",
      "type": "function",
      "constant": true
    },
    {
      "inputs": [],
      "name": "getOwnerList",
      "outputs": [
        {
          "internalType": "address[]",
          "name": "",
          "type": "address[]"
        }
      ],
      "stateMutability": "view",
      "type": "function",
      "constant": true
    },
    {
      "inputs": [],
      "name": "getTokenList",
      "outputs": [
        {
          "internalType": "uint256[]",
          "name": "",
          "type": "uint256[]"
        }
      ],
      "stateMutability": "view",
      "type": "function",
      "constant": true
    },
    {
      "inputs": [
        {
          "internalType": "uint256",
          "name": "tokenId",
          "type": "uint256"
        },
        {
          "internalType": "address",
          "name": "erc20Address",
          "type": "address"
        }
      ],
      "name": "setERC20Address",
      "outputs": [
        {
          "internalType": "bool",
          "name": "",
          "type": "bool"
        }
      ],
      "stateMutability": "nonpayable",
      "type": "function"
    },
    {
      "inputs": [
        {
          "internalType": "uint256",
          "name": "tokenId",
          "type": "uint256"
        }
      ],
      "name": "getERC20Address",
      "outputs": [
        {
          "internalType": "address",
          "name": "",
          "type": "address"
        }
      ],
      "stateMutability": "view",
      "type": "function",
      "constant": true
    }
  ],
  "bytecode": "0x60806040523480156200001157600080fd5b506040518060400160405280600881526020017f4d595443414942430000000000000000000000000000000000000000000000008152506040518060400160405280600881526020017f4d59544341494243000000000000000000000000000000000000000000000000815250816000908051906020019062000096929190620000b8565b508060019080519060200190620000af929190620000b8565b505050620001cd565b828054620000c69062000168565b90600052602060002090601f016020900481019282620000ea576000855562000136565b82601f106200010557805160ff191683800117855562000136565b8280016001018555821562000136579182015b828111156200013557825182559160200191906001019062000118565b5b50905062000145919062000149565b5090565b5b80821115620001645760008160009055506001016200014a565b5090565b600060028204905060018216806200018157607f821691505b602082108114156200019857620001976200019e565b5b50919050565b7f4e487b7100000000000000000000000000000000000000000000000000000000600052602260045260246000fd5b61434480620001dd6000396000f3fe6080604052600436106101665760003560e01c806370a08231116100d1578063b88d4fde1161008a578063db93bfa211610064578063db93bfa2146105b3578063dfbb61f2146105f0578063e75722301461062d578063e985e9c51461066a57610166565b8063b88d4fde14610510578063c87b56dd14610539578063d1bc6caa1461057657610166565b806370a08231146103c85780637d9ce21f146104055780638334d1951461044257806395d89b411461047f5780639efea36d146104aa578063a22cb465146104e757610166565b8063273cbaa011610123578063273cbaa0146102925780632ec39f29146102bd57806342842e0e146102fa578063450efe211461032357806358100370146103605780636352211e1461038b57610166565b806301ffc9a71461016b57806306fdde03146101a8578063081812fc146101d3578063095ea7b31461021057806323b872dd14610239578063253e054114610262575b600080fd5b34801561017757600080fd5b50610192600480360381019061018d919061309c565b6106a7565b60405161019f9190613b6a565b60405180910390f35b3480156101b457600080fd5b506101bd610789565b6040516101ca9190613b85565b60405180910390f35b3480156101df57600080fd5b506101fa60048036038101906101f591906130ee565b61081b565b6040516102079190613abf565b60405180910390f35b34801561021c57600080fd5b5061023760048036038101906102329190613011565b6108a0565b005b34801561024557600080fd5b50610260600480360381019061025b9190612e90565b6109b8565b005b61027c6004803603810190610277919061304d565b610a18565b6040516102899190613b6a565b60405180910390f35b34801561029e57600080fd5b506102a7610c74565b6040516102b49190613b48565b60405180910390f35b3480156102c957600080fd5b506102e460048036038101906102df9190613117565b610cd2565b6040516102f19190613b6a565b60405180910390f35b34801561030657600080fd5b50610321600480360381019061031c9190612e90565b610dfa565b005b34801561032f57600080fd5b5061034a60048036038101906103459190612e2b565b610e1a565b6040516103579190613b48565b60405180910390f35b34801561036c57600080fd5b50610375610eb7565b6040516103829190613b26565b60405180910390f35b34801561039757600080fd5b506103b260048036038101906103ad91906130ee565b610f4b565b6040516103bf9190613abf565b60405180910390f35b3480156103d457600080fd5b506103ef60048036038101906103ea9190612e2b565b610ffd565b6040516103fc9190613e67565b60405180910390f35b34801561041157600080fd5b5061042c60048036038101906104279190612e2b565b6110b5565b6040516104399190613b48565b60405180910390f35b34801561044e57600080fd5b50610469600480360381019061046491906130ee565b611152565b6040516104769190613b85565b60405180910390f35b34801561048b57600080fd5b5061049461124f565b6040516104a19190613b85565b60405180910390f35b3480156104b657600080fd5b506104d160048036038101906104cc9190612f96565b6112e1565b6040516104de9190613e67565b60405180910390f35b3480156104f357600080fd5b5061050e60048036038101906105099190612f5a565b6116c7565b005b34801561051c57600080fd5b5061053760048036038101906105329190612edf565b611848565b005b34801561054557600080fd5b50610560600480360381019061055b91906130ee565b6118aa565b60405161056d9190613b85565b60405180910390f35b34801561058257600080fd5b5061059d600480360381019061059891906130ee565b6118e9565b6040516105aa9190613abf565b60405180910390f35b3480156105bf57600080fd5b506105da60048036038101906105d591906130ee565b61196e565b6040516105e79190613b85565b60405180910390f35b3480156105fc57600080fd5b50610617600480360381019061061291906130ee565b611a4a565b6040516106249190613b26565b60405180910390f35b34801561063957600080fd5b50610654600480360381019061064f91906130ee565b611af1565b6040516106619190613e67565b60405180910390f35b34801561067657600080fd5b50610691600480360381019061068c9190612e54565b611b56565b60405161069e9190613b6a565b60405180910390f35b60007f80ac58cd000000000000000000000000000000000000000000000000000000007bffffffffffffffffffffffffffffffffffffffffffffffffffffffff1916827bffffffffffffffffffffffffffffffffffffffffffffffffffffffff1916148061077257507f5b5e139f000000000000000000000000000000000000000000000000000000007bffffffffffffffffffffffffffffffffffffffffffffffffffffffff1916827bffffffffffffffffffffffffffffffffffffffffffffffffffffffff1916145b80610782575061078182611bea565b5b9050919050565b60606000805461079890614139565b80601f01602080910402602001604051908101604052809291908181526020018280546107c490614139565b80156108115780601f106107e657610100808354040283529160200191610811565b820191906000526020600020905b8154815290600101906020018083116107f457829003601f168201915b5050505050905090565b600061082682611c54565b610865576040517f08c379a000000000000000000000000000000000000000000000000000000000815260040161085c90613d87565b60405180910390fd5b6004600083815260200190815260200160002060009054906101000a900473ffffffffffffffffffffffffffffffffffffffff169050919050565b60006108ab82610f4b565b90508073ffffffffffffffffffffffffffffffffffffffff168373ffffffffffffffffffffffffffffffffffffffff16141561091c576040517f08c379a000000000000000000000000000000000000000000000000000000000815260040161091390613e07565b60405180910390fd5b8073ffffffffffffffffffffffffffffffffffffffff1661093b611cc0565b73ffffffffffffffffffffffffffffffffffffffff16148061096a575061096981610964611cc0565b611b56565b5b6109a9576040517f08c379a00000000000000000000000000000000000000000000000000000000081526004016109a090613ca7565b60405180910390fd5b6109b38383611cc8565b505050565b6109c96109c3611cc0565b82611d81565b610a08576040517f08c379a00000000000000000000000000000000000000000000000000000000081526004016109ff90613e47565b60405180910390fd5b610a13838383611e5f565b505050565b6000610a2383611c54565b610a62576040517f08c379a0000000000000000000000000000000000000000000000000000000008152600401610a5990613da7565b60405180910390fd5b6000600e6000858152602001908152602001600020549050808314610abc576040517f08c379a0000000000000000000000000000000000000000000000000000000008152600401610ab390613d27565b60405180910390fd5b6001600c60008773ffffffffffffffffffffffffffffffffffffffff1673ffffffffffffffffffffffffffffffffffffffff168152602001908152602001600020600086815260200190815260200160002060006101000a81548160ff0219169083151502179055506001600d600086815260200190815260200160002060008773ffffffffffffffffffffffffffffffffffffffff1673ffffffffffffffffffffffffffffffffffffffff16815260200190815260200160002060006101000a81548160ff021916908315150217905550600f60008673ffffffffffffffffffffffffffffffffffffffff1673ffffffffffffffffffffffffffffffffffffffff16815260200190815260200160002084908060018154018082558091505060019003906000526020600020016000909190919091505560106000858152602001908152602001600020859080600181540180825580915050600190039060005260206000200160009091909190916101000a81548173ffffffffffffffffffffffffffffffffffffffff021916908373ffffffffffffffffffffffffffffffffffffffff16021790555060019150509392505050565b606060006009805480602002602001604051908101604052809291908181526020018280548015610cc457602002820191906000526020600020905b815481526020019060010190808311610cb0575b505050505090508091505090565b6000610cdd83611c54565b610d1c576040517f08c379a0000000000000000000000000000000000000000000000000000000008152600401610d1390613da7565b60405180910390fd5b60003390506000610d2c85610f4b565b90508173ffffffffffffffffffffffffffffffffffffffff168173ffffffffffffffffffffffffffffffffffffffff1614610d9c576040517f08c379a0000000000000000000000000000000000000000000000000000000008152600401610d9390613c67565b60405180910390fd5b836011600087815260200190815260200160002060006101000a81548173ffffffffffffffffffffffffffffffffffffffff021916908373ffffffffffffffffffffffffffffffffffffffff16021790555060019250505092915050565b610e1583838360405180602001604052806000815250611848565b505050565b60606000600f60008473ffffffffffffffffffffffffffffffffffffffff1673ffffffffffffffffffffffffffffffffffffffff168152602001908152602001600020805480602002602001604051908101604052809291908181526020018280548015610ea757602002820191906000526020600020905b815481526020019060010190808311610e93575b5050505050905080915050919050565b606060006008805480602002602001604051908101604052809291908181526020018280548015610f3d57602002820191906000526020600020905b8160009054906101000a900473ffffffffffffffffffffffffffffffffffffffff1673ffffffffffffffffffffffffffffffffffffffff1681526020019060010190808311610ef3575b505050505090508091505090565b6000806002600084815260200190815260200160002060009054906101000a900473ffffffffffffffffffffffffffffffffffffffff169050600073ffffffffffffffffffffffffffffffffffffffff168173ffffffffffffffffffffffffffffffffffffffff161415610ff4576040517f08c379a0000000000000000000000000000000000000000000000000000000008152600401610feb90613ce7565b60405180910390fd5b80915050919050565b60008073ffffffffffffffffffffffffffffffffffffffff168273ffffffffffffffffffffffffffffffffffffffff16141561106e576040517f08c379a000000000000000000000000000000000000000000000000000000000815260040161106590613cc7565b60405180910390fd5b600360008373ffffffffffffffffffffffffffffffffffffffff1673ffffffffffffffffffffffffffffffffffffffff168152602001908152602001600020549050919050565b60606000601260008473ffffffffffffffffffffffffffffffffffffffff1673ffffffffffffffffffffffffffffffffffffffff16815260200190815260200160002080548060200260200160405190810160405280929190818152602001828054801561114257602002820191906000526020600020905b81548152602001906001019080831161112e575b5050505050905080915050919050565b606061115d82611c54565b61119c576040517f08c379a000000000000000000000000000000000000000000000000000000000815260040161119390613da7565b60405180910390fd5b6000339050600c60008273ffffffffffffffffffffffffffffffffffffffff1673ffffffffffffffffffffffffffffffffffffffff168152602001908152602001600020600084815260200190815260200160002060009054906101000a900460ff1661123e576040517f08c379a000000000000000000000000000000000000000000000000000000000815260040161123590613c47565b60405180910390fd5b611247836120bb565b915050919050565b60606001805461125e90614139565b80601f016020809104026020016040519081016040528092919081815260200182805461128a90614139565b80156112d75780601f106112ac576101008083540402835291602001916112d7565b820191906000526020600020905b8154815290600101906020018083116112ba57829003601f168201915b5050505050905090565b600080600b60008773ffffffffffffffffffffffffffffffffffffffff1673ffffffffffffffffffffffffffffffffffffffff1681526020019081526020016000205414156113d25782600b60008773ffffffffffffffffffffffffffffffffffffffff1673ffffffffffffffffffffffffffffffffffffffff168152602001908152602001600020819055506008859080600181540180825580915050600190039060005260206000200160009091909190916101000a81548173ffffffffffffffffffffffffffffffffffffffff021916908373ffffffffffffffffffffffffffffffffffffffff1602179055505b60006113dd86610ffd565b90506000600b60008873ffffffffffffffffffffffffffffffffffffffff1673ffffffffffffffffffffffffffffffffffffffff16815260200190815260200160002054905081811115611674576000611437600761220d565b90506001816114469190613fc8565b905061145181611c54565b15611491576040517f08c379a000000000000000000000000000000000000000000000000000000000815260040161148890613da7565b60405180910390fd5b6001151561149f898361221b565b1515146114e1576040517f08c379a00000000000000000000000000000000000000000000000000000000081526004016114d890613e27565b60405180910390fd5b86600a60008381526020019081526020016000209080519060200190611508929190612c4f565b50611513888261242f565b61151d60076125fd565b6115c281600a6000848152602001908152602001600020805461153f90614139565b80601f016020809104026020016040519081016040528092919081815260200182805461156b90614139565b80156115b85780601f1061158d576101008083540402835291602001916115b8565b820191906000526020600020905b81548152906001019060200180831161159b57829003601f168201915b5050505050612613565b84600e6000838152602001908152602001600020819055506009819080600181540180825580915050600190039060005260206000200160009091909190915055601260008973ffffffffffffffffffffffffffffffffffffffff1673ffffffffffffffffffffffffffffffffffffffff1681526020019081526020016000208190806001815401808255809150506001900390600052602060002001600090919091909150558093505050506116bf565b60006001146116b8576040517f08c379a00000000000000000000000000000000000000000000000000000000081526004016116af90613ba7565b60405180910390fd5b6001925050505b949350505050565b6116cf611cc0565b73ffffffffffffffffffffffffffffffffffffffff168273ffffffffffffffffffffffffffffffffffffffff16141561173d576040517f08c379a000000000000000000000000000000000000000000000000000000000815260040161173490613c27565b60405180910390fd5b806005600061174a611cc0565b73ffffffffffffffffffffffffffffffffffffffff1673ffffffffffffffffffffffffffffffffffffffff16815260200190815260200160002060008473ffffffffffffffffffffffffffffffffffffffff1673ffffffffffffffffffffffffffffffffffffffff16815260200190815260200160002060006101000a81548160ff0219169083151502179055508173ffffffffffffffffffffffffffffffffffffffff166117f7611cc0565b73ffffffffffffffffffffffffffffffffffffffff167f17307eab39ab6107e8899845ad3d59bd9653f200f220920489ca2b5937696c318360405161183c9190613b6a565b60405180910390a35050565b611859611853611cc0565b83611d81565b611898576040517f08c379a000000000000000000000000000000000000000000000000000000000815260040161188f90613e47565b60405180910390fd5b6118a484848484612687565b50505050565b60606040518060400160405280600581526020017f626562616b0000000000000000000000000000000000000000000000000000008152509050919050565b60006118f482611c54565b611933576040517f08c379a000000000000000000000000000000000000000000000000000000000815260040161192a90613da7565b60405180910390fd5b6011600083815260200190815260200160002060009054906101000a900473ffffffffffffffffffffffffffffffffffffffff169050919050565b606061197982611c54565b6119b8576040517f08c379a00000000000000000000000000000000000000000000000000000000081526004016119af90613da7565b60405180910390fd5b600033905060006119c884610f4b565b90508173ffffffffffffffffffffffffffffffffffffffff168173ffffffffffffffffffffffffffffffffffffffff1614611a38576040517f08c379a0000000000000000000000000000000000000000000000000000000008152600401611a2f90613c67565b60405180910390fd5b611a41846120bb565b92505050919050565b6060600060106000848152602001908152602001600020805480602002602001604051908101604052809291908181526020018280548015611ae157602002820191906000526020600020905b8160009054906101000a900473ffffffffffffffffffffffffffffffffffffffff1673ffffffffffffffffffffffffffffffffffffffff1681526020019060010190808311611a97575b5050505050905080915050919050565b6000611afc82611c54565b611b3b576040517f08c379a0000000000000000000000000000000000000000000000000000000008152600401611b3290613da7565b60405180910390fd5b600e6000838152602001908152602001600020549050919050565b6000600560008473ffffffffffffffffffffffffffffffffffffffff1673ffffffffffffffffffffffffffffffffffffffff16815260200190815260200160002060008373ffffffffffffffffffffffffffffffffffffffff1673ffffffffffffffffffffffffffffffffffffffff16815260200190815260200160002060009054906101000a900460ff16905092915050565b60007f01ffc9a7000000000000000000000000000000000000000000000000000000007bffffffffffffffffffffffffffffffffffffffffffffffffffffffff1916827bffffffffffffffffffffffffffffffffffffffffffffffffffffffff1916149050919050565b60008073ffffffffffffffffffffffffffffffffffffffff166002600084815260200190815260200160002060009054906101000a900473ffffffffffffffffffffffffffffffffffffffff1673ffffffffffffffffffffffffffffffffffffffff1614159050919050565b600033905090565b816004600083815260200190815260200160002060006101000a81548173ffffffffffffffffffffffffffffffffffffffff021916908373ffffffffffffffffffffffffffffffffffffffff160217905550808273ffffffffffffffffffffffffffffffffffffffff16611d3b83610f4b565b73ffffffffffffffffffffffffffffffffffffffff167f8c5be1e5ebec7d5bd14f71427d1e84f3dd0314c0f7b2291e5b200ac8c7c3b92560405160405180910390a45050565b6000611d8c82611c54565b611dcb576040517f08c379a0000000000000000000000000000000000000000000000000000000008152600401611dc290613c87565b60405180910390fd5b6000611dd683610f4b565b90508073ffffffffffffffffffffffffffffffffffffffff168473ffffffffffffffffffffffffffffffffffffffff161480611e4557508373ffffffffffffffffffffffffffffffffffffffff16611e2d8461081b565b73ffffffffffffffffffffffffffffffffffffffff16145b80611e565750611e558185611b56565b5b91505092915050565b8273ffffffffffffffffffffffffffffffffffffffff16611e7f82610f4b565b73ffffffffffffffffffffffffffffffffffffffff1614611ed5576040517f08c379a0000000000000000000000000000000000000000000000000000000008152600401611ecc90613dc7565b60405180910390fd5b600073ffffffffffffffffffffffffffffffffffffffff168273ffffffffffffffffffffffffffffffffffffffff161415611f45576040517f08c379a0000000000000000000000000000000000000000000000000000000008152600401611f3c90613c07565b60405180910390fd5b611f508383836126e3565b611f5b600082611cc8565b6001600360008573ffffffffffffffffffffffffffffffffffffffff1673ffffffffffffffffffffffffffffffffffffffff1681526020019081526020016000206000828254611fab919061404f565b925050819055506001600360008473ffffffffffffffffffffffffffffffffffffffff1673ffffffffffffffffffffffffffffffffffffffff16815260200190815260200160002060008282546120029190613fc8565b92505081905550816002600083815260200190815260200160002060006101000a81548173ffffffffffffffffffffffffffffffffffffffff021916908373ffffffffffffffffffffffffffffffffffffffff160217905550808273ffffffffffffffffffffffffffffffffffffffff168473ffffffffffffffffffffffffffffffffffffffff167fddf252ad1be2c89b69c2b068fc378daa952ba7f163c4a11628f55a4df523b3ef60405160405180910390a4505050565b60606120c682611c54565b612105576040517f08c379a00000000000000000000000000000000000000000000000000000000081526004016120fc90613da7565b60405180910390fd5b6000600a6000848152602001908152602001600020805461212590614139565b80601f016020809104026020016040519081016040528092919081815260200182805461215190614139565b801561219e5780601f106121735761010080835404028352916020019161219e565b820191906000526020600020905b81548152906001019060200180831161218157829003601f168201915b5050505050905060006121af6126e8565b90506000815114156121c5578192505050612208565b6000825111156121fa5780826040516020016121e2929190613a9b565b60405160208183030381529060405292505050612208565b612203846126ff565b925050505b919050565b600081600001549050919050565b60006001600c60008573ffffffffffffffffffffffffffffffffffffffff1673ffffffffffffffffffffffffffffffffffffffff168152602001908152602001600020600084815260200190815260200160002060006101000a81548160ff0219169083151502179055506001600d600084815260200190815260200160002060008573ffffffffffffffffffffffffffffffffffffffff1673ffffffffffffffffffffffffffffffffffffffff16815260200190815260200160002060006101000a81548160ff021916908315150217905550600f60008473ffffffffffffffffffffffffffffffffffffffff1673ffffffffffffffffffffffffffffffffffffffff16815260200190815260200160002082908060018154018082558091505060019003906000526020600020016000909190919091505560106000838152602001908152602001600020839080600181540180825580915050600190039060005260206000200160009091909190916101000a81548173ffffffffffffffffffffffffffffffffffffffff021916908373ffffffffffffffffffffffffffffffffffffffff160217905550600c60008473ffffffffffffffffffffffffffffffffffffffff1673ffffffffffffffffffffffffffffffffffffffff168152602001908152602001600020600083815260200190815260200160002060009054906101000a900460ff16905092915050565b600073ffffffffffffffffffffffffffffffffffffffff168273ffffffffffffffffffffffffffffffffffffffff16141561249f576040517f08c379a000000000000000000000000000000000000000000000000000000000815260040161249690613d47565b60405180910390fd5b6124a881611c54565b156124e8576040517f08c379a00000000000000000000000000000000000000000000000000000000081526004016124df90613be7565b60405180910390fd5b6124f4600083836126e3565b6001600360008473ffffffffffffffffffffffffffffffffffffffff1673ffffffffffffffffffffffffffffffffffffffff16815260200190815260200160002060008282546125449190613fc8565b92505081905550816002600083815260200190815260200160002060006101000a81548173ffffffffffffffffffffffffffffffffffffffff021916908373ffffffffffffffffffffffffffffffffffffffff160217905550808273ffffffffffffffffffffffffffffffffffffffff16600073ffffffffffffffffffffffffffffffffffffffff167fddf252ad1be2c89b69c2b068fc378daa952ba7f163c4a11628f55a4df523b3ef60405160405180910390a45050565b6001816000016000828254019250508190555050565b61261c82611c54565b61265b576040517f08c379a000000000000000000000000000000000000000000000000000000000815260040161265290613d07565b60405180910390fd5b80600660008481526020019081526020016000209080519060200190612682929190612c4f565b505050565b612692848484611e5f565b61269e84848484612851565b6126dd576040517f08c379a00000000000000000000000000000000000000000000000000000000081526004016126d490613bc7565b60405180910390fd5b50505050565b505050565b606060405180602001604052806000815250905090565b606061270a82611c54565b612749576040517f08c379a000000000000000000000000000000000000000000000000000000000815260040161274090613d67565b60405180910390fd5b600060066000848152602001908152602001600020805461276990614139565b80601f016020809104026020016040519081016040528092919081815260200182805461279590614139565b80156127e25780601f106127b7576101008083540402835291602001916127e2565b820191906000526020600020905b8154815290600101906020018083116127c557829003601f168201915b5050505050905060006127f36126e8565b905060008151141561280957819250505061284c565b60008251111561283e578082604051602001612826929190613a9b565b6040516020818303038152906040529250505061284c565b612847846129e8565b925050505b919050565b60006128728473ffffffffffffffffffffffffffffffffffffffff16612a8f565b156129db578373ffffffffffffffffffffffffffffffffffffffff1663150b7a0261289b611cc0565b8786866040518563ffffffff1660e01b81526004016128bd9493929190613ada565b602060405180830381600087803b1580156128d757600080fd5b505af192505050801561290857506040513d601f19601f8201168201806040525081019061290591906130c5565b60015b61298b573d8060008114612938576040519150601f19603f3d011682016040523d82523d6000602084013e61293d565b606091505b50600081511415612983576040517f08c379a000000000000000000000000000000000000000000000000000000000815260040161297a90613bc7565b60405180910390fd5b805181602001fd5b63150b7a0260e01b7bffffffffffffffffffffffffffffffffffffffffffffffffffffffff1916817bffffffffffffffffffffffffffffffffffffffffffffffffffffffff1916149150506129e0565b600190505b949350505050565b60606129f382611c54565b612a32576040517f08c379a0000000000000000000000000000000000000000000000000000000008152600401612a2990613de7565b60405180910390fd5b6000612a3c6126e8565b90506000815111612a5c5760405180602001604052806000815250612a87565b80612a6684612aa2565b604051602001612a77929190613a9b565b6040516020818303038152906040525b915050919050565b600080823b905060008111915050919050565b60606000821415612aea576040518060400160405280600181526020017f30000000000000000000000000000000000000000000000000000000000000008152509050612c4a565b600082905060005b60008214612b1c578080612b059061416b565b915050600a82612b15919061401e565b9150612af2565b60008167ffffffffffffffff811115612b5e577f4e487b7100000000000000000000000000000000000000000000000000000000600052604160045260246000fd5b6040519080825280601f01601f191660200182016040528015612b905781602001600182028036833780820191505090505b5090505b60008514612c4357600182612ba9919061404f565b9150600a85612bb891906141b4565b6030612bc49190613fc8565b60f81b818381518110612c00577f4e487b7100000000000000000000000000000000000000000000000000000000600052603260045260246000fd5b60200101907effffffffffffffffffffffffffffffffffffffffffffffffffffffffffffff1916908160001a905350600a85612c3c919061401e565b9450612b94565b8093505050505b919050565b828054612c5b90614139565b90600052602060002090601f016020900481019282612c7d5760008555612cc4565b82601f10612c9657805160ff1916838001178555612cc4565b82800160010185558215612cc4579182015b82811115612cc3578251825591602001919060010190612ca8565b5b509050612cd19190612cd5565b5090565b5b80821115612cee576000816000905550600101612cd6565b5090565b6000612d05612d0084613eb3565b613e82565b905082815260208101848484011115612d1d57600080fd5b612d288482856140f7565b509392505050565b6000612d43612d3e84613ee3565b613e82565b905082815260208101848484011115612d5b57600080fd5b612d668482856140f7565b509392505050565b600081359050612d7d816142b2565b92915050565b600081359050612d92816142c9565b92915050565b600081359050612da7816142e0565b92915050565b600081519050612dbc816142e0565b92915050565b600082601f830112612dd357600080fd5b8135612de3848260208601612cf2565b91505092915050565b600082601f830112612dfd57600080fd5b8135612e0d848260208601612d30565b91505092915050565b600081359050612e25816142f7565b92915050565b600060208284031215612e3d57600080fd5b6000612e4b84828501612d6e565b91505092915050565b60008060408385031215612e6757600080fd5b6000612e7585828601612d6e565b9250506020612e8685828601612d6e565b9150509250929050565b600080600060608486031215612ea557600080fd5b6000612eb386828701612d6e565b9350506020612ec486828701612d6e565b9250506040612ed586828701612e16565b9150509250925092565b60008060008060808587031215612ef557600080fd5b6000612f0387828801612d6e565b9450506020612f1487828801612d6e565b9350506040612f2587828801612e16565b925050606085013567ffffffffffffffff811115612f4257600080fd5b612f4e87828801612dc2565b91505092959194509250565b60008060408385031215612f6d57600080fd5b6000612f7b85828601612d6e565b9250506020612f8c85828601612d83565b9150509250929050565b60008060008060808587031215612fac57600080fd5b6000612fba87828801612d6e565b945050602085013567ffffffffffffffff811115612fd757600080fd5b612fe387828801612dec565b9350506040612ff487828801612e16565b925050606061300587828801612e16565b91505092959194509250565b6000806040838503121561302457600080fd5b600061303285828601612d6e565b925050602061304385828601612e16565b9150509250929050565b60008060006060848603121561306257600080fd5b600061307086828701612d6e565b935050602061308186828701612e16565b925050604061309286828701612e16565b9150509250925092565b6000602082840312156130ae57600080fd5b60006130bc84828501612d98565b91505092915050565b6000602082840312156130d757600080fd5b60006130e584828501612dad565b91505092915050565b60006020828403121561310057600080fd5b600061310e84828501612e16565b91505092915050565b6000806040838503121561312a57600080fd5b600061313885828601612e16565b925050602061314985828601612d6e565b9150509250929050565b600061315f8383613183565b60208301905092915050565b60006131778383613a7d565b60208301905092915050565b61318c81614083565b82525050565b61319b81614083565b82525050565b60006131ac82613f33565b6131b68185613f79565b93506131c183613f13565b8060005b838110156131f25781516131d98882613153565b97506131e483613f5f565b9250506001810190506131c5565b5085935050505092915050565b600061320a82613f3e565b6132148185613f8a565b935061321f83613f23565b8060005b83811015613250578151613237888261316b565b975061324283613f6c565b925050600181019050613223565b5085935050505092915050565b61326681614095565b82525050565b600061327782613f49565b6132818185613f9b565b9350613291818560208601614106565b61329a816142a1565b840191505092915050565b60006132b082613f54565b6132ba8185613fac565b93506132ca818560208601614106565b6132d3816142a1565b840191505092915050565b60006132e982613f54565b6132f38185613fbd565b9350613303818560208601614106565b80840191505092915050565b600061331c600f83613fac565b91507f42616c616e636520426f756e63656400000000000000000000000000000000006000830152602082019050919050565b600061335c603283613fac565b91507f4552433732313a207472616e7366657220746f206e6f6e20455243373231526560008301527f63656976657220696d706c656d656e74657200000000000000000000000000006020830152604082019050919050565b60006133c2601c83613fac565b91507f4552433732313a20746f6b656e20616c7265616479206d696e746564000000006000830152602082019050919050565b6000613402602483613fac565b91507f4552433732313a207472616e7366657220746f20746865207a65726f2061646460008301527f72657373000000000000000000000000000000000000000000000000000000006020830152604082019050919050565b6000613468601983613fac565b91507f4552433732313a20617070726f766520746f2063616c6c6572000000000000006000830152602082019050919050565b60006134a8601083613fac565b91507f6e6f74616c6c6f77656420746f6b656e000000000000000000000000000000006000830152602082019050919050565b60006134e8600e83613fac565b91507f696e76616c6964206163636573730000000000000000000000000000000000006000830152602082019050919050565b6000613528602c83613fac565b91507f4552433732313a206f70657261746f7220717565727920666f72206e6f6e657860008301527f697374656e7420746f6b656e00000000000000000000000000000000000000006020830152604082019050919050565b600061358e603883613fac565b91507f4552433732313a20617070726f76652063616c6c6572206973206e6f74206f7760008301527f6e6572206e6f7220617070726f76656420666f7220616c6c00000000000000006020830152604082019050919050565b60006135f4602a83613fac565b91507f4552433732313a2062616c616e636520717565727920666f7220746865207a6560008301527f726f2061646472657373000000000000000000000000000000000000000000006020830152604082019050919050565b600061365a602983613fac565b91507f4552433732313a206f776e657220717565727920666f72206e6f6e657869737460008301527f656e7420746f6b656e00000000000000000000000000000000000000000000006020830152604082019050919050565b60006136c0602e83613fac565b91507f45524337323155524953746f726167653a2055524920736574206f66206e6f6e60008301527f6578697374656e7420746f6b656e0000000000000000000000000000000000006020830152604082019050919050565b6000613726600d83613fac565b91507f496e76616c6964205072696365000000000000000000000000000000000000006000830152602082019050919050565b6000613766602083613fac565b91507f4552433732313a206d696e7420746f20746865207a65726f20616464726573736000830152602082019050919050565b60006137a6603183613fac565b91507f45524337323155524953746f726167653a2055524920717565727920666f722060008301527f6e6f6e6578697374656e7420746f6b656e0000000000000000000000000000006020830152604082019050919050565b600061380c602c83613fac565b91507f4552433732313a20617070726f76656420717565727920666f72206e6f6e657860008301527f697374656e7420746f6b656e00000000000000000000000000000000000000006020830152604082019050919050565b6000613872601183613fac565b91507f6e6f6e6578697374656e7420746f6b656e0000000000000000000000000000006000830152602082019050919050565b60006138b2602983613fac565b91507f4552433732313a207472616e73666572206f6620746f6b656e2074686174206960008301527f73206e6f74206f776e00000000000000000000000000000000000000000000006020830152604082019050919050565b6000613918602f83613fac565b91507f4552433732314d657461646174613a2055524920717565727920666f72206e6f60008301527f6e6578697374656e7420746f6b656e00000000000000000000000000000000006020830152604082019050919050565b600061397e602183613fac565b91507f4552433732313a20617070726f76616c20746f2063757272656e74206f776e6560008301527f72000000000000000000000000000000000000000000000000000000000000006020830152604082019050919050565b60006139e4600983613fac565b91507f6e6f74206275726e7400000000000000000000000000000000000000000000006000830152602082019050919050565b6000613a24603183613fac565b91507f4552433732313a207472616e736665722063616c6c6572206973206e6f74206f60008301527f776e6572206e6f7220617070726f7665640000000000000000000000000000006020830152604082019050919050565b613a86816140ed565b82525050565b613a95816140ed565b82525050565b6000613aa782856132de565b9150613ab382846132de565b91508190509392505050565b6000602082019050613ad46000830184613192565b92915050565b6000608082019050613aef6000830187613192565b613afc6020830186613192565b613b096040830185613a8c565b8181036060830152613b1b818461326c565b905095945050505050565b60006020820190508181036000830152613b4081846131a1565b905092915050565b60006020820190508181036000830152613b6281846131ff565b905092915050565b6000602082019050613b7f600083018461325d565b92915050565b60006020820190508181036000830152613b9f81846132a5565b905092915050565b60006020820190508181036000830152613bc08161330f565b9050919050565b60006020820190508181036000830152613be08161334f565b9050919050565b60006020820190508181036000830152613c00816133b5565b9050919050565b60006020820190508181036000830152613c20816133f5565b9050919050565b60006020820190508181036000830152613c408161345b565b9050919050565b60006020820190508181036000830152613c608161349b565b9050919050565b60006020820190508181036000830152613c80816134db565b9050919050565b60006020820190508181036000830152613ca08161351b565b9050919050565b60006020820190508181036000830152613cc081613581565b9050919050565b60006020820190508181036000830152613ce0816135e7565b9050919050565b60006020820190508181036000830152613d008161364d565b9050919050565b60006020820190508181036000830152613d20816136b3565b9050919050565b60006020820190508181036000830152613d4081613719565b9050919050565b60006020820190508181036000830152613d6081613759565b9050919050565b60006020820190508181036000830152613d8081613799565b9050919050565b60006020820190508181036000830152613da0816137ff565b9050919050565b60006020820190508181036000830152613dc081613865565b9050919050565b60006020820190508181036000830152613de0816138a5565b9050919050565b60006020820190508181036000830152613e008161390b565b9050919050565b60006020820190508181036000830152613e2081613971565b9050919050565b60006020820190508181036000830152613e40816139d7565b9050919050565b60006020820190508181036000830152613e6081613a17565b9050919050565b6000602082019050613e7c6000830184613a8c565b92915050565b6000604051905081810181811067ffffffffffffffff82111715613ea957613ea8614272565b5b8060405250919050565b600067ffffffffffffffff821115613ece57613ecd614272565b5b601f19601f8301169050602081019050919050565b600067ffffffffffffffff821115613efe57613efd614272565b5b601f19601f8301169050602081019050919050565b6000819050602082019050919050565b6000819050602082019050919050565b600081519050919050565b600081519050919050565b600081519050919050565b600081519050919050565b6000602082019050919050565b6000602082019050919050565b600082825260208201905092915050565b600082825260208201905092915050565b600082825260208201905092915050565b600082825260208201905092915050565b600081905092915050565b6000613fd3826140ed565b9150613fde836140ed565b9250827fffffffffffffffffffffffffffffffffffffffffffffffffffffffffffffffff03821115614013576140126141e5565b5b828201905092915050565b6000614029826140ed565b9150614034836140ed565b92508261404457614043614214565b5b828204905092915050565b600061405a826140ed565b9150614065836140ed565b925082821015614078576140776141e5565b5b828203905092915050565b600061408e826140cd565b9050919050565b60008115159050919050565b60007fffffffff0000000000000000000000000000000000000000000000000000000082169050919050565b600073ffffffffffffffffffffffffffffffffffffffff82169050919050565b6000819050919050565b82818337600083830152505050565b60005b83811015614124578082015181840152602081019050614109565b83811115614133576000848401525b50505050565b6000600282049050600182168061415157607f821691505b6020821081141561416557614164614243565b5b50919050565b6000614176826140ed565b91507fffffffffffffffffffffffffffffffffffffffffffffffffffffffffffffffff8214156141a9576141a86141e5565b5b600182019050919050565b60006141bf826140ed565b91506141ca836140ed565b9250826141da576141d9614214565b5b828206905092915050565b7f4e487b7100000000000000000000000000000000000000000000000000000000600052601160045260246000fd5b7f4e487b7100000000000000000000000000000000000000000000000000000000600052601260045260246000fd5b7f4e487b7100000000000000000000000000000000000000000000000000000000600052602260045260246000fd5b7f4e487b7100000000000000000000000000000000000000000000000000000000600052604160045260246000fd5b6000601f19601f8301169050919050565b6142bb81614083565b81146142c657600080fd5b50565b6142d281614095565b81146142dd57600080fd5b50565b6142e9816140a1565b81146142f457600080fd5b50565b614300816140ed565b811461430b57600080fd5b5056fea264697066735822122061c11ab5f2572107374df96b4d5a248ce198c3c6b749c6ea374531a80c1c92a564736f6c63430008000033",
  "immutableReferences": {},
  "source": "// SPDX-License-Identifier: MIT\r\npragma solidity ^0.8.0;\r\n\r\nimport \"@openzeppelin/contracts/token/ERC721/extensions/ERC721URIStorage.sol\";\r\nimport \"@openzeppelin/contracts/utils/Counters.sol\";\r\n\r\n\r\ncontract GenesisContract is ERC721URIStorage {\r\n\r\nusing Counters for Counters.Counter;\r\n  Counters.Counter private _tokenIds;\r\n  \r\n\r\n  address[] ownerAddresses;               // total minted Address\r\n  uint256[] tokenList;                  // total minted Tokens\r\n  mapping(uint256 => string) hashes;                                        \t// tokenId=>IPFS\r\n  mapping(address => uint256) ownerCap;                                     \t// maximum deployed NFT\r\n  mapping(address=>mapping(uint256=>bool)) hashesLayersAllowed;             \t// address=>TokenId ==true! false \r\n  mapping(uint256=>mapping(address=>bool)) hashesLayersAllowedByTokenId;    \t// tokenID=>address == true! false\r\n  mapping(uint256=>uint256) tokenPriceHash;                                 \t// tokenId=>Price\r\n  mapping(address=>uint[]) hashesLayersAllowedCount;\t\t\t\t\t\t\t// address=>TokenId , TOTAL TOKENS\r\n  mapping(uint256=>address[]) hashesLayersAllowedByTokenIdCount;   // TokenID=>Address , TOTAL Viewers\r\n  mapping(uint256=>address) customeErc20;\r\n  mapping(address=>uint[]) mytokens;\r\n  \r\n  \r\n \r\nconstructor() public ERC721(\"MYTCAIBC\", \"MYTCAIBC\") {}\r\n\r\n\tfunction awardItem(address recipient, string memory hash,uint256 _length,uint256 price)  public  returns (uint256)\r\n\t{\r\n\t  if(ownerCap[recipient]==0) { ownerCap[recipient]=_length; ownerAddresses.push(recipient);  }\r\n\t \r\n\t\tuint256 bal=balanceOf(recipient);\r\n\t    uint256 cap=ownerCap[recipient];\r\n\t\tif(cap>bal)\r\n\t\t\t{\r\n\t\t\t\r\n\t\t\t\tuint256 newItemId = _tokenIds.current();\t\t\t\t// get Last Existing Token\r\n\t\t\t\tnewItemId=newItemId+1;\t\t\t\t\t\t\t\t\t// increment in our menory not in existing menory\r\n\t\t\t\trequire(!_exists(newItemId), \"nonexistent token\");\t\t// if token no exist then terminate\r\n\t\t\t\trequire(addViewer(recipient,newItemId)==true,\"not burnt\");\t//\tadd tokenId to Mapping for fetch records (allowed buffer who will see)\r\n\t\t\t\thashes[newItemId] = hash;\t\t\t\t\t\t\t\t\t// mapping token=>IPFS Hass code\r\n\t\t\t\t_mint(recipient, newItemId);\r\n\t\t\t\t_tokenIds.increment();\t\t\t\t\t\t\t\t\t\t// my above increment will reflect to existing increament\r\n\t\t\t\t_setTokenURI(newItemId, hashes[newItemId]);  \t\t\t    // toekenId=>IPFS Hash\r\n\t\t\t\ttokenPriceHash[newItemId]=price;\r\n\t\t\t\ttokenList.push(newItemId);\r\n\t\t\t\tmytokens[recipient].push(newItemId);\r\n\t\t\t\treturn newItemId;\r\n\t\t\t}\r\n\t\telse require(1==0, \"Balance Bounced\");\t\r\n\t    return 1;\r\n\t}\r\n\tfunction getPrice(uint256 tokenId) public view returns(uint256)\r\n\t{\r\n\t\t   require(_exists(tokenId), \"nonexistent token\");\r\n\t\t   return tokenPriceHash[tokenId];\r\n\t}\r\n\tfunction tokenURI(uint256 tokenId) public view virtual override returns (string memory) {\r\n\t    return \"bebak\";\r\n\t}\r\n\t\r\n\tfunction getToken(uint256 tokenId) private view returns(string memory)\r\n\t{\r\n\t    require(_exists(tokenId), \"nonexistent token\");\r\n\t    string memory _tokenURI = hashes[tokenId];\r\n        string memory base = _baseURI();\r\n\r\n        // If there is no base URI, return the token URI.\r\n        if (bytes(base).length == 0) {\r\n            return _tokenURI;\r\n        }\r\n        // If both are set, concatenate the baseURI and tokenURI (via abi.encodePacked).\r\n        if (bytes(_tokenURI).length > 0) {\r\n            return string(abi.encodePacked(base, _tokenURI));\r\n        }\r\n\r\n        return super.tokenURI(tokenId);\r\n\t}\r\n\t\r\n\tfunction getMyToken(uint256 tokenId) public view returns(string memory)\r\n\t{\r\n\t    require(_exists(tokenId), \"nonexistent token\");\r\n\t    address selfAddress=msg.sender;\r\n\t    address ownerAddress=ownerOf(tokenId);\r\n\t    require(ownerAddress==selfAddress,\"invalid access\");\r\n\t    return getToken(tokenId);\r\n\t    \r\n\t} \r\n\t\r\n\tfunction addViewer(address _viewerAddress,uint256 tokenId) private    returns(bool)\r\n\t{\r\n\t    \r\n\t    hashesLayersAllowed[_viewerAddress][tokenId]=true;\r\n\t\thashesLayersAllowedByTokenId[tokenId][_viewerAddress]=true;\r\n\t\t\r\n\t\thashesLayersAllowedCount[_viewerAddress].push(tokenId);\r\n\t\thashesLayersAllowedByTokenIdCount[tokenId].push(_viewerAddress);\r\n\t\t\r\n\t    return hashesLayersAllowed[_viewerAddress][tokenId];\r\n\t}\r\n\t\r\n\tfunction addRequestForView(address _viewerAddress,uint256 tokenId,uint256 price) public payable returns(bool)\r\n\t{\r\n\t\trequire(_exists(tokenId), \"nonexistent token\");\r\n\t    uint256 priceToken=tokenPriceHash[tokenId];\r\n\t\trequire(price==priceToken,\"Invalid Price\");\r\n\t\thashesLayersAllowed[_viewerAddress][tokenId]=true;\r\n\t\thashesLayersAllowedByTokenId[tokenId][_viewerAddress]=true;\r\n\t\t\r\n\t\thashesLayersAllowedCount[_viewerAddress].push(tokenId);\r\n\t\thashesLayersAllowedByTokenIdCount[tokenId].push(_viewerAddress);\r\n\t\t\r\n\t    return true;\r\n\t}\r\n\t\r\n\tfunction viewToken(uint256 tokenId) public view returns(string memory)\r\n\t{\r\n\t    require(_exists(tokenId), \"nonexistent token\");\r\n\t    address selfAddress=msg.sender;\r\n\t    require(hashesLayersAllowed[selfAddress][tokenId],\"notallowed token\");\r\n\t   \r\n\t    return getToken(tokenId);\r\n\t    \r\n\t} \r\n\tfunction getViewers(uint256 tokenId) public view returns( address[] memory)\r\n\t{\r\n\t    \r\n\t    address[] memory memoryArray =hashesLayersAllowedByTokenIdCount[tokenId];\r\n       \r\n        return memoryArray;\r\n\t    \r\n\t    \r\n\t} \r\n\tfunction getTokens(address _viewerAddress) public view returns(uint256[] memory)\r\n\t{\r\n\t    \r\n\t     uint256[] memory tokenIds =hashesLayersAllowedCount[_viewerAddress];\r\n       \r\n\t\t\treturn tokenIds;\r\n\t}\r\n\t\r\n\tfunction getTokensOwner(address _viewerAddress) public view returns(uint256[] memory)\r\n\t{\r\n\t    \r\n\t     uint256[] memory tokenIds =mytokens[_viewerAddress];\r\n       \r\n\t\t\treturn tokenIds;\r\n\t}\r\n\t\r\n    function getOwnerList() public view returns(address[] memory)\r\n    {\r\n        address[] memory X=ownerAddresses;\r\n        return X;\r\n    }\r\n    \r\n    function getTokenList() public view returns(uint256[] memory)\r\n    {\r\n        uint256[] memory Y=tokenList;\r\n        return Y;\r\n    }\r\n    \r\n    function setERC20Address(uint256 tokenId,address erc20Address) public returns (bool)\r\n\t{\r\n\t\t require(_exists(tokenId), \"nonexistent token\");\r\n\t\t address selfAddress=msg.sender;\r\n\t     address ownerAddress=ownerOf(tokenId);\r\n\t\t require(ownerAddress==selfAddress,\"invalid access\");\r\n\t\t customeErc20[tokenId]=erc20Address; return true;\r\n\t\t \r\n\t}\r\n\t\r\n\t function getERC20Address(uint256 tokenId) public view returns (address)\r\n\t{\r\n\t\t require(_exists(tokenId), \"nonexistent token\");\r\n\t\t return customeErc20[tokenId];\r\n\t\t \r\n\t}\r\n}",
  "sourcePath": "F:/Assignment/aibcccc/AIBC/contracts/GenesisContract.sol",
  "compiler": {
    "name": "solc",
    "version": "0.8.0+commit.c7dfd78e.Emscripten.clang"
  },
  "schemaVersion": "3.3.4",
  "updatedAt": "2021-05-19T09:51:34.317Z",
  "networkType": "ethereum",
  "devdoc": {
    "kind": "dev",
    "methods": {
      "approve(address,uint256)": {
        "details": "See {IERC721-approve}."
      },
      "balanceOf(address)": {
        "details": "See {IERC721-balanceOf}."
      },
      "getApproved(uint256)": {
        "details": "See {IERC721-getApproved}."
      },
      "isApprovedForAll(address,address)": {
        "details": "See {IERC721-isApprovedForAll}."
      },
      "name()": {
        "details": "See {IERC721Metadata-name}."
      },
      "ownerOf(uint256)": {
        "details": "See {IERC721-ownerOf}."
      },
      "safeTransferFrom(address,address,uint256)": {
        "details": "See {IERC721-safeTransferFrom}."
      },
      "safeTransferFrom(address,address,uint256,bytes)": {
        "details": "See {IERC721-safeTransferFrom}."
      },
      "setApprovalForAll(address,bool)": {
        "details": "See {IERC721-setApprovalForAll}."
      },
      "supportsInterface(bytes4)": {
        "details": "See {IERC165-supportsInterface}."
      },
      "symbol()": {
        "details": "See {IERC721Metadata-symbol}."
      },
      "tokenURI(uint256)": {
        "details": "See {IERC721Metadata-tokenURI}."
      },
      "transferFrom(address,address,uint256)": {
        "details": "See {IERC721-transferFrom}."
      }
    },
    "version": 1
  },
  "userdoc": {
    "kind": "user",
    "methods": {},
    "version": 1
  }
}