{
  "contractName": "GenesisContract",
  "abi": [
    {
      "inputs": [],
      "stateMutability": "nonpayable",
      "type": "constructor"
    },
    {
      "anonymous": false,
      "inputs": [
        {
          "indexed": true,
          "internalType": "address",
          "name": "owner",
          "type": "address"
        },
        {
          "indexed": true,
          "internalType": "address",
          "name": "approved",
          "type": "address"
        },
        {
          "indexed": true,
          "internalType": "uint256",
          "name": "tokenId",
          "type": "uint256"
        }
      ],
      "name": "Approval",
      "type": "event"
    },
    {
      "anonymous": false,
      "inputs": [
        {
          "indexed": true,
          "internalType": "address",
          "name": "owner",
          "type": "address"
        },
        {
          "indexed": true,
          "internalType": "address",
          "name": "operator",
          "type": "address"
        },
        {
          "indexed": false,
          "internalType": "bool",
          "name": "approved",
          "type": "bool"
        }
      ],
      "name": "ApprovalForAll",
      "type": "event"
    },
    {
      "anonymous": false,
      "inputs": [
        {
          "indexed": true,
          "internalType": "address",
          "name": "from",
          "type": "address"
        },
        {
          "indexed": true,
          "internalType": "address",
          "name": "to",
          "type": "address"
        },
        {
          "indexed": true,
          "internalType": "uint256",
          "name": "tokenId",
          "type": "uint256"
        }
      ],
      "name": "Transfer",
      "type": "event"
    },
    {
      "inputs": [
        {
          "internalType": "address",
          "name": "to",
          "type": "address"
        },
        {
          "internalType": "uint256",
          "name": "tokenId",
          "type": "uint256"
        }
      ],
      "name": "approve",
      "outputs": [],
      "stateMutability": "nonpayable",
      "type": "function"
    },
    {
      "inputs": [
        {
          "internalType": "address",
          "name": "owner",
          "type": "address"
        }
      ],
      "name": "balanceOf",
      "outputs": [
        {
          "internalType": "uint256",
          "name": "",
          "type": "uint256"
        }
      ],
      "stateMutability": "view",
      "type": "function",
      "constant": true
    },
    {
      "inputs": [
        {
          "internalType": "uint256",
          "name": "tokenId",
          "type": "uint256"
        }
      ],
      "name": "getApproved",
      "outputs": [
        {
          "internalType": "address",
          "name": "",
          "type": "address"
        }
      ],
      "stateMutability": "view",
      "type": "function",
      "constant": true
    },
    {
      "inputs": [
        {
          "internalType": "address",
          "name": "owner",
          "type": "address"
        },
        {
          "internalType": "address",
          "name": "operator",
          "type": "address"
        }
      ],
      "name": "isApprovedForAll",
      "outputs": [
        {
          "internalType": "bool",
          "name": "",
          "type": "bool"
        }
      ],
      "stateMutability": "view",
      "type": "function",
      "constant": true
    },
    {
      "inputs": [],
      "name": "name",
      "outputs": [
        {
          "internalType": "string",
          "name": "",
          "type": "string"
        }
      ],
      "stateMutability": "view",
      "type": "function",
      "constant": true
    },
    {
      "inputs": [
        {
          "internalType": "uint256",
          "name": "tokenId",
          "type": "uint256"
        }
      ],
      "name": "ownerOf",
      "outputs": [
        {
          "internalType": "address",
          "name": "",
          "type": "address"
        }
      ],
      "stateMutability": "view",
      "type": "function",
      "constant": true
    },
    {
      "inputs": [
        {
          "internalType": "address",
          "name": "from",
          "type": "address"
        },
        {
          "internalType": "address",
          "name": "to",
          "type": "address"
        },
        {
          "internalType": "uint256",
          "name": "tokenId",
          "type": "uint256"
        }
      ],
      "name": "safeTransferFrom",
      "outputs": [],
      "stateMutability": "nonpayable",
      "type": "function"
    },
    {
      "inputs": [
        {
          "internalType": "address",
          "name": "from",
          "type": "address"
        },
        {
          "internalType": "address",
          "name": "to",
          "type": "address"
        },
        {
          "internalType": "uint256",
          "name": "tokenId",
          "type": "uint256"
        },
        {
          "internalType": "bytes",
          "name": "_data",
          "type": "bytes"
        }
      ],
      "name": "safeTransferFrom",
      "outputs": [],
      "stateMutability": "nonpayable",
      "type": "function"
    },
    {
      "inputs": [
        {
          "internalType": "address",
          "name": "operator",
          "type": "address"
        },
        {
          "internalType": "bool",
          "name": "approved",
          "type": "bool"
        }
      ],
      "name": "setApprovalForAll",
      "outputs": [],
      "stateMutability": "nonpayable",
      "type": "function"
    },
    {
      "inputs": [
        {
          "internalType": "bytes4",
          "name": "interfaceId",
          "type": "bytes4"
        }
      ],
      "name": "supportsInterface",
      "outputs": [
        {
          "internalType": "bool",
          "name": "",
          "type": "bool"
        }
      ],
      "stateMutability": "view",
      "type": "function",
      "constant": true
    },
    {
      "inputs": [],
      "name": "symbol",
      "outputs": [
        {
          "internalType": "string",
          "name": "",
          "type": "string"
        }
      ],
      "stateMutability": "view",
      "type": "function",
      "constant": true
    },
    {
      "inputs": [
        {
          "internalType": "address",
          "name": "from",
          "type": "address"
        },
        {
          "internalType": "address",
          "name": "to",
          "type": "address"
        },
        {
          "internalType": "uint256",
          "name": "tokenId",
          "type": "uint256"
        }
      ],
      "name": "transferFrom",
      "outputs": [],
      "stateMutability": "nonpayable",
      "type": "function"
    },
    {
      "inputs": [
        {
          "internalType": "address",
          "name": "recipient",
          "type": "address"
        },
        {
          "internalType": "string",
          "name": "hash",
          "type": "string"
        },
        {
          "internalType": "uint256",
          "name": "_length",
          "type": "uint256"
        },
        {
          "internalType": "uint256",
          "name": "price",
          "type": "uint256"
        }
      ],
      "name": "awardItem",
      "outputs": [
        {
          "internalType": "uint256",
          "name": "",
          "type": "uint256"
        }
      ],
      "stateMutability": "nonpayable",
      "type": "function"
    },
    {
      "inputs": [
        {
          "internalType": "uint256",
          "name": "tokenId",
          "type": "uint256"
        }
      ],
      "name": "getPrice",
      "outputs": [
        {
          "internalType": "uint256",
          "name": "",
          "type": "uint256"
        }
      ],
      "stateMutability": "view",
      "type": "function",
      "constant": true
    },
    {
      "inputs": [
        {
          "internalType": "uint256",
          "name": "tokenId",
          "type": "uint256"
        }
      ],
      "name": "tokenURI",
      "outputs": [
        {
          "internalType": "string",
          "name": "",
          "type": "string"
        }
      ],
      "stateMutability": "view",
      "type": "function",
      "constant": true
    },
    {
      "inputs": [
        {
          "internalType": "uint256",
          "name": "tokenId",
          "type": "uint256"
        }
      ],
      "name": "getMyToken",
      "outputs": [
        {
          "internalType": "string",
          "name": "",
          "type": "string"
        }
      ],
      "stateMutability": "view",
      "type": "function",
      "constant": true
    },
    {
      "inputs": [
        {
          "internalType": "address",
          "name": "_viewerAddress",
          "type": "address"
        },
        {
          "internalType": "uint256",
          "name": "tokenId",
          "type": "uint256"
        },
        {
          "internalType": "uint256",
          "name": "price",
          "type": "uint256"
        }
      ],
      "name": "addRequestForView",
      "outputs": [
        {
          "internalType": "bool",
          "name": "",
          "type": "bool"
        }
      ],
      "stateMutability": "payable",
      "type": "function",
      "payable": true
    },
    {
      "inputs": [
        {
          "internalType": "uint256",
          "name": "tokenId",
          "type": "uint256"
        }
      ],
      "name": "viewToken",
      "outputs": [
        {
          "internalType": "string",
          "name": "",
          "type": "string"
        }
      ],
      "stateMutability": "view",
      "type": "function",
      "constant": true
    },
    {
      "inputs": [
        {
          "internalType": "uint256",
          "name": "tokenId",
          "type": "uint256"
        }
      ],
      "name": "getViewers",
      "outputs": [
        {
          "internalType": "address[]",
          "name": "",
          "type": "address[]"
        }
      ],
      "stateMutability": "view",
      "type": "function",
      "constant": true
    },
    {
      "inputs": [
        {
          "internalType": "address",
          "name": "_viewerAddress",
          "type": "address"
        }
      ],
      "name": "getTokens",
      "outputs": [
        {
          "internalType": "uint256[]",
          "name": "",
          "type": "uint256[]"
        }
      ],
      "stateMutability": "view",
      "type": "function",
      "constant": true
    },
    {
      "inputs": [],
      "name": "getOwnerList",
      "outputs": [
        {
          "internalType": "address[]",
          "name": "",
          "type": "address[]"
        }
      ],
      "stateMutability": "view",
      "type": "function",
      "constant": true
    },
    {
      "inputs": [],
      "name": "getTokenList",
      "outputs": [
        {
          "internalType": "uint256[]",
          "name": "",
          "type": "uint256[]"
        }
      ],
      "stateMutability": "view",
      "type": "function",
      "constant": true
    }
  ],
  "bytecode": "0x60806040523480156200001157600080fd5b506040518060400160405280600881526020017f4d595443414942430000000000000000000000000000000000000000000000008152506040518060400160405280600881526020017f4d59544341494243000000000000000000000000000000000000000000000000815250816000908051906020019062000096929190620000b8565b508060019080519060200190620000af929190620000b8565b505050620001cd565b828054620000c69062000168565b90600052602060002090601f016020900481019282620000ea576000855562000136565b82601f106200010557805160ff191683800117855562000136565b8280016001018555821562000136579182015b828111156200013557825182559160200191906001019062000118565b5b50905062000145919062000149565b5090565b5b80821115620001645760008160009055506001016200014a565b5090565b600060028204905060018216806200018157607f821691505b602082108114156200019857620001976200019e565b5b50919050565b7f4e487b7100000000000000000000000000000000000000000000000000000000600052602260045260246000fd5b613f7080620001dd6000396000f3fe6080604052600436106101355760003560e01c806370a08231116100ab578063b88d4fde1161006f578063b88d4fde14610465578063c87b56dd1461048e578063db93bfa2146104cb578063dfbb61f214610508578063e757223014610545578063e985e9c51461058257610135565b806370a082311461035a5780638334d1951461039757806395d89b41146103d45780639efea36d146103ff578063a22cb4651461043c57610135565b8063253e0541116100fd578063253e054114610231578063273cbaa01461026157806342842e0e1461028c578063450efe21146102b557806358100370146102f25780636352211e1461031d57610135565b806301ffc9a71461013a57806306fdde0314610177578063081812fc146101a2578063095ea7b3146101df57806323b872dd14610208575b600080fd5b34801561014657600080fd5b50610161600480360381019061015c9190612d04565b6105bf565b60405161016e9190613796565b60405180910390f35b34801561018357600080fd5b5061018c6106a1565b60405161019991906137b1565b60405180910390f35b3480156101ae57600080fd5b506101c960048036038101906101c49190612d56565b610733565b6040516101d691906136eb565b60405180910390f35b3480156101eb57600080fd5b5061020660048036038101906102019190612c79565b6107b8565b005b34801561021457600080fd5b5061022f600480360381019061022a9190612af8565b6108d0565b005b61024b60048036038101906102469190612cb5565b610930565b6040516102589190613796565b60405180910390f35b34801561026d57600080fd5b50610276610b8c565b6040516102839190613774565b60405180910390f35b34801561029857600080fd5b506102b360048036038101906102ae9190612af8565b610bea565b005b3480156102c157600080fd5b506102dc60048036038101906102d79190612a93565b610c0a565b6040516102e99190613774565b60405180910390f35b3480156102fe57600080fd5b50610307610ca7565b6040516103149190613752565b60405180910390f35b34801561032957600080fd5b50610344600480360381019061033f9190612d56565b610d3b565b60405161035191906136eb565b60405180910390f35b34801561036657600080fd5b50610381600480360381019061037c9190612a93565b610ded565b60405161038e9190613a93565b60405180910390f35b3480156103a357600080fd5b506103be60048036038101906103b99190612d56565b610ea5565b6040516103cb91906137b1565b60405180910390f35b3480156103e057600080fd5b506103e9610fa2565b6040516103f691906137b1565b60405180910390f35b34801561040b57600080fd5b5061042660048036038101906104219190612bfe565b611034565b6040516104339190613a93565b60405180910390f35b34801561044857600080fd5b50610463600480360381019061045e9190612bc2565b6113b4565b005b34801561047157600080fd5b5061048c60048036038101906104879190612b47565b611535565b005b34801561049a57600080fd5b506104b560048036038101906104b09190612d56565b611597565b6040516104c291906137b1565b60405180910390f35b3480156104d757600080fd5b506104f260048036038101906104ed9190612d56565b6115d6565b6040516104ff91906137b1565b60405180910390f35b34801561051457600080fd5b5061052f600480360381019061052a9190612d56565b6116b2565b60405161053c9190613752565b60405180910390f35b34801561055157600080fd5b5061056c60048036038101906105679190612d56565b611759565b6040516105799190613a93565b60405180910390f35b34801561058e57600080fd5b506105a960048036038101906105a49190612abc565b6117be565b6040516105b69190613796565b60405180910390f35b60007f80ac58cd000000000000000000000000000000000000000000000000000000007bffffffffffffffffffffffffffffffffffffffffffffffffffffffff1916827bffffffffffffffffffffffffffffffffffffffffffffffffffffffff1916148061068a57507f5b5e139f000000000000000000000000000000000000000000000000000000007bffffffffffffffffffffffffffffffffffffffffffffffffffffffff1916827bffffffffffffffffffffffffffffffffffffffffffffffffffffffff1916145b8061069a575061069982611852565b5b9050919050565b6060600080546106b090613d65565b80601f01602080910402602001604051908101604052809291908181526020018280546106dc90613d65565b80156107295780601f106106fe57610100808354040283529160200191610729565b820191906000526020600020905b81548152906001019060200180831161070c57829003601f168201915b5050505050905090565b600061073e826118bc565b61077d576040517f08c379a0000000000000000000000000000000000000000000000000000000008152600401610774906139b3565b60405180910390fd5b6004600083815260200190815260200160002060009054906101000a900473ffffffffffffffffffffffffffffffffffffffff169050919050565b60006107c382610d3b565b90508073ffffffffffffffffffffffffffffffffffffffff168373ffffffffffffffffffffffffffffffffffffffff161415610834576040517f08c379a000000000000000000000000000000000000000000000000000000000815260040161082b90613a33565b60405180910390fd5b8073ffffffffffffffffffffffffffffffffffffffff16610853611928565b73ffffffffffffffffffffffffffffffffffffffff16148061088257506108818161087c611928565b6117be565b5b6108c1576040517f08c379a00000000000000000000000000000000000000000000000000000000081526004016108b8906138d3565b60405180910390fd5b6108cb8383611930565b505050565b6108e16108db611928565b826119e9565b610920576040517f08c379a000000000000000000000000000000000000000000000000000000000815260040161091790613a73565b60405180910390fd5b61092b838383611ac7565b505050565b600061093b836118bc565b61097a576040517f08c379a0000000000000000000000000000000000000000000000000000000008152600401610971906139d3565b60405180910390fd5b6000600e60008581526020019081526020016000205490508083146109d4576040517f08c379a00000000000000000000000000000000000000000000000000000000081526004016109cb90613953565b60405180910390fd5b6001600c60008773ffffffffffffffffffffffffffffffffffffffff1673ffffffffffffffffffffffffffffffffffffffff168152602001908152602001600020600086815260200190815260200160002060006101000a81548160ff0219169083151502179055506001600d600086815260200190815260200160002060008773ffffffffffffffffffffffffffffffffffffffff1673ffffffffffffffffffffffffffffffffffffffff16815260200190815260200160002060006101000a81548160ff021916908315150217905550600f60008673ffffffffffffffffffffffffffffffffffffffff1673ffffffffffffffffffffffffffffffffffffffff16815260200190815260200160002084908060018154018082558091505060019003906000526020600020016000909190919091505560106000858152602001908152602001600020859080600181540180825580915050600190039060005260206000200160009091909190916101000a81548173ffffffffffffffffffffffffffffffffffffffff021916908373ffffffffffffffffffffffffffffffffffffffff16021790555060019150509392505050565b606060006009805480602002602001604051908101604052809291908181526020018280548015610bdc57602002820191906000526020600020905b815481526020019060010190808311610bc8575b505050505090508091505090565b610c0583838360405180602001604052806000815250611535565b505050565b60606000600f60008473ffffffffffffffffffffffffffffffffffffffff1673ffffffffffffffffffffffffffffffffffffffff168152602001908152602001600020805480602002602001604051908101604052809291908181526020018280548015610c9757602002820191906000526020600020905b815481526020019060010190808311610c83575b5050505050905080915050919050565b606060006008805480602002602001604051908101604052809291908181526020018280548015610d2d57602002820191906000526020600020905b8160009054906101000a900473ffffffffffffffffffffffffffffffffffffffff1673ffffffffffffffffffffffffffffffffffffffff1681526020019060010190808311610ce3575b505050505090508091505090565b6000806002600084815260200190815260200160002060009054906101000a900473ffffffffffffffffffffffffffffffffffffffff169050600073ffffffffffffffffffffffffffffffffffffffff168173ffffffffffffffffffffffffffffffffffffffff161415610de4576040517f08c379a0000000000000000000000000000000000000000000000000000000008152600401610ddb90613913565b60405180910390fd5b80915050919050565b60008073ffffffffffffffffffffffffffffffffffffffff168273ffffffffffffffffffffffffffffffffffffffff161415610e5e576040517f08c379a0000000000000000000000000000000000000000000000000000000008152600401610e55906138f3565b60405180910390fd5b600360008373ffffffffffffffffffffffffffffffffffffffff1673ffffffffffffffffffffffffffffffffffffffff168152602001908152602001600020549050919050565b6060610eb0826118bc565b610eef576040517f08c379a0000000000000000000000000000000000000000000000000000000008152600401610ee6906139d3565b60405180910390fd5b6000339050600c60008273ffffffffffffffffffffffffffffffffffffffff1673ffffffffffffffffffffffffffffffffffffffff168152602001908152602001600020600084815260200190815260200160002060009054906101000a900460ff16610f91576040517f08c379a0000000000000000000000000000000000000000000000000000000008152600401610f8890613873565b60405180910390fd5b610f9a83611d23565b915050919050565b606060018054610fb190613d65565b80601f0160208091040260200160405190810160405280929190818152602001828054610fdd90613d65565b801561102a5780601f10610fff5761010080835404028352916020019161102a565b820191906000526020600020905b81548152906001019060200180831161100d57829003601f168201915b5050505050905090565b600080600b60008773ffffffffffffffffffffffffffffffffffffffff1673ffffffffffffffffffffffffffffffffffffffff1681526020019081526020016000205414156111255782600b60008773ffffffffffffffffffffffffffffffffffffffff1673ffffffffffffffffffffffffffffffffffffffff168152602001908152602001600020819055506008859080600181540180825580915050600190039060005260206000200160009091909190916101000a81548173ffffffffffffffffffffffffffffffffffffffff021916908373ffffffffffffffffffffffffffffffffffffffff1602179055505b600061113086610ded565b90506000600b60008873ffffffffffffffffffffffffffffffffffffffff1673ffffffffffffffffffffffffffffffffffffffff1681526020019081526020016000205490508181111561136157600061118a6007611e75565b90506001816111999190613bf4565b90506111a4816118bc565b156111e4576040517f08c379a00000000000000000000000000000000000000000000000000000000081526004016111db906139d3565b60405180910390fd5b600115156111f28983611e83565b151514611234576040517f08c379a000000000000000000000000000000000000000000000000000000000815260040161122b90613a53565b60405180910390fd5b86600a6000838152602001908152602001600020908051906020019061125b9291906128b7565b506112668882612097565b6112706007612265565b61131581600a6000848152602001908152602001600020805461129290613d65565b80601f01602080910402602001604051908101604052809291908181526020018280546112be90613d65565b801561130b5780601f106112e05761010080835404028352916020019161130b565b820191906000526020600020905b8154815290600101906020018083116112ee57829003601f168201915b505050505061227b565b84600e60008381526020019081526020016000208190555060098190806001815401808255809150506001900390600052602060002001600090919091909150558093505050506113ac565b60006001146113a5576040517f08c379a000000000000000000000000000000000000000000000000000000000815260040161139c906137d3565b60405180910390fd5b6001925050505b949350505050565b6113bc611928565b73ffffffffffffffffffffffffffffffffffffffff168273ffffffffffffffffffffffffffffffffffffffff16141561142a576040517f08c379a000000000000000000000000000000000000000000000000000000000815260040161142190613853565b60405180910390fd5b8060056000611437611928565b73ffffffffffffffffffffffffffffffffffffffff1673ffffffffffffffffffffffffffffffffffffffff16815260200190815260200160002060008473ffffffffffffffffffffffffffffffffffffffff1673ffffffffffffffffffffffffffffffffffffffff16815260200190815260200160002060006101000a81548160ff0219169083151502179055508173ffffffffffffffffffffffffffffffffffffffff166114e4611928565b73ffffffffffffffffffffffffffffffffffffffff167f17307eab39ab6107e8899845ad3d59bd9653f200f220920489ca2b5937696c31836040516115299190613796565b60405180910390a35050565b611546611540611928565b836119e9565b611585576040517f08c379a000000000000000000000000000000000000000000000000000000000815260040161157c90613a73565b60405180910390fd5b611591848484846122ef565b50505050565b60606040518060400160405280600581526020017f626562616b0000000000000000000000000000000000000000000000000000008152509050919050565b60606115e1826118bc565b611620576040517f08c379a0000000000000000000000000000000000000000000000000000000008152600401611617906139d3565b60405180910390fd5b6000339050600061163084610d3b565b90508173ffffffffffffffffffffffffffffffffffffffff168173ffffffffffffffffffffffffffffffffffffffff16146116a0576040517f08c379a000000000000000000000000000000000000000000000000000000000815260040161169790613893565b60405180910390fd5b6116a984611d23565b92505050919050565b606060006010600084815260200190815260200160002080548060200260200160405190810160405280929190818152602001828054801561174957602002820191906000526020600020905b8160009054906101000a900473ffffffffffffffffffffffffffffffffffffffff1673ffffffffffffffffffffffffffffffffffffffff16815260200190600101908083116116ff575b5050505050905080915050919050565b6000611764826118bc565b6117a3576040517f08c379a000000000000000000000000000000000000000000000000000000000815260040161179a906139d3565b60405180910390fd5b600e6000838152602001908152602001600020549050919050565b6000600560008473ffffffffffffffffffffffffffffffffffffffff1673ffffffffffffffffffffffffffffffffffffffff16815260200190815260200160002060008373ffffffffffffffffffffffffffffffffffffffff1673ffffffffffffffffffffffffffffffffffffffff16815260200190815260200160002060009054906101000a900460ff16905092915050565b60007f01ffc9a7000000000000000000000000000000000000000000000000000000007bffffffffffffffffffffffffffffffffffffffffffffffffffffffff1916827bffffffffffffffffffffffffffffffffffffffffffffffffffffffff1916149050919050565b60008073ffffffffffffffffffffffffffffffffffffffff166002600084815260200190815260200160002060009054906101000a900473ffffffffffffffffffffffffffffffffffffffff1673ffffffffffffffffffffffffffffffffffffffff1614159050919050565b600033905090565b816004600083815260200190815260200160002060006101000a81548173ffffffffffffffffffffffffffffffffffffffff021916908373ffffffffffffffffffffffffffffffffffffffff160217905550808273ffffffffffffffffffffffffffffffffffffffff166119a383610d3b565b73ffffffffffffffffffffffffffffffffffffffff167f8c5be1e5ebec7d5bd14f71427d1e84f3dd0314c0f7b2291e5b200ac8c7c3b92560405160405180910390a45050565b60006119f4826118bc565b611a33576040517f08c379a0000000000000000000000000000000000000000000000000000000008152600401611a2a906138b3565b60405180910390fd5b6000611a3e83610d3b565b90508073ffffffffffffffffffffffffffffffffffffffff168473ffffffffffffffffffffffffffffffffffffffff161480611aad57508373ffffffffffffffffffffffffffffffffffffffff16611a9584610733565b73ffffffffffffffffffffffffffffffffffffffff16145b80611abe5750611abd81856117be565b5b91505092915050565b8273ffffffffffffffffffffffffffffffffffffffff16611ae782610d3b565b73ffffffffffffffffffffffffffffffffffffffff1614611b3d576040517f08c379a0000000000000000000000000000000000000000000000000000000008152600401611b34906139f3565b60405180910390fd5b600073ffffffffffffffffffffffffffffffffffffffff168273ffffffffffffffffffffffffffffffffffffffff161415611bad576040517f08c379a0000000000000000000000000000000000000000000000000000000008152600401611ba490613833565b60405180910390fd5b611bb883838361234b565b611bc3600082611930565b6001600360008573ffffffffffffffffffffffffffffffffffffffff1673ffffffffffffffffffffffffffffffffffffffff1681526020019081526020016000206000828254611c139190613c7b565b925050819055506001600360008473ffffffffffffffffffffffffffffffffffffffff1673ffffffffffffffffffffffffffffffffffffffff1681526020019081526020016000206000828254611c6a9190613bf4565b92505081905550816002600083815260200190815260200160002060006101000a81548173ffffffffffffffffffffffffffffffffffffffff021916908373ffffffffffffffffffffffffffffffffffffffff160217905550808273ffffffffffffffffffffffffffffffffffffffff168473ffffffffffffffffffffffffffffffffffffffff167fddf252ad1be2c89b69c2b068fc378daa952ba7f163c4a11628f55a4df523b3ef60405160405180910390a4505050565b6060611d2e826118bc565b611d6d576040517f08c379a0000000000000000000000000000000000000000000000000000000008152600401611d64906139d3565b60405180910390fd5b6000600a60008481526020019081526020016000208054611d8d90613d65565b80601f0160208091040260200160405190810160405280929190818152602001828054611db990613d65565b8015611e065780601f10611ddb57610100808354040283529160200191611e06565b820191906000526020600020905b815481529060010190602001808311611de957829003601f168201915b505050505090506000611e17612350565b9050600081511415611e2d578192505050611e70565b600082511115611e62578082604051602001611e4a9291906136c7565b60405160208183030381529060405292505050611e70565b611e6b84612367565b925050505b919050565b600081600001549050919050565b60006001600c60008573ffffffffffffffffffffffffffffffffffffffff1673ffffffffffffffffffffffffffffffffffffffff168152602001908152602001600020600084815260200190815260200160002060006101000a81548160ff0219169083151502179055506001600d600084815260200190815260200160002060008573ffffffffffffffffffffffffffffffffffffffff1673ffffffffffffffffffffffffffffffffffffffff16815260200190815260200160002060006101000a81548160ff021916908315150217905550600f60008473ffffffffffffffffffffffffffffffffffffffff1673ffffffffffffffffffffffffffffffffffffffff16815260200190815260200160002082908060018154018082558091505060019003906000526020600020016000909190919091505560106000838152602001908152602001600020839080600181540180825580915050600190039060005260206000200160009091909190916101000a81548173ffffffffffffffffffffffffffffffffffffffff021916908373ffffffffffffffffffffffffffffffffffffffff160217905550600c60008473ffffffffffffffffffffffffffffffffffffffff1673ffffffffffffffffffffffffffffffffffffffff168152602001908152602001600020600083815260200190815260200160002060009054906101000a900460ff16905092915050565b600073ffffffffffffffffffffffffffffffffffffffff168273ffffffffffffffffffffffffffffffffffffffff161415612107576040517f08c379a00000000000000000000000000000000000000000000000000000000081526004016120fe90613973565b60405180910390fd5b612110816118bc565b15612150576040517f08c379a000000000000000000000000000000000000000000000000000000000815260040161214790613813565b60405180910390fd5b61215c6000838361234b565b6001600360008473ffffffffffffffffffffffffffffffffffffffff1673ffffffffffffffffffffffffffffffffffffffff16815260200190815260200160002060008282546121ac9190613bf4565b92505081905550816002600083815260200190815260200160002060006101000a81548173ffffffffffffffffffffffffffffffffffffffff021916908373ffffffffffffffffffffffffffffffffffffffff160217905550808273ffffffffffffffffffffffffffffffffffffffff16600073ffffffffffffffffffffffffffffffffffffffff167fddf252ad1be2c89b69c2b068fc378daa952ba7f163c4a11628f55a4df523b3ef60405160405180910390a45050565b6001816000016000828254019250508190555050565b612284826118bc565b6122c3576040517f08c379a00000000000000000000000000000000000000000000000000000000081526004016122ba90613933565b60405180910390fd5b806006600084815260200190815260200160002090805190602001906122ea9291906128b7565b505050565b6122fa848484611ac7565b612306848484846124b9565b612345576040517f08c379a000000000000000000000000000000000000000000000000000000000815260040161233c906137f3565b60405180910390fd5b50505050565b505050565b606060405180602001604052806000815250905090565b6060612372826118bc565b6123b1576040517f08c379a00000000000000000000000000000000000000000000000000000000081526004016123a890613993565b60405180910390fd5b60006006600084815260200190815260200160002080546123d190613d65565b80601f01602080910402602001604051908101604052809291908181526020018280546123fd90613d65565b801561244a5780601f1061241f5761010080835404028352916020019161244a565b820191906000526020600020905b81548152906001019060200180831161242d57829003601f168201915b50505050509050600061245b612350565b90506000815114156124715781925050506124b4565b6000825111156124a657808260405160200161248e9291906136c7565b604051602081830303815290604052925050506124b4565b6124af84612650565b925050505b919050565b60006124da8473ffffffffffffffffffffffffffffffffffffffff166126f7565b15612643578373ffffffffffffffffffffffffffffffffffffffff1663150b7a02612503611928565b8786866040518563ffffffff1660e01b81526004016125259493929190613706565b602060405180830381600087803b15801561253f57600080fd5b505af192505050801561257057506040513d601f19601f8201168201806040525081019061256d9190612d2d565b60015b6125f3573d80600081146125a0576040519150601f19603f3d011682016040523d82523d6000602084013e6125a5565b606091505b506000815114156125eb576040517f08c379a00000000000000000000000000000000000000000000000000000000081526004016125e2906137f3565b60405180910390fd5b805181602001fd5b63150b7a0260e01b7bffffffffffffffffffffffffffffffffffffffffffffffffffffffff1916817bffffffffffffffffffffffffffffffffffffffffffffffffffffffff191614915050612648565b600190505b949350505050565b606061265b826118bc565b61269a576040517f08c379a000000000000000000000000000000000000000000000000000000000815260040161269190613a13565b60405180910390fd5b60006126a4612350565b905060008151116126c457604051806020016040528060008152506126ef565b806126ce8461270a565b6040516020016126df9291906136c7565b6040516020818303038152906040525b915050919050565b600080823b905060008111915050919050565b60606000821415612752576040518060400160405280600181526020017f300000000000000000000000000000000000000000000000000000000000000081525090506128b2565b600082905060005b6000821461278457808061276d90613d97565b915050600a8261277d9190613c4a565b915061275a565b60008167ffffffffffffffff8111156127c6577f4e487b7100000000000000000000000000000000000000000000000000000000600052604160045260246000fd5b6040519080825280601f01601f1916602001820160405280156127f85781602001600182028036833780820191505090505b5090505b600085146128ab576001826128119190613c7b565b9150600a856128209190613de0565b603061282c9190613bf4565b60f81b818381518110612868577f4e487b7100000000000000000000000000000000000000000000000000000000600052603260045260246000fd5b60200101907effffffffffffffffffffffffffffffffffffffffffffffffffffffffffffff1916908160001a905350600a856128a49190613c4a565b94506127fc565b8093505050505b919050565b8280546128c390613d65565b90600052602060002090601f0160209004810192826128e5576000855561292c565b82601f106128fe57805160ff191683800117855561292c565b8280016001018555821561292c579182015b8281111561292b578251825591602001919060010190612910565b5b509050612939919061293d565b5090565b5b8082111561295657600081600090555060010161293e565b5090565b600061296d61296884613adf565b613aae565b90508281526020810184848401111561298557600080fd5b612990848285613d23565b509392505050565b60006129ab6129a684613b0f565b613aae565b9050828152602081018484840111156129c357600080fd5b6129ce848285613d23565b509392505050565b6000813590506129e581613ede565b92915050565b6000813590506129fa81613ef5565b92915050565b600081359050612a0f81613f0c565b92915050565b600081519050612a2481613f0c565b92915050565b600082601f830112612a3b57600080fd5b8135612a4b84826020860161295a565b91505092915050565b600082601f830112612a6557600080fd5b8135612a75848260208601612998565b91505092915050565b600081359050612a8d81613f23565b92915050565b600060208284031215612aa557600080fd5b6000612ab3848285016129d6565b91505092915050565b60008060408385031215612acf57600080fd5b6000612add858286016129d6565b9250506020612aee858286016129d6565b9150509250929050565b600080600060608486031215612b0d57600080fd5b6000612b1b868287016129d6565b9350506020612b2c868287016129d6565b9250506040612b3d86828701612a7e565b9150509250925092565b60008060008060808587031215612b5d57600080fd5b6000612b6b878288016129d6565b9450506020612b7c878288016129d6565b9350506040612b8d87828801612a7e565b925050606085013567ffffffffffffffff811115612baa57600080fd5b612bb687828801612a2a565b91505092959194509250565b60008060408385031215612bd557600080fd5b6000612be3858286016129d6565b9250506020612bf4858286016129eb565b9150509250929050565b60008060008060808587031215612c1457600080fd5b6000612c22878288016129d6565b945050602085013567ffffffffffffffff811115612c3f57600080fd5b612c4b87828801612a54565b9350506040612c5c87828801612a7e565b9250506060612c6d87828801612a7e565b91505092959194509250565b60008060408385031215612c8c57600080fd5b6000612c9a858286016129d6565b9250506020612cab85828601612a7e565b9150509250929050565b600080600060608486031215612cca57600080fd5b6000612cd8868287016129d6565b9350506020612ce986828701612a7e565b9250506040612cfa86828701612a7e565b9150509250925092565b600060208284031215612d1657600080fd5b6000612d2484828501612a00565b91505092915050565b600060208284031215612d3f57600080fd5b6000612d4d84828501612a15565b91505092915050565b600060208284031215612d6857600080fd5b6000612d7684828501612a7e565b91505092915050565b6000612d8b8383612daf565b60208301905092915050565b6000612da383836136a9565b60208301905092915050565b612db881613caf565b82525050565b612dc781613caf565b82525050565b6000612dd882613b5f565b612de28185613ba5565b9350612ded83613b3f565b8060005b83811015612e1e578151612e058882612d7f565b9750612e1083613b8b565b925050600181019050612df1565b5085935050505092915050565b6000612e3682613b6a565b612e408185613bb6565b9350612e4b83613b4f565b8060005b83811015612e7c578151612e638882612d97565b9750612e6e83613b98565b925050600181019050612e4f565b5085935050505092915050565b612e9281613cc1565b82525050565b6000612ea382613b75565b612ead8185613bc7565b9350612ebd818560208601613d32565b612ec681613ecd565b840191505092915050565b6000612edc82613b80565b612ee68185613bd8565b9350612ef6818560208601613d32565b612eff81613ecd565b840191505092915050565b6000612f1582613b80565b612f1f8185613be9565b9350612f2f818560208601613d32565b80840191505092915050565b6000612f48600f83613bd8565b91507f42616c616e636520426f756e63656400000000000000000000000000000000006000830152602082019050919050565b6000612f88603283613bd8565b91507f4552433732313a207472616e7366657220746f206e6f6e20455243373231526560008301527f63656976657220696d706c656d656e74657200000000000000000000000000006020830152604082019050919050565b6000612fee601c83613bd8565b91507f4552433732313a20746f6b656e20616c7265616479206d696e746564000000006000830152602082019050919050565b600061302e602483613bd8565b91507f4552433732313a207472616e7366657220746f20746865207a65726f2061646460008301527f72657373000000000000000000000000000000000000000000000000000000006020830152604082019050919050565b6000613094601983613bd8565b91507f4552433732313a20617070726f766520746f2063616c6c6572000000000000006000830152602082019050919050565b60006130d4601083613bd8565b91507f6e6f74616c6c6f77656420746f6b656e000000000000000000000000000000006000830152602082019050919050565b6000613114600e83613bd8565b91507f696e76616c6964206163636573730000000000000000000000000000000000006000830152602082019050919050565b6000613154602c83613bd8565b91507f4552433732313a206f70657261746f7220717565727920666f72206e6f6e657860008301527f697374656e7420746f6b656e00000000000000000000000000000000000000006020830152604082019050919050565b60006131ba603883613bd8565b91507f4552433732313a20617070726f76652063616c6c6572206973206e6f74206f7760008301527f6e6572206e6f7220617070726f76656420666f7220616c6c00000000000000006020830152604082019050919050565b6000613220602a83613bd8565b91507f4552433732313a2062616c616e636520717565727920666f7220746865207a6560008301527f726f2061646472657373000000000000000000000000000000000000000000006020830152604082019050919050565b6000613286602983613bd8565b91507f4552433732313a206f776e657220717565727920666f72206e6f6e657869737460008301527f656e7420746f6b656e00000000000000000000000000000000000000000000006020830152604082019050919050565b60006132ec602e83613bd8565b91507f45524337323155524953746f726167653a2055524920736574206f66206e6f6e60008301527f6578697374656e7420746f6b656e0000000000000000000000000000000000006020830152604082019050919050565b6000613352600d83613bd8565b91507f496e76616c6964205072696365000000000000000000000000000000000000006000830152602082019050919050565b6000613392602083613bd8565b91507f4552433732313a206d696e7420746f20746865207a65726f20616464726573736000830152602082019050919050565b60006133d2603183613bd8565b91507f45524337323155524953746f726167653a2055524920717565727920666f722060008301527f6e6f6e6578697374656e7420746f6b656e0000000000000000000000000000006020830152604082019050919050565b6000613438602c83613bd8565b91507f4552433732313a20617070726f76656420717565727920666f72206e6f6e657860008301527f697374656e7420746f6b656e00000000000000000000000000000000000000006020830152604082019050919050565b600061349e601183613bd8565b91507f6e6f6e6578697374656e7420746f6b656e0000000000000000000000000000006000830152602082019050919050565b60006134de602983613bd8565b91507f4552433732313a207472616e73666572206f6620746f6b656e2074686174206960008301527f73206e6f74206f776e00000000000000000000000000000000000000000000006020830152604082019050919050565b6000613544602f83613bd8565b91507f4552433732314d657461646174613a2055524920717565727920666f72206e6f60008301527f6e6578697374656e7420746f6b656e00000000000000000000000000000000006020830152604082019050919050565b60006135aa602183613bd8565b91507f4552433732313a20617070726f76616c20746f2063757272656e74206f776e6560008301527f72000000000000000000000000000000000000000000000000000000000000006020830152604082019050919050565b6000613610600983613bd8565b91507f6e6f74206275726e7400000000000000000000000000000000000000000000006000830152602082019050919050565b6000613650603183613bd8565b91507f4552433732313a207472616e736665722063616c6c6572206973206e6f74206f60008301527f776e6572206e6f7220617070726f7665640000000000000000000000000000006020830152604082019050919050565b6136b281613d19565b82525050565b6136c181613d19565b82525050565b60006136d38285612f0a565b91506136df8284612f0a565b91508190509392505050565b60006020820190506137006000830184612dbe565b92915050565b600060808201905061371b6000830187612dbe565b6137286020830186612dbe565b61373560408301856136b8565b81810360608301526137478184612e98565b905095945050505050565b6000602082019050818103600083015261376c8184612dcd565b905092915050565b6000602082019050818103600083015261378e8184612e2b565b905092915050565b60006020820190506137ab6000830184612e89565b92915050565b600060208201905081810360008301526137cb8184612ed1565b905092915050565b600060208201905081810360008301526137ec81612f3b565b9050919050565b6000602082019050818103600083015261380c81612f7b565b9050919050565b6000602082019050818103600083015261382c81612fe1565b9050919050565b6000602082019050818103600083015261384c81613021565b9050919050565b6000602082019050818103600083015261386c81613087565b9050919050565b6000602082019050818103600083015261388c816130c7565b9050919050565b600060208201905081810360008301526138ac81613107565b9050919050565b600060208201905081810360008301526138cc81613147565b9050919050565b600060208201905081810360008301526138ec816131ad565b9050919050565b6000602082019050818103600083015261390c81613213565b9050919050565b6000602082019050818103600083015261392c81613279565b9050919050565b6000602082019050818103600083015261394c816132df565b9050919050565b6000602082019050818103600083015261396c81613345565b9050919050565b6000602082019050818103600083015261398c81613385565b9050919050565b600060208201905081810360008301526139ac816133c5565b9050919050565b600060208201905081810360008301526139cc8161342b565b9050919050565b600060208201905081810360008301526139ec81613491565b9050919050565b60006020820190508181036000830152613a0c816134d1565b9050919050565b60006020820190508181036000830152613a2c81613537565b9050919050565b60006020820190508181036000830152613a4c8161359d565b9050919050565b60006020820190508181036000830152613a6c81613603565b9050919050565b60006020820190508181036000830152613a8c81613643565b9050919050565b6000602082019050613aa860008301846136b8565b92915050565b6000604051905081810181811067ffffffffffffffff82111715613ad557613ad4613e9e565b5b8060405250919050565b600067ffffffffffffffff821115613afa57613af9613e9e565b5b601f19601f8301169050602081019050919050565b600067ffffffffffffffff821115613b2a57613b29613e9e565b5b601f19601f8301169050602081019050919050565b6000819050602082019050919050565b6000819050602082019050919050565b600081519050919050565b600081519050919050565b600081519050919050565b600081519050919050565b6000602082019050919050565b6000602082019050919050565b600082825260208201905092915050565b600082825260208201905092915050565b600082825260208201905092915050565b600082825260208201905092915050565b600081905092915050565b6000613bff82613d19565b9150613c0a83613d19565b9250827fffffffffffffffffffffffffffffffffffffffffffffffffffffffffffffffff03821115613c3f57613c3e613e11565b5b828201905092915050565b6000613c5582613d19565b9150613c6083613d19565b925082613c7057613c6f613e40565b5b828204905092915050565b6000613c8682613d19565b9150613c9183613d19565b925082821015613ca457613ca3613e11565b5b828203905092915050565b6000613cba82613cf9565b9050919050565b60008115159050919050565b60007fffffffff0000000000000000000000000000000000000000000000000000000082169050919050565b600073ffffffffffffffffffffffffffffffffffffffff82169050919050565b6000819050919050565b82818337600083830152505050565b60005b83811015613d50578082015181840152602081019050613d35565b83811115613d5f576000848401525b50505050565b60006002820490506001821680613d7d57607f821691505b60208210811415613d9157613d90613e6f565b5b50919050565b6000613da282613d19565b91507fffffffffffffffffffffffffffffffffffffffffffffffffffffffffffffffff821415613dd557613dd4613e11565b5b600182019050919050565b6000613deb82613d19565b9150613df683613d19565b925082613e0657613e05613e40565b5b828206905092915050565b7f4e487b7100000000000000000000000000000000000000000000000000000000600052601160045260246000fd5b7f4e487b7100000000000000000000000000000000000000000000000000000000600052601260045260246000fd5b7f4e487b7100000000000000000000000000000000000000000000000000000000600052602260045260246000fd5b7f4e487b7100000000000000000000000000000000000000000000000000000000600052604160045260246000fd5b6000601f19601f8301169050919050565b613ee781613caf565b8114613ef257600080fd5b50565b613efe81613cc1565b8114613f0957600080fd5b50565b613f1581613ccd565b8114613f2057600080fd5b50565b613f2c81613d19565b8114613f3757600080fd5b5056fea2646970667358221220ee781fa04d4f0429b7272aac12091eeb06819bdf59710d72887e88ca911ced8464736f6c63430008000033",
  "immutableReferences": {},
  "source": "// SPDX-License-Identifier: MIT\r\npragma solidity ^0.8.0;\r\n\r\nimport \"@openzeppelin/contracts/token/ERC721/extensions/ERC721URIStorage.sol\";\r\nimport \"@openzeppelin/contracts/utils/Counters.sol\";\r\n\r\n\r\ncontract GenesisContract is ERC721URIStorage {\r\n\r\nusing Counters for Counters.Counter;\r\n  Counters.Counter private _tokenIds;\r\n\r\n  address[] ownerAddresses;               // total minted Address\r\n  uint256[] tokenList;                  // total minted Tokens\r\n  mapping(uint256 => string) hashes;                                        \t// tokenId=>IPFS\r\n  mapping(address => uint256) ownerCap;                                     \t// maximum deployed NFT\r\n  mapping(address=>mapping(uint256=>bool)) hashesLayersAllowed;             \t// address=>TokenId ==true! false \r\n  mapping(uint256=>mapping(address=>bool)) hashesLayersAllowedByTokenId;    \t// tokenID=>address == true! false\r\n  mapping(uint256=>uint256) tokenPriceHash;                                 \t// tokenId=>Price\r\n  mapping(address=>uint[]) hashesLayersAllowedCount;\t\t\t\t\t\t\t// address=>TokenId , TOTAL TOKENS\r\n  mapping(uint256=>address[]) hashesLayersAllowedByTokenIdCount;   // TokenID=>Address , TOTAL Viewers\r\n  \r\n  \r\n \r\nconstructor() public ERC721(\"MYTCAIBC\", \"MYTCAIBC\") {}\r\n\r\n\tfunction awardItem(address recipient, string memory hash,uint256 _length,uint256 price)  public  returns (uint256)\r\n\t{\r\n\t  if(ownerCap[recipient]==0) { ownerCap[recipient]=_length; ownerAddresses.push(recipient);  }\r\n\t \r\n\t\tuint256 bal=balanceOf(recipient);\r\n\t    uint256 cap=ownerCap[recipient];\r\n\t\tif(cap>bal)\r\n\t\t\t{\r\n\t\t\t\r\n\t\t\t\tuint256 newItemId = _tokenIds.current();\t\t\t\t// get Last Existing Token\r\n\t\t\t\tnewItemId=newItemId+1;\t\t\t\t\t\t\t\t\t// increment in our menory not in existing menory\r\n\t\t\t\trequire(!_exists(newItemId), \"nonexistent token\");\t\t// if token no exist then terminate\r\n\t\t\t\trequire(addViewer(recipient,newItemId)==true,\"not burnt\");\t//\tadd tokenId to Mapping for fetch records (allowed buffer who will see)\r\n\t\t\t\thashes[newItemId] = hash;\t\t\t\t\t\t\t\t\t// mapping token=>IPFS Hass code\r\n\t\t\t\t_mint(recipient, newItemId);\r\n\t\t\t\t_tokenIds.increment();\t\t\t\t\t\t\t\t\t\t// my above increment will reflect to existing increament\r\n\t\t\t\t_setTokenURI(newItemId, hashes[newItemId]);  \t\t\t    // toekenId=>IPFS Hash\r\n\t\t\t\ttokenPriceHash[newItemId]=price;\r\n\t\t\t\ttokenList.push(newItemId);\r\n\t\t\t\treturn newItemId;\r\n\t\t\t}\r\n\t\telse require(1==0, \"Balance Bounced\");\t\r\n\t    return 1;\r\n\t}\r\n\tfunction getPrice(uint256 tokenId) public view returns(uint256)\r\n\t{\r\n\t\t   require(_exists(tokenId), \"nonexistent token\");\r\n\t\t   return tokenPriceHash[tokenId];\r\n\t}\r\n\tfunction tokenURI(uint256 tokenId) public view virtual override returns (string memory) {\r\n\t    return \"bebak\";\r\n\t}\r\n\t\r\n\tfunction getToken(uint256 tokenId) private view returns(string memory)\r\n\t{\r\n\t    require(_exists(tokenId), \"nonexistent token\");\r\n\t    string memory _tokenURI = hashes[tokenId];\r\n        string memory base = _baseURI();\r\n\r\n        // If there is no base URI, return the token URI.\r\n        if (bytes(base).length == 0) {\r\n            return _tokenURI;\r\n        }\r\n        // If both are set, concatenate the baseURI and tokenURI (via abi.encodePacked).\r\n        if (bytes(_tokenURI).length > 0) {\r\n            return string(abi.encodePacked(base, _tokenURI));\r\n        }\r\n\r\n        return super.tokenURI(tokenId);\r\n\t}\r\n\t\r\n\tfunction getMyToken(uint256 tokenId) public view returns(string memory)\r\n\t{\r\n\t    require(_exists(tokenId), \"nonexistent token\");\r\n\t    address selfAddress=msg.sender;\r\n\t    address ownerAddress=ownerOf(tokenId);\r\n\t    require(ownerAddress==selfAddress,\"invalid access\");\r\n\t    return getToken(tokenId);\r\n\t    \r\n\t} \r\n\t\r\n\tfunction addViewer(address _viewerAddress,uint256 tokenId) private    returns(bool)\r\n\t{\r\n\t    \r\n\t    hashesLayersAllowed[_viewerAddress][tokenId]=true;\r\n\t\thashesLayersAllowedByTokenId[tokenId][_viewerAddress]=true;\r\n\t\t\r\n\t\thashesLayersAllowedCount[_viewerAddress].push(tokenId);\r\n\t\thashesLayersAllowedByTokenIdCount[tokenId].push(_viewerAddress);\r\n\t\t\r\n\t    return hashesLayersAllowed[_viewerAddress][tokenId];\r\n\t}\r\n\t\r\n\tfunction addRequestForView(address _viewerAddress,uint256 tokenId,uint256 price) public payable returns(bool)\r\n\t{\r\n\t\trequire(_exists(tokenId), \"nonexistent token\");\r\n\t    uint256 priceToken=tokenPriceHash[tokenId];\r\n\t\trequire(price==priceToken,\"Invalid Price\");\r\n\t\thashesLayersAllowed[_viewerAddress][tokenId]=true;\r\n\t\thashesLayersAllowedByTokenId[tokenId][_viewerAddress]=true;\r\n\t\t\r\n\t\thashesLayersAllowedCount[_viewerAddress].push(tokenId);\r\n\t\thashesLayersAllowedByTokenIdCount[tokenId].push(_viewerAddress);\r\n\t\t\r\n\t    return true;\r\n\t}\r\n\t\r\n\tfunction viewToken(uint256 tokenId) public view returns(string memory)\r\n\t{\r\n\t    require(_exists(tokenId), \"nonexistent token\");\r\n\t    address selfAddress=msg.sender;\r\n\t    require(hashesLayersAllowed[selfAddress][tokenId],\"notallowed token\");\r\n\t   \r\n\t    return getToken(tokenId);\r\n\t    \r\n\t} \r\n\tfunction getViewers(uint256 tokenId) public view returns( address[] memory)\r\n\t{\r\n\t    \r\n\t    address[] memory memoryArray =hashesLayersAllowedByTokenIdCount[tokenId];\r\n       \r\n        return memoryArray;\r\n\t    \r\n\t    \r\n\t} \r\n\tfunction getTokens(address _viewerAddress) public view returns(uint256[] memory)\r\n\t{\r\n\t    \r\n\t     uint256[] memory tokenIds =hashesLayersAllowedCount[_viewerAddress];\r\n       \r\n\t\t\treturn tokenIds;\r\n\t}\r\n\t\r\n    function getOwnerList() public view returns(address[] memory)\r\n    {\r\n        address[] memory X=ownerAddresses;\r\n        return X;\r\n    }\r\n    \r\n    function getTokenList() public view returns(uint256[] memory)\r\n    {\r\n        uint256[] memory Y=tokenList;\r\n        return Y;\r\n    }\r\n}",
  "sourcePath": "F:/Assignment/aibcccc/AIBC/contracts/GenesisContract.sol",
  "compiler": {
    "name": "solc",
    "version": "0.8.0+commit.c7dfd78e.Emscripten.clang"
  },
  "schemaVersion": "3.3.4",
  "updatedAt": "2021-05-14T18:06:03.245Z",
  "networkType": "ethereum",
  "devdoc": {
    "kind": "dev",
    "methods": {
      "approve(address,uint256)": {
        "details": "See {IERC721-approve}."
      },
      "balanceOf(address)": {
        "details": "See {IERC721-balanceOf}."
      },
      "getApproved(uint256)": {
        "details": "See {IERC721-getApproved}."
      },
      "isApprovedForAll(address,address)": {
        "details": "See {IERC721-isApprovedForAll}."
      },
      "name()": {
        "details": "See {IERC721Metadata-name}."
      },
      "ownerOf(uint256)": {
        "details": "See {IERC721-ownerOf}."
      },
      "safeTransferFrom(address,address,uint256)": {
        "details": "See {IERC721-safeTransferFrom}."
      },
      "safeTransferFrom(address,address,uint256,bytes)": {
        "details": "See {IERC721-safeTransferFrom}."
      },
      "setApprovalForAll(address,bool)": {
        "details": "See {IERC721-setApprovalForAll}."
      },
      "supportsInterface(bytes4)": {
        "details": "See {IERC165-supportsInterface}."
      },
      "symbol()": {
        "details": "See {IERC721Metadata-symbol}."
      },
      "tokenURI(uint256)": {
        "details": "See {IERC721Metadata-tokenURI}."
      },
      "transferFrom(address,address,uint256)": {
        "details": "See {IERC721-transferFrom}."
      }
    },
    "version": 1
  },
  "userdoc": {
    "kind": "user",
    "methods": {},
    "version": 1
  }
}